{
  "_format": "hh-sol-artifact-1",
  "contractName": "FellowFund",
  "sourceName": "contracts/FellowFund.sol",
  "abi": [
    {
      "inputs": [
        {
          "internalType": "address",
          "name": "_phalaVerifier",
          "type": "address"
        },
        {
          "internalType": "address",
          "name": "_operator",
          "type": "address"
        }
      ],
      "stateMutability": "nonpayable",
      "type": "constructor"
    },
    {
      "inputs": [
        {
          "internalType": "address",
          "name": "owner",
          "type": "address"
        }
      ],
      "name": "OwnableInvalidOwner",
      "type": "error"
    },
    {
      "inputs": [
        {
          "internalType": "address",
          "name": "account",
          "type": "address"
        }
      ],
      "name": "OwnableUnauthorizedAccount",
      "type": "error"
    },
    {
      "anonymous": false,
      "inputs": [
        {
          "indexed": true,
          "internalType": "uint256",
          "name": "fellowshipId",
          "type": "uint256"
        },
        {
          "indexed": true,
          "internalType": "uint256",
          "name": "applicationId",
          "type": "uint256"
        }
      ],
      "name": "ApplicantAccepted",
      "type": "event"
    },
    {
      "anonymous": false,
      "inputs": [
        {
          "indexed": true,
          "internalType": "uint256",
          "name": "fellowshipId",
          "type": "uint256"
        },
        {
          "indexed": true,
          "internalType": "uint256",
          "name": "applicationId",
          "type": "uint256"
        },
        {
          "indexed": false,
          "internalType": "bool",
          "name": "achieved",
          "type": "bool"
        }
      ],
      "name": "ApplicationEvaluated",
      "type": "event"
    },
    {
      "anonymous": false,
      "inputs": [
        {
          "indexed": true,
          "internalType": "uint256",
          "name": "fellowshipId",
          "type": "uint256"
        },
        {
          "indexed": true,
          "internalType": "uint256",
          "name": "applicationId",
          "type": "uint256"
        },
        {
          "indexed": false,
          "internalType": "address",
          "name": "applicant",
          "type": "address"
        },
        {
          "indexed": false,
          "internalType": "string",
          "name": "metadata",
          "type": "string"
        }
      ],
      "name": "ApplicationSubmitted",
      "type": "event"
    },
    {
      "anonymous": false,
      "inputs": [
        {
          "indexed": true,
          "internalType": "uint256",
          "name": "fellowshipId",
          "type": "uint256"
        }
      ],
      "name": "EpochResolved",
      "type": "event"
    },
    {
      "anonymous": false,
      "inputs": [
        {
          "indexed": true,
          "internalType": "uint256",
          "name": "fellowshipId",
          "type": "uint256"
        },
        {
          "indexed": false,
          "internalType": "uint256",
          "name": "grantPerAccepted",
          "type": "uint256"
        },
        {
          "indexed": false,
          "internalType": "uint256",
          "name": "acceptedCount",
          "type": "uint256"
        },
        {
          "indexed": false,
          "internalType": "uint256",
          "name": "totalApplications",
          "type": "uint256"
        }
      ],
      "name": "EpochStarted",
      "type": "event"
    },
    {
      "anonymous": false,
      "inputs": [
        {
          "indexed": true,
          "internalType": "uint256",
          "name": "fellowshipId",
          "type": "uint256"
        },
        {
          "components": [
            {
              "internalType": "string",
              "name": "metadata",
              "type": "string"
            },
            {
              "internalType": "uint256",
              "name": "funds",
              "type": "uint256"
            },
            {
              "internalType": "uint256",
              "name": "applicationDeadline",
              "type": "uint256"
            },
            {
              "internalType": "uint256",
              "name": "marketDeadline",
              "type": "uint256"
            },
            {
              "internalType": "uint256",
              "name": "epochEndTime",
              "type": "uint256"
            },
            {
              "internalType": "enum FellowshipStatus",
              "name": "status",
              "type": "uint8"
            },
            {
              "internalType": "uint256",
              "name": "maxApplicants",
              "type": "uint256"
            }
          ],
          "indexed": false,
          "internalType": "struct Fellowship",
          "name": "fellowship",
          "type": "tuple"
        }
      ],
      "name": "FellowshipCreated",
      "type": "event"
    },
    {
      "anonymous": false,
      "inputs": [
        {
          "indexed": true,
          "internalType": "uint256",
          "name": "fellowshipId",
          "type": "uint256"
        }
      ],
      "name": "FellowshipResolved",
      "type": "event"
    },
    {
      "anonymous": false,
      "inputs": [
        {
          "indexed": true,
          "internalType": "uint256",
          "name": "fellowshipId",
          "type": "uint256"
        },
        {
          "indexed": true,
          "internalType": "address",
          "name": "marketAddress",
          "type": "address"
        },
        {
          "indexed": true,
          "internalType": "uint256",
          "name": "applicationId",
          "type": "uint256"
        }
      ],
      "name": "MarketOpened",
      "type": "event"
    },
    {
      "anonymous": false,
      "inputs": [
        {
          "indexed": true,
          "internalType": "address",
          "name": "previousOwner",
          "type": "address"
        },
        {
          "indexed": true,
          "internalType": "address",
          "name": "newOwner",
          "type": "address"
        }
      ],
      "name": "OwnershipTransferred",
      "type": "event"
    },
    {
      "inputs": [
        {
          "internalType": "uint256",
          "name": "",
          "type": "uint256"
        },
        {
          "internalType": "uint256",
          "name": "",
          "type": "uint256"
        }
      ],
      "name": "applications",
      "outputs": [
        {
          "internalType": "address",
          "name": "applicant",
          "type": "address"
        },
        {
          "internalType": "string",
          "name": "metadata",
          "type": "string"
        },
        {
          "internalType": "bool",
          "name": "achieved",
          "type": "bool"
        },
        {
          "internalType": "bool",
          "name": "verified",
          "type": "bool"
        },
        {
          "internalType": "bool",
          "name": "accepted",
          "type": "bool"
        },
        {
          "internalType": "uint256",
          "name": "grantAmount",
          "type": "uint256"
        }
      ],
      "stateMutability": "view",
      "type": "function"
    },
    {
      "inputs": [
        {
          "internalType": "uint256",
          "name": "fellowshipId",
          "type": "uint256"
        },
        {
          "internalType": "string",
          "name": "metadata",
          "type": "string"
        }
      ],
      "name": "applyToFellowship",
      "outputs": [],
      "stateMutability": "nonpayable",
      "type": "function"
    },
    {
      "inputs": [
        {
          "components": [
            {
              "internalType": "string",
              "name": "metadata",
              "type": "string"
            },
            {
              "internalType": "uint256",
              "name": "funds",
              "type": "uint256"
            },
            {
              "internalType": "uint256",
              "name": "applicationDeadline",
              "type": "uint256"
            },
            {
              "internalType": "uint256",
              "name": "marketDeadline",
              "type": "uint256"
            },
            {
              "internalType": "uint256",
              "name": "epochEndTime",
              "type": "uint256"
            },
            {
              "internalType": "enum FellowshipStatus",
              "name": "status",
              "type": "uint8"
            },
            {
              "internalType": "uint256",
              "name": "maxApplicants",
              "type": "uint256"
            }
          ],
          "internalType": "struct Fellowship",
          "name": "_fellowship",
          "type": "tuple"
        }
      ],
      "name": "createFellowship",
      "outputs": [],
      "stateMutability": "payable",
      "type": "function"
    },
    {
      "inputs": [
        {
          "internalType": "uint256",
          "name": "fellowshipId",
          "type": "uint256"
        }
      ],
      "name": "evaluateMarket",
      "outputs": [],
      "stateMutability": "nonpayable",
      "type": "function"
    },
    {
      "inputs": [],
      "name": "fellowshipCount",
      "outputs": [
        {
          "internalType": "uint256",
          "name": "",
          "type": "uint256"
        }
      ],
      "stateMutability": "view",
      "type": "function"
    },
    {
      "inputs": [
        {
          "internalType": "uint256",
          "name": "",
          "type": "uint256"
        }
      ],
      "name": "fellowships",
      "outputs": [
        {
          "internalType": "string",
          "name": "metadata",
          "type": "string"
        },
        {
          "internalType": "uint256",
          "name": "funds",
          "type": "uint256"
        },
        {
          "internalType": "uint256",
          "name": "applicationDeadline",
          "type": "uint256"
        },
        {
          "internalType": "uint256",
          "name": "marketDeadline",
          "type": "uint256"
        },
        {
          "internalType": "uint256",
          "name": "epochEndTime",
          "type": "uint256"
        },
        {
          "internalType": "enum FellowshipStatus",
          "name": "status",
          "type": "uint8"
        },
        {
          "internalType": "uint256",
          "name": "maxApplicants",
          "type": "uint256"
        }
      ],
      "stateMutability": "view",
      "type": "function"
    },
    {
      "inputs": [
        {
          "internalType": "uint256",
          "name": "",
          "type": "uint256"
        },
        {
          "internalType": "uint256",
          "name": "",
          "type": "uint256"
        }
      ],
      "name": "markets",
      "outputs": [
        {
          "internalType": "contract IMarket",
          "name": "",
          "type": "address"
        }
      ],
      "stateMutability": "view",
      "type": "function"
    },
    {
      "inputs": [
        {
          "internalType": "uint256",
          "name": "fellowshipId",
          "type": "uint256"
        }
      ],
      "name": "openFellowshipMarkets",
      "outputs": [],
      "stateMutability": "nonpayable",
      "type": "function"
    },
    {
      "inputs": [],
      "name": "operator",
      "outputs": [
        {
          "internalType": "address",
          "name": "",
          "type": "address"
        }
      ],
      "stateMutability": "view",
      "type": "function"
    },
    {
      "inputs": [],
      "name": "owner",
      "outputs": [
        {
          "internalType": "address",
          "name": "",
          "type": "address"
        }
      ],
      "stateMutability": "view",
      "type": "function"
    },
    {
      "inputs": [],
      "name": "phalaVerifier",
      "outputs": [
        {
          "internalType": "address",
          "name": "",
          "type": "address"
        }
      ],
      "stateMutability": "view",
      "type": "function"
    },
    {
      "inputs": [],
      "name": "renounceOwnership",
      "outputs": [],
      "stateMutability": "nonpayable",
      "type": "function"
    },
    {
      "inputs": [
        {
          "internalType": "uint256",
          "name": "fellowshipId",
          "type": "uint256"
        }
      ],
      "name": "resolveFellowship",
      "outputs": [],
      "stateMutability": "nonpayable",
      "type": "function"
    },
    {
      "inputs": [
        {
          "internalType": "uint256",
          "name": "fellowshipId",
          "type": "uint256"
        },
        {
          "internalType": "uint256",
          "name": "applicationId",
          "type": "uint256"
        },
        {
          "internalType": "bool",
          "name": "achieved",
          "type": "bool"
        },
        {
          "internalType": "bytes",
          "name": "proof",
          "type": "bytes"
        }
      ],
      "name": "setApplicantImpact",
      "outputs": [],
      "stateMutability": "nonpayable",
      "type": "function"
    },
    {
      "inputs": [
        {
          "internalType": "address",
          "name": "_operator",
          "type": "address"
        }
      ],
      "name": "setOperator",
      "outputs": [],
      "stateMutability": "nonpayable",
      "type": "function"
    },
    {
      "inputs": [
        {
          "internalType": "address",
          "name": "_verifier",
          "type": "address"
        }
      ],
      "name": "setVerifier",
      "outputs": [],
      "stateMutability": "nonpayable",
      "type": "function"
    },
    {
      "inputs": [
        {
          "internalType": "address",
          "name": "newOwner",
          "type": "address"
        }
      ],
      "name": "transferOwnership",
      "outputs": [],
      "stateMutability": "nonpayable",
      "type": "function"
    }
  ],
  "bytecode": "0x608060405234801561001057600080fd5b5060405161294538038061294583398101604081905261002f916100fc565b338061005557604051631e4fbdf760e01b81526000600482015260240160405180910390fd5b61005e81610090565b50600580546001600160a01b039384166001600160a01b0319918216179091556006805492909316911617905561012f565b600080546001600160a01b038381166001600160a01b0319831681178455604051919092169283917f8be0079c531659141344cd1fd0a4f28419497f9722a3daafe3b4186f6b6457e09190a35050565b80516001600160a01b03811681146100f757600080fd5b919050565b6000806040838503121561010f57600080fd5b610118836100e0565b9150610126602084016100e0565b90509250929050565b6128078061013e6000396000f3fe6080604052600436106100fe5760003560e01c80637a870b6311610095578063b65d35e011610064578063b65d35e0146102b1578063da5095cf146102d1578063dd204af3146102f5578063f2fde38b14610315578063fe11edc91461033557600080fd5b80637a870b631461022e5780638da5cb5b14610260578063921050e21461027e578063b3ab15fb1461029157600080fd5b8063570ca735116100d1578063570ca735146101a157806368fd5ade146101d9578063715018a6146101f957806377dae1811461020e57600080fd5b80630408820b1461010357806338c840741461013f57806345df38e3146101615780635437988d14610181575b600080fd5b34801561010f57600080fd5b5061012361011e366004611593565b610376565b604051610136979695949392919061161c565b60405180910390f35b34801561014b57600080fd5b5061015f61015a366004611593565b61043e565b005b34801561016d57600080fd5b5061015f61017c3660046116b1565b610680565b34801561018d57600080fd5b5061015f61019c3660046116fd565b61090c565b3480156101ad57600080fd5b506006546101c1906001600160a01b031681565b6040516001600160a01b039091168152602001610136565b3480156101e557600080fd5b506005546101c1906001600160a01b031681565b34801561020557600080fd5b5061015f610936565b34801561021a57600080fd5b5061015f610229366004611593565b61094a565b34801561023a57600080fd5b5061024e61024936600461172d565b610be5565b6040516101369695949392919061174f565b34801561026c57600080fd5b506000546001600160a01b03166101c1565b61015f61028c366004611798565b610cd7565b34801561029d57600080fd5b5061015f6102ac3660046116fd565b610ef7565b3480156102bd57600080fd5b5061015f6102cc366004611593565b610f21565b3480156102dd57600080fd5b506102e760015481565b604051908152602001610136565b34801561030157600080fd5b5061015f6103103660046117d3565b61133a565b34801561032157600080fd5b5061015f6103303660046116fd565b6114cb565b34801561034157600080fd5b506101c161035036600461172d565b60046020908152600092835260408084209091529082529020546001600160a01b031681565b60026020526000908152604090208054819061039190611842565b80601f01602080910402602001604051908101604052809291908181526020018280546103bd90611842565b801561040a5780601f106103df5761010080835404028352916020019161040a565b820191906000526020600020905b8154815290600101906020018083116103ed57829003601f168201915b50505060018401546002850154600386015460048701546005880154600690980154969793969295509093509160ff169087565b6006546001600160a01b031633146104715760405162461bcd60e51b81526004016104689061187c565b60405180910390fd5b6000818152600260208190526040909120908101544210156104d55760405162461bcd60e51b815260206004820152601c60248201527f4170706c69636174696f6e20706572696f64206e6f7420656e646564000000006044820152606401610468565b6001600582015460ff1660048111156104f0576104f06115f2565b1461050d5760405162461bcd60e51b8152600401610468906118c4565b600082815260036020526040902080546105775760405162461bcd60e51b815260206004820152602560248201527f4e6f206170706c69636174696f6e7320746f20637265617465206d61726b657460448201526439903337b960d91b6064820152608401610468565b60005b815481101561066d5760003085848481548110610599576105996118ec565b60009182526020909120600490910201546040516001600160a01b03909116906105c290611586565b6001600160a01b03938416815260208101929092529091166040820152606001604051809103906000f0801580156105fe573d6000803e3d6000fd5b50600086815260046020908152604080832086845290915280822080546001600160a01b0319166001600160a01b03851690811790915590519293508492909188917f2187c553ddea72dae4ef1e35b002c61a7badd8b34c0f9879156adf13e7f417549190a45060010161057a565b5050600501805460ff1916600217905550565b60008381526002602052604090206001600582015460ff1660048111156106a9576106a96115f2565b146106f65760405162461bcd60e51b815260206004820152601a60248201527f4e6f7420616363657074696e67206170706c69636174696f6e730000000000006044820152606401610468565b806002015442106107495760405162461bcd60e51b815260206004820152601860248201527f4170706c69636174696f6e20706572696f6420656e64656400000000000000006044820152606401610468565b6006810154600085815260036020526040902054106107aa5760405162461bcd60e51b815260206004820152601a60248201527f4d6178696d756d206170706c6963616e747320726561636865640000000000006044820152606401610468565b6000848152600360209081526040918290208054835160c0810185523381528451601f8801859004850281018501909552868552909391929091828201918890889081908401838280828437600092018290525093855250505060208083018290526040830182905260608301829052608090920181905283546001808201865594825290829020835160049092020180546001600160a01b0319166001600160a01b0390921691909117815590820151919290919082019061086d9082611967565b50604082810151600283018054606086015160808701511515620100000262ff0000199115156101000261ff00199515159590951661ffff1990931692909217939093179290921691909117905560a09092015160039091015551819086907f0bf8c2aff6a21155cc8ed60ae8a6c93fcaf4da767ac9c75802ef576852d7b4cb906108fd90339089908990611a26565b60405180910390a35050505050565b610914611509565b600580546001600160a01b0319166001600160a01b0392909216919091179055565b61093e611509565b6109486000611536565b565b6006546001600160a01b031633146109745760405162461bcd60e51b81526004016104689061187c565b600081815260026020526040902060048101544210156109c85760405162461bcd60e51b815260206004820152600f60248201526e115c1bd8da081b9bdd08195b991959608a1b6044820152606401610468565b6003600582015460ff1660048111156109e3576109e36115f2565b14610a005760405162461bcd60e51b8152600401610468906118c4565b6000828152600360205260408120905b8154811015610ba5576000828281548110610a2d57610a2d6118ec565b906000526020600020906004020190508060020160019054906101000a900460ff16610a9b5760405162461bcd60e51b815260206004820152601d60248201527f4e6f7420616c6c206170706c69636174696f6e732076657269666965640000006044820152606401610468565b600281015460ff1615610b22576000858152600460208181526040808420868552909152808320549051632809c36f60e21b81526001600160a01b039091169263a0270dbc92610aeb9201611a66565b600060405180830381600087803b158015610b0557600080fd5b505af1158015610b19573d6000803e3d6000fd5b50505050610b9c565b600085815260046020818152604080842086855290915291829020549151632809c36f60e21b81526001600160a01b039092169163a0270dbc91610b699160019101611a66565b600060405180830381600087803b158015610b8357600080fd5b505af1158015610b97573d6000803e3d6000fd5b505050505b50600101610a10565b5060058201805460ff1916600417905560405183907fdcc6a663e14c35c3c5dfdc826971902b981edaf3f89e3a12be2fbdd5a3f3442d90600090a2505050565b60036020528160005260406000208181548110610c0157600080fd5b6000918252602090912060049091020180546001820180546001600160a01b039092169450919250610c3290611842565b80601f0160208091040260200160405190810160405280929190818152602001828054610c5e90611842565b8015610cab5780601f10610c8057610100808354040283529160200191610cab565b820191906000526020600020905b815481529060010190602001808311610c8e57829003601f168201915b5050506002840154600390940154929360ff808216946101008304821694506201000090920416915086565b80602001353414610d215760405162461bcd60e51b8152602060048201526014602482015273125b98dbdc9c9958dd08199d5b991cc81cd95b9d60621b6044820152606401610468565b42816040013511610d745760405162461bcd60e51b815260206004820152601c60248201527f496e76616c6964206170706c69636174696f6e20646561646c696e65000000006044820152606401610468565b8060400135816060013511610dcb5760405162461bcd60e51b815260206004820152601760248201527f496e76616c6964206d61726b657420646561646c696e650000000000000000006044820152606401610468565b8060600135816080013511610e1b5760405162461bcd60e51b8152602060048201526016602482015275496e76616c69642065706f636820656e642074696d6560501b6044820152606401610468565b60008160c0013511610e685760405162461bcd60e51b8152602060048201526016602482015275496e76616c6964206d6178206170706c6963616e747360501b6044820152606401610468565b6001805460009182610e7983611a96565b9091555060008181526002602052604090209091508290610e9a8282611ba9565b50506000818152600260205260409081902060058101805460ff19166001179055905182917fb9b0f53034927daed01f72103ee43b60064a3d02f125f443ca43286a613b1fae91610eeb9190611c47565b60405180910390a25050565b610eff611509565b600680546001600160a01b0319166001600160a01b0392909216919091179055565b6006546001600160a01b03163314610f4b5760405162461bcd60e51b81526004016104689061187c565b60008181526002602052604090206003810154421015610fa15760405162461bcd60e51b815260206004820152601160248201527026b0b935b2ba1039ba34b6361037b832b760791b6044820152606401610468565b6002600582015460ff166004811115610fbc57610fbc6115f2565b14610fd95760405162461bcd60e51b8152600401610468906118c4565b60008281526003602052604081208054909190815b8181101561119157600084828154811061100a5761100a6118ec565b600091825260208083208a84526004808352604080862088875290935282852054925163db05c53760e01b815293810290910194506001600160a01b039091169291839163db05c5379161106091859101611a66565b602060405180830381865afa15801561107d573d6000803e3d6000fd5b505050506040513d601f19601f820116820180604052508101906110a19190611d29565b90506000826001600160a01b031663db05c53760016040518263ffffffff1660e01b81526004016110d29190611a66565b602060405180830381865afa1580156110ef573d6000803e3d6000fd5b505050506040513d601f19601f820116820180604052508101906111139190611d29565b905060006111218284611d42565b9050801561118057818311156111805760028501805462ff00001916620100001790558761114e81611a96565b985050858b7f7dcb248c2c5eaaf911bec57c6da7a8f55c92df45681254ff6aa89fd3f725dc2760405160405180910390a35b505060019093019250610fee915050565b50600082156111ad578285600101546111aa9190611d55565b90505b82156112dd5760005b828110156112db578481815481106111d0576111d06118ec565b906000526020600020906004020160020160029054906101000a900460ff16156112d35781858281548110611207576112076118ec565b9060005260206000209060040201600301819055506000858281548110611230576112306118ec565b600091825260208220600490910201546040516001600160a01b039091169185919081818185875af1925050503d8060008114611289576040519150601f19603f3d011682016040523d82523d6000602084013e61128e565b606091505b50509050806112d15760405162461bcd60e51b815260206004820152600f60248201526e151c985b9cd9995c8819985a5b1959608a1b6044820152606401610468565b505b6001016111b6565b505b60058501805460ff19166003179055835460408051838152602081018690529081019190915286907ffc6c725a951b30501cae57e21f8ee2c863bc9eb91a4fc9bc85ef4f4e07b861e19060600160405180910390a2505050505050565b600360008681526002602052604090206005015460ff166004811115611362576113626115f2565b1461137f5760405162461bcd60e51b8152600401610468906118c4565b6005546040516000916001600160a01b03169061139f9085908590611d77565b6000604051808303816000865af19150503d80600081146113dc576040519150601f19603f3d011682016040523d82523d6000602084013e6113e1565b606091505b50509050806114325760405162461bcd60e51b815260206004820152601960248201527f496e76616c696420616368696576656d656e742070726f6f66000000000000006044820152606401610468565b6000868152600360205260408120805487908110611452576114526118ec565b600091825260209091206002600490920201908101805461ff00198815151661ffff1990911617610100179055604051909150869088907ff7874010bceb60c99383f5d161c4064c34da8179ae6a69b4c3277f0a7cb456d4906114ba90891515815260200190565b60405180910390a350505050505050565b6114d3611509565b6001600160a01b0381166114fd57604051631e4fbdf760e01b815260006004820152602401610468565b61150681611536565b50565b6000546001600160a01b031633146109485760405163118cdaa760e01b8152336004820152602401610468565b600080546001600160a01b038381166001600160a01b0319831681178455604051919092169283917f8be0079c531659141344cd1fd0a4f28419497f9722a3daafe3b4186f6b6457e09190a35050565b610a4a80611d8883390190565b6000602082840312156115a557600080fd5b5035919050565b6000815180845260005b818110156115d2576020818501810151868301820152016115b6565b506000602082860101526020601f19601f83011685010191505092915050565b634e487b7160e01b600052602160045260246000fd5b60058110611618576116186115f2565b9052565b60e08152600061162f60e083018a6115ac565b905087602083015286604083015285606083015284608083015261165660a0830185611608565b8260c083015298975050505050505050565b60008083601f84011261167a57600080fd5b50813567ffffffffffffffff81111561169257600080fd5b6020830191508360208285010111156116aa57600080fd5b9250929050565b6000806000604084860312156116c657600080fd5b83359250602084013567ffffffffffffffff8111156116e457600080fd5b6116f086828701611668565b9497909650939450505050565b60006020828403121561170f57600080fd5b81356001600160a01b038116811461172657600080fd5b9392505050565b6000806040838503121561174057600080fd5b50508035926020909101359150565b6001600160a01b038716815260c060208201819052600090611773908301886115ac565b9515156040830152509215156060840152901515608083015260a09091015292915050565b6000602082840312156117aa57600080fd5b813567ffffffffffffffff8111156117c157600080fd5b820160e0818503121561172657600080fd5b6000806000806000608086880312156117eb57600080fd5b85359450602086013593506040860135801515811461180957600080fd5b9250606086013567ffffffffffffffff81111561182557600080fd5b61183188828901611668565b969995985093965092949392505050565b600181811c9082168061185657607f821691505b60208210810361187657634e487b7160e01b600052602260045260246000fd5b50919050565b60208082526028908201527f4f6e6c7920746865206f70657261746f722063616e2063616c6c207468697320604082015267333ab731ba34b7b760c11b606082015260800190565b6020808252600e908201526d496e76616c69642073746174757360901b604082015260600190565b634e487b7160e01b600052603260045260246000fd5b634e487b7160e01b600052604160045260246000fd5b601f82111561196257806000526020600020601f840160051c8101602085101561193f5750805b601f840160051c820191505b8181101561195f576000815560010161194b565b50505b505050565b815167ffffffffffffffff81111561198157611981611902565b6119958161198f8454611842565b84611918565b6020601f8211600181146119c957600083156119b15750848201515b600019600385901b1c1916600184901b17845561195f565b600084815260208120601f198516915b828110156119f957878501518255602094850194600190920191016119d9565b5084821015611a175786840151600019600387901b60f8161c191681555b50505050600190811b01905550565b6001600160a01b03841681526040602082018190528101829052818360608301376000818301606090810191909152601f909201601f1916010192915050565b6020810160028310611a7a57611a7a6115f2565b91905290565b634e487b7160e01b600052601160045260246000fd5b600060018201611aa857611aa8611a80565b5060010190565b67ffffffffffffffff831115611ac757611ac7611902565b611adb83611ad58354611842565b83611918565b6000601f841160018114611b0f5760008515611af75750838201355b600019600387901b1c1916600186901b17835561195f565b600083815260209020601f19861690835b82811015611b405786850135825560209485019460019092019101611b20565b5086821015611b5d5760001960f88860031b161c19848701351681555b505060018560011b0183555050505050565b6000813560058110611b8057600080fd5b92915050565b60058210611b9657611b966115f2565b60ff1981541660ff831681178255505050565b8135601e19833603018112611bbd57600080fd5b8201803567ffffffffffffffff811115611bd657600080fd5b602082019150803603821315611beb57600080fd5b611bf6818385611aaf565b505060208201356001820155604082013560028201556060820135600382015560808201356004820155611c38611c2f60a08401611b6f565b60058301611b86565b60c09190910135600690910155565b6020815260e060208201526000808354611c6081611842565b806101008601526001821660008114611c805760018114611c9e57611cd4565b60ff19831661012087015261012082151560051b8701019350611cd4565b86600052602060002060005b83811015611cca5781548882016101200152600190910190602001611caa565b8701610120019450505b505050600184015460408401526002840154606084015260038401546080840152600484015460a0840152600584015460ff16611d1460c0850182611608565b50600684015460e08401528091505092915050565b600060208284031215611d3b57600080fd5b5051919050565b80820180821115611b8057611b80611a80565b600082611d7257634e487b7160e01b600052601260045260246000fd5b500490565b818382376000910190815291905056fe60e060405234801561001057600080fd5b50604051610a4a380380610a4a83398101604081905261002f91610068565b6001600160a01b0392831660805260c0919091521660a0526100a4565b80516001600160a01b038116811461006357600080fd5b919050565b60008060006060848603121561007d57600080fd5b6100868461004c565b92506020840151915061009b6040850161004c565b90509250925092565b60805160a05160c0516109706100da600039600061021e015260006101ca015260008181610105015261047301526109706000f3fe60806040526004361061009c5760003560e01c80637e0ecc00116100645780637e0ecc001461017d57806388e687ea146101b8578063a0270dbc146101ec578063a8c694d11461020c578063db05c53714610240578063ddd387de1461026057600080fd5b80633482b644146100a157806343046844146100de578063570ca735146100f357806365372147146101275780636c27c8921461014e575b600080fd5b3480156100ad57600080fd5b506100c16100bc3660046107ee565b610298565b6040516001600160a01b0390911681526020015b60405180910390f35b6100f16100ec36600461081b565b6102c2565b005b3480156100ff57600080fd5b506100c17f000000000000000000000000000000000000000000000000000000000000000081565b34801561013357600080fd5b506000546101419060ff1681565b6040516100d59190610853565b34801561015a57600080fd5b5060005461016d90610100900460ff1681565b60405190151581526020016100d5565b34801561018957600080fd5b506101aa61019836600461081b565b60016020526000908152604090205481565b6040519081526020016100d5565b3480156101c457600080fd5b506100c17f000000000000000000000000000000000000000000000000000000000000000081565b3480156101f857600080fd5b506100f161020736600461081b565b610468565b34801561021857600080fd5b506101aa7f000000000000000000000000000000000000000000000000000000000000000081565b34801561024c57600080fd5b506101aa61025b36600461081b565b6107af565b34801561026c57600080fd5b506101aa61027b36600461087b565b600260209081526000928352604080842090915290825290205481565b600381815481106102a857600080fd5b6000918252602090912001546001600160a01b0316905081565b600054610100900460ff16156102eb57604051635afb574960e11b815260040160405180910390fd5b3460000361030c57604051639de3d44160e01b815260040160405180910390fd5b34600160008360018111156103235761032361083d565b60018111156103345761033461083d565b8152602001908152602001600020600082825461035191906108d2565b909155505033600090815260026020526040812034918360018111156103795761037961083d565b600181111561038a5761038a61083d565b815260200190815260200160002060008282546103a791906108d2565b90915550503360009081526004602052604090205460ff1661041e576003805460018181019092557fc2575a0e9e593c00f959f8c92f12db2869c3395a3b0502d05e2516446f71f85b0180546001600160a01b031916339081179091556000908152600460205260409020805460ff191690911790555b8060018111156104305761043061083d565b60405134815233907f9f6b4cced64244a64465098f682029975b1614400b96bc6bd12c6680837191669060200160405180910390a350565b336001600160a01b037f000000000000000000000000000000000000000000000000000000000000000016146104f55760405162461bcd60e51b815260206004820152602860248201527f4f6e6c7920746865206f70657261746f722063616e2063616c6c207468697320604482015267333ab731ba34b7b760c11b606482015260840160405180910390fd5b600054610100900460ff161561051e57604051635afb574960e11b815260040160405180910390fd5b600354600003610541576040516303ada9a960e21b815260040160405180910390fd5b6000805482919060ff19166001838181111561055f5761055f61083d565b02179055506000805461ff00191661010017815560018183828111156105875761058761083d565b60018111156105985761059861083d565b8152602001908152602001600020549050600081111561077057600354479060005b8181101561076c576000600382815481106105d7576105d76108eb565b60009182526020808320909101546001600160a01b0316808352600290915260408220909250818860018111156106105761061061083d565b60018111156106215761062161083d565b81526020019081526020016000205490506000811115610733576000866106488784610901565b6106529190610918565b6001600160a01b038416600081815260026020908152604080832083805290915280822082905560018252808220829055519293509183908381818185875af1925050503d80600081146106c2576040519150601f19603f3d011682016040523d82523d6000602084013e6106c7565b606091505b50509050806106e9576040516312171d8360e31b815260040160405180910390fd5b836001600160a01b03167f8407530cd30bd60843793c1ccec3f8c6f69c95ffef3e255c2de664d0dd658d618360405161072491815260200190565b60405180910390a25050610762565b6001600160a01b0382166000908152600260209081526040808320838052909152808220829055600182528120555b50506001016105ba565b5050505b8160018111156107825761078261083d565b6040517f94e5f71d5001613eb5e4ad876acb1da127582270c692c34fbcf810be21728b1d90600090a25050565b6000600160008360018111156107c7576107c761083d565b60018111156107d8576107d861083d565b8152602001908152602001600020549050919050565b60006020828403121561080057600080fd5b5035919050565b80356002811061081657600080fd5b919050565b60006020828403121561082d57600080fd5b61083682610807565b9392505050565b634e487b7160e01b600052602160045260246000fd5b602081016002831061087557634e487b7160e01b600052602160045260246000fd5b91905290565b6000806040838503121561088e57600080fd5b82356001600160a01b03811681146108a557600080fd5b91506108b360208401610807565b90509250929050565b634e487b7160e01b600052601160045260246000fd5b808201808211156108e5576108e56108bc565b92915050565b634e487b7160e01b600052603260045260246000fd5b80820281158282048414176108e5576108e56108bc565b60008261093557634e487b7160e01b600052601260045260246000fd5b50049056fea264697066735822122008cbb432b070bbe19d80e4f8f72bc235492882352ab807bca8263871eab06b0464736f6c634300081b0033a264697066735822122002514d43c6a1e15dce50628668582982ca2eddbe1b440c33d083fc559c87936964736f6c634300081b0033",
  "linkReferences": {},
  "deployedLinkReferences": {}
}