{
  "_format": "hh-sol-artifact-1",
  "contractName": "FellowFund",
  "sourceName": "contracts/FellowFund.sol",
  "abi": [
    {
      "inputs": [
        {
          "internalType": "address",
          "name": "_phalaVerifier",
          "type": "address"
        },
        {
          "internalType": "address",
          "name": "_operator",
          "type": "address"
        }
      ],
      "stateMutability": "nonpayable",
      "type": "constructor"
    },
    {
      "inputs": [
        {
          "internalType": "address",
          "name": "owner",
          "type": "address"
        }
      ],
      "name": "OwnableInvalidOwner",
      "type": "error"
    },
    {
      "inputs": [
        {
          "internalType": "address",
          "name": "account",
          "type": "address"
        }
      ],
      "name": "OwnableUnauthorizedAccount",
      "type": "error"
    },
    {
      "anonymous": false,
      "inputs": [
        {
          "indexed": true,
          "internalType": "uint256",
          "name": "fellowshipId",
          "type": "uint256"
        },
        {
          "indexed": true,
          "internalType": "uint256",
          "name": "applicationId",
          "type": "uint256"
        }
      ],
      "name": "ApplicantAccepted",
      "type": "event"
    },
    {
      "anonymous": false,
      "inputs": [
        {
          "indexed": true,
          "internalType": "uint256",
          "name": "fellowshipId",
          "type": "uint256"
        },
        {
          "indexed": true,
          "internalType": "uint256",
          "name": "applicationId",
          "type": "uint256"
        },
        {
          "indexed": false,
          "internalType": "bool",
          "name": "achieved",
          "type": "bool"
        }
      ],
      "name": "ApplicationEvaluated",
      "type": "event"
    },
    {
      "anonymous": false,
      "inputs": [
        {
          "indexed": true,
          "internalType": "uint256",
          "name": "fellowshipId",
          "type": "uint256"
        },
        {
          "indexed": true,
          "internalType": "uint256",
          "name": "applicationId",
          "type": "uint256"
        },
        {
          "indexed": false,
          "internalType": "address",
          "name": "applicant",
          "type": "address"
        },
        {
          "indexed": false,
          "internalType": "string",
          "name": "metadata",
          "type": "string"
        }
      ],
      "name": "ApplicationSubmitted",
      "type": "event"
    },
    {
      "anonymous": false,
      "inputs": [
        {
          "indexed": true,
          "internalType": "uint256",
          "name": "fellowshipId",
          "type": "uint256"
        }
      ],
      "name": "EpochResolved",
      "type": "event"
    },
    {
      "anonymous": false,
      "inputs": [
        {
          "indexed": true,
          "internalType": "uint256",
          "name": "fellowshipId",
          "type": "uint256"
        },
        {
          "indexed": false,
          "internalType": "uint256",
          "name": "grantPerAccepted",
          "type": "uint256"
        },
        {
          "indexed": false,
          "internalType": "uint256",
          "name": "acceptedCount",
          "type": "uint256"
        },
        {
          "indexed": false,
          "internalType": "uint256",
          "name": "totalApplications",
          "type": "uint256"
        }
      ],
      "name": "EpochStarted",
      "type": "event"
    },
    {
      "anonymous": false,
      "inputs": [
        {
          "indexed": true,
          "internalType": "uint256",
          "name": "fellowshipId",
          "type": "uint256"
        },
        {
          "components": [
            {
              "internalType": "string",
              "name": "metadata",
              "type": "string"
            },
            {
              "internalType": "uint256",
              "name": "funds",
              "type": "uint256"
            },
            {
              "internalType": "uint256",
              "name": "applicationDeadline",
              "type": "uint256"
            },
            {
              "internalType": "uint256",
              "name": "marketDeadline",
              "type": "uint256"
            },
            {
              "internalType": "uint256",
              "name": "epochEndTime",
              "type": "uint256"
            },
            {
              "internalType": "enum FellowshipStatus",
              "name": "status",
              "type": "uint8"
            }
          ],
          "indexed": false,
          "internalType": "struct Fellowship",
          "name": "fellowship",
          "type": "tuple"
        }
      ],
      "name": "FellowshipCreated",
      "type": "event"
    },
    {
      "anonymous": false,
      "inputs": [
        {
          "indexed": true,
          "internalType": "uint256",
          "name": "fellowshipId",
          "type": "uint256"
        }
      ],
      "name": "FellowshipResolved",
      "type": "event"
    },
    {
      "anonymous": false,
      "inputs": [
        {
          "indexed": true,
          "internalType": "uint256",
          "name": "fellowshipId",
          "type": "uint256"
        },
        {
          "indexed": true,
          "internalType": "address",
          "name": "marketAddress",
          "type": "address"
        },
        {
          "indexed": true,
          "internalType": "uint256",
          "name": "applicationId",
          "type": "uint256"
        }
      ],
      "name": "MarketOpened",
      "type": "event"
    },
    {
      "anonymous": false,
      "inputs": [
        {
          "indexed": true,
          "internalType": "address",
          "name": "previousOwner",
          "type": "address"
        },
        {
          "indexed": true,
          "internalType": "address",
          "name": "newOwner",
          "type": "address"
        }
      ],
      "name": "OwnershipTransferred",
      "type": "event"
    },
    {
      "inputs": [
        {
          "internalType": "uint256",
          "name": "",
          "type": "uint256"
        },
        {
          "internalType": "uint256",
          "name": "",
          "type": "uint256"
        }
      ],
      "name": "applications",
      "outputs": [
        {
          "internalType": "address",
          "name": "applicant",
          "type": "address"
        },
        {
          "internalType": "string",
          "name": "metadata",
          "type": "string"
        },
        {
          "internalType": "bool",
          "name": "achieved",
          "type": "bool"
        },
        {
          "internalType": "bool",
          "name": "verified",
          "type": "bool"
        },
        {
          "internalType": "bool",
          "name": "accepted",
          "type": "bool"
        },
        {
          "internalType": "uint256",
          "name": "grantAmount",
          "type": "uint256"
        }
      ],
      "stateMutability": "view",
      "type": "function"
    },
    {
      "inputs": [
        {
          "internalType": "uint256",
          "name": "fellowshipId",
          "type": "uint256"
        },
        {
          "internalType": "string",
          "name": "metadata",
          "type": "string"
        }
      ],
      "name": "applyToFellowship",
      "outputs": [],
      "stateMutability": "nonpayable",
      "type": "function"
    },
    {
      "inputs": [
        {
          "internalType": "string",
          "name": "_metadata",
          "type": "string"
        },
        {
          "internalType": "uint256",
          "name": "_funds",
          "type": "uint256"
        },
        {
          "internalType": "uint256",
          "name": "_applicationDeadline",
          "type": "uint256"
        },
        {
          "internalType": "uint256",
          "name": "_marketDeadline",
          "type": "uint256"
        },
        {
          "internalType": "uint256",
          "name": "_epochDeadline",
          "type": "uint256"
        }
      ],
      "name": "createFellowship",
      "outputs": [],
      "stateMutability": "payable",
      "type": "function"
    },
    {
      "inputs": [
        {
          "internalType": "uint256",
          "name": "fellowshipId",
          "type": "uint256"
        }
      ],
      "name": "evaluateMarket",
      "outputs": [],
      "stateMutability": "nonpayable",
      "type": "function"
    },
    {
      "inputs": [],
      "name": "fellowshipCount",
      "outputs": [
        {
          "internalType": "uint256",
          "name": "",
          "type": "uint256"
        }
      ],
      "stateMutability": "view",
      "type": "function"
    },
    {
      "inputs": [
        {
          "internalType": "uint256",
          "name": "",
          "type": "uint256"
        }
      ],
      "name": "fellowships",
      "outputs": [
        {
          "internalType": "string",
          "name": "metadata",
          "type": "string"
        },
        {
          "internalType": "uint256",
          "name": "funds",
          "type": "uint256"
        },
        {
          "internalType": "uint256",
          "name": "applicationDeadline",
          "type": "uint256"
        },
        {
          "internalType": "uint256",
          "name": "marketDeadline",
          "type": "uint256"
        },
        {
          "internalType": "uint256",
          "name": "epochEndTime",
          "type": "uint256"
        },
        {
          "internalType": "enum FellowshipStatus",
          "name": "status",
          "type": "uint8"
        }
      ],
      "stateMutability": "view",
      "type": "function"
    },
    {
      "inputs": [
        {
          "internalType": "uint256",
          "name": "",
          "type": "uint256"
        },
        {
          "internalType": "uint256",
          "name": "",
          "type": "uint256"
        }
      ],
      "name": "markets",
      "outputs": [
        {
          "internalType": "contract IMarket",
          "name": "",
          "type": "address"
        }
      ],
      "stateMutability": "view",
      "type": "function"
    },
    {
      "inputs": [
        {
          "internalType": "uint256",
          "name": "fellowshipId",
          "type": "uint256"
        }
      ],
      "name": "openFellowshipMarkets",
      "outputs": [],
      "stateMutability": "nonpayable",
      "type": "function"
    },
    {
      "inputs": [],
      "name": "operator",
      "outputs": [
        {
          "internalType": "address",
          "name": "",
          "type": "address"
        }
      ],
      "stateMutability": "view",
      "type": "function"
    },
    {
      "inputs": [],
      "name": "owner",
      "outputs": [
        {
          "internalType": "address",
          "name": "",
          "type": "address"
        }
      ],
      "stateMutability": "view",
      "type": "function"
    },
    {
      "inputs": [],
      "name": "phalaVerifier",
      "outputs": [
        {
          "internalType": "address",
          "name": "",
          "type": "address"
        }
      ],
      "stateMutability": "view",
      "type": "function"
    },
    {
      "inputs": [],
      "name": "renounceOwnership",
      "outputs": [],
      "stateMutability": "nonpayable",
      "type": "function"
    },
    {
      "inputs": [
        {
          "internalType": "uint256",
          "name": "fellowshipId",
          "type": "uint256"
        }
      ],
      "name": "resolveFellowship",
      "outputs": [],
      "stateMutability": "nonpayable",
      "type": "function"
    },
    {
      "inputs": [
        {
          "internalType": "uint256",
          "name": "fellowshipId",
          "type": "uint256"
        },
        {
          "internalType": "uint256",
          "name": "applicationId",
          "type": "uint256"
        },
        {
          "internalType": "bool",
          "name": "achieved",
          "type": "bool"
        },
        {
          "internalType": "bytes",
          "name": "proof",
          "type": "bytes"
        }
      ],
      "name": "setApplicantImpact",
      "outputs": [],
      "stateMutability": "nonpayable",
      "type": "function"
    },
    {
      "inputs": [
        {
          "internalType": "address",
          "name": "_operator",
          "type": "address"
        }
      ],
      "name": "setOperator",
      "outputs": [],
      "stateMutability": "nonpayable",
      "type": "function"
    },
    {
      "inputs": [
        {
          "internalType": "address",
          "name": "_verifier",
          "type": "address"
        }
      ],
      "name": "setVerifier",
      "outputs": [],
      "stateMutability": "nonpayable",
      "type": "function"
    },
    {
      "inputs": [
        {
          "internalType": "address",
          "name": "newOwner",
          "type": "address"
        }
      ],
      "name": "transferOwnership",
      "outputs": [],
      "stateMutability": "nonpayable",
      "type": "function"
    }
  ],
  "bytecode": "0x608060405234801561001057600080fd5b5060405161292b38038061292b83398101604081905261002f916100fc565b338061005557604051631e4fbdf760e01b81526000600482015260240160405180910390fd5b61005e81610090565b50600580546001600160a01b039384166001600160a01b0319918216179091556006805492909316911617905561012f565b600080546001600160a01b038381166001600160a01b0319831681178455604051919092169283917f8be0079c531659141344cd1fd0a4f28419497f9722a3daafe3b4186f6b6457e09190a35050565b80516001600160a01b03811681146100f757600080fd5b919050565b6000806040838503121561010f57600080fd5b610118836100e0565b9150610126602084016100e0565b90509250929050565b6127ed8061013e6000396000f3fe6080604052600436106100fe5760003560e01c80637a870b6311610095578063b65d35e011610064578063b65d35e0146102b0578063da5095cf146102d0578063dd204af3146102f4578063f2fde38b14610314578063fe11edc91461033457600080fd5b80637a870b631461022d57806388f4d1a01461025f5780638da5cb5b14610272578063b3ab15fb1461029057600080fd5b8063570ca735116100d1578063570ca735146101a057806368fd5ade146101d8578063715018a6146101f857806377dae1811461020d57600080fd5b80630408820b1461010357806338c840741461013e57806345df38e3146101605780635437988d14610180575b600080fd5b34801561010f57600080fd5b5061012361011e366004611568565b610375565b604051610135969594939291906115f1565b60405180910390f35b34801561014a57600080fd5b5061015e610159366004611568565b610435565b005b34801561016c57600080fd5b5061015e61017b36600461167f565b610677565b34801561018c57600080fd5b5061015e61019b3660046116cb565b6108a2565b3480156101ac57600080fd5b506006546101c0906001600160a01b031681565b6040516001600160a01b039091168152602001610135565b3480156101e457600080fd5b506005546101c0906001600160a01b031681565b34801561020457600080fd5b5061015e6108cc565b34801561021957600080fd5b5061015e610228366004611568565b6108e0565b34801561023957600080fd5b5061024d6102483660046116fb565b610b7b565b6040516101359695949392919061171d565b61015e61026d366004611766565b610c6d565b34801561027e57600080fd5b506000546001600160a01b03166101c0565b34801561029c57600080fd5b5061015e6102ab3660046116cb565b610ecc565b3480156102bc57600080fd5b5061015e6102cb366004611568565b610ef6565b3480156102dc57600080fd5b506102e660015481565b604051908152602001610135565b34801561030057600080fd5b5061015e61030f3660046117c8565b61130f565b34801561032057600080fd5b5061015e61032f3660046116cb565b6114a0565b34801561034057600080fd5b506101c061034f3660046116fb565b60046020908152600092835260408084209091529082529020546001600160a01b031681565b60026020526000908152604090208054819061039090611837565b80601f01602080910402602001604051908101604052809291908181526020018280546103bc90611837565b80156104095780601f106103de57610100808354040283529160200191610409565b820191906000526020600020905b8154815290600101906020018083116103ec57829003601f168201915b505050600184015460028501546003860154600487015460059097015495969295919450925060ff1686565b6006546001600160a01b031633146104685760405162461bcd60e51b815260040161045f90611871565b60405180910390fd5b6000818152600260208190526040909120908101544210156104cc5760405162461bcd60e51b815260206004820152601c60248201527f4170706c69636174696f6e20706572696f64206e6f7420656e64656400000000604482015260640161045f565b6001600582015460ff1660048111156104e7576104e76115c7565b146105045760405162461bcd60e51b815260040161045f906118b9565b6000828152600360205260409020805461056e5760405162461bcd60e51b815260206004820152602560248201527f4e6f206170706c69636174696f6e7320746f20637265617465206d61726b657460448201526439903337b960d91b606482015260840161045f565b60005b81548110156106645760003085848481548110610590576105906118e1565b60009182526020909120600490910201546040516001600160a01b03909116906105b99061155b565b6001600160a01b03938416815260208101929092529091166040820152606001604051809103906000f0801580156105f5573d6000803e3d6000fd5b50600086815260046020908152604080832086845290915280822080546001600160a01b0319166001600160a01b03851690811790915590519293508492909188917f2187c553ddea72dae4ef1e35b002c61a7badd8b34c0f9879156adf13e7f417549190a450600101610571565b5050600501805460ff1916600217905550565b60008381526002602052604090206001600582015460ff1660048111156106a0576106a06115c7565b146106ed5760405162461bcd60e51b815260206004820152601a60248201527f4e6f7420616363657074696e67206170706c69636174696f6e73000000000000604482015260640161045f565b806002015442106107405760405162461bcd60e51b815260206004820152601860248201527f4170706c69636174696f6e20706572696f6420656e6465640000000000000000604482015260640161045f565b6000848152600360209081526040918290208054835160c0810185523381528451601f8801859004850281018501909552868552909391929091828201918890889081908401838280828437600092018290525093855250505060208083018290526040830182905260608301829052608090920181905283546001808201865594825290829020835160049092020180546001600160a01b0319166001600160a01b039092169190911781559082015191929091908201906108039082611971565b50604082810151600283018054606086015160808701511515620100000262ff0000199115156101000261ff00199515159590951661ffff1990931692909217939093179290921691909117905560a09092015160039091015551819086907f0bf8c2aff6a21155cc8ed60ae8a6c93fcaf4da767ac9c75802ef576852d7b4cb9061089390339089908990611a2a565b60405180910390a35050505050565b6108aa6114de565b600580546001600160a01b0319166001600160a01b0392909216919091179055565b6108d46114de565b6108de600061150b565b565b6006546001600160a01b0316331461090a5760405162461bcd60e51b815260040161045f90611871565b6000818152600260205260409020600481015442101561095e5760405162461bcd60e51b815260206004820152600f60248201526e115c1bd8da081b9bdd08195b991959608a1b604482015260640161045f565b6003600582015460ff166004811115610979576109796115c7565b146109965760405162461bcd60e51b815260040161045f906118b9565b6000828152600360205260408120905b8154811015610b3b5760008282815481106109c3576109c36118e1565b906000526020600020906004020190508060020160019054906101000a900460ff16610a315760405162461bcd60e51b815260206004820152601d60248201527f4e6f7420616c6c206170706c69636174696f6e73207665726966696564000000604482015260640161045f565b600281015460ff1615610ab8576000858152600460208181526040808420868552909152808320549051632809c36f60e21b81526001600160a01b039091169263a0270dbc92610a819201611a6a565b600060405180830381600087803b158015610a9b57600080fd5b505af1158015610aaf573d6000803e3d6000fd5b50505050610b32565b600085815260046020818152604080842086855290915291829020549151632809c36f60e21b81526001600160a01b039092169163a0270dbc91610aff9160019101611a6a565b600060405180830381600087803b158015610b1957600080fd5b505af1158015610b2d573d6000803e3d6000fd5b505050505b506001016109a6565b5060058201805460ff1916600417905560405183907fdcc6a663e14c35c3c5dfdc826971902b981edaf3f89e3a12be2fbdd5a3f3442d90600090a2505050565b60036020528160005260406000208181548110610b9757600080fd5b6000918252602090912060049091020180546001820180546001600160a01b039092169450919250610bc890611837565b80601f0160208091040260200160405190810160405280929190818152602001828054610bf490611837565b8015610c415780601f10610c1657610100808354040283529160200191610c41565b820191906000526020600020905b815481529060010190602001808311610c2457829003601f168201915b5050506002840154600390940154929360ff808216946101008304821694506201000090920416915086565b833414610cb35760405162461bcd60e51b8152602060048201526014602482015273125b98dbdc9c9958dd08199d5b991cc81cd95b9d60621b604482015260640161045f565b428311610d025760405162461bcd60e51b815260206004820152601c60248201527f496e76616c6964206170706c69636174696f6e20646561646c696e6500000000604482015260640161045f565b828211610d515760405162461bcd60e51b815260206004820152601760248201527f496e76616c6964206d61726b657420646561646c696e65000000000000000000604482015260640161045f565b818111610d995760405162461bcd60e51b8152602060048201526016602482015275496e76616c69642065706f636820656e642074696d6560501b604482015260640161045f565b600180549081906000610dab83611a9a565b9091555050600081815260026020526040902080610dca888a83611ab3565b50600181018690556002808201869055600382018590556004820184905560058201805460ff19169055600083815260209190915260409020819080610e108382611b6d565b5060018281015482820155600280840154908301556003808401549083015560048084015481840155600580850154908401805460ff90921693909260ff19909216918490811115610e6457610e646115c7565b021790555050506000828152600260205260409081902060058101805460ff19166001179055905183917f08ab39fa08295a49bdfd2a3a7863a5a1505e06557326b884546e0b2cfb55872a91610eba9190611c35565b60405180910390a25050505050505050565b610ed46114de565b600680546001600160a01b0319166001600160a01b0392909216919091179055565b6006546001600160a01b03163314610f205760405162461bcd60e51b815260040161045f90611871565b60008181526002602052604090206003810154421015610f765760405162461bcd60e51b815260206004820152601160248201527026b0b935b2ba1039ba34b6361037b832b760791b604482015260640161045f565b6002600582015460ff166004811115610f9157610f916115c7565b14610fae5760405162461bcd60e51b815260040161045f906118b9565b60008281526003602052604081208054909190815b81811015611166576000848281548110610fdf57610fdf6118e1565b600091825260208083208a84526004808352604080862088875290935282852054925163db05c53760e01b815293810290910194506001600160a01b039091169291839163db05c5379161103591859101611a6a565b602060405180830381865afa158015611052573d6000803e3d6000fd5b505050506040513d601f19601f820116820180604052508101906110769190611d09565b90506000826001600160a01b031663db05c53760016040518263ffffffff1660e01b81526004016110a79190611a6a565b602060405180830381865afa1580156110c4573d6000803e3d6000fd5b505050506040513d601f19601f820116820180604052508101906110e89190611d09565b905060006110f68284611d22565b9050801561115557818311156111555760028501805462ff00001916620100001790558761112381611a9a565b985050858b7f7dcb248c2c5eaaf911bec57c6da7a8f55c92df45681254ff6aa89fd3f725dc2760405160405180910390a35b505060019093019250610fc3915050565b50600082156111825782856001015461117f9190611d3b565b90505b82156112b25760005b828110156112b0578481815481106111a5576111a56118e1565b906000526020600020906004020160020160029054906101000a900460ff16156112a857818582815481106111dc576111dc6118e1565b9060005260206000209060040201600301819055506000858281548110611205576112056118e1565b600091825260208220600490910201546040516001600160a01b039091169185919081818185875af1925050503d806000811461125e576040519150601f19603f3d011682016040523d82523d6000602084013e611263565b606091505b50509050806112a65760405162461bcd60e51b815260206004820152600f60248201526e151c985b9cd9995c8819985a5b1959608a1b604482015260640161045f565b505b60010161118b565b505b60058501805460ff19166003179055835460408051838152602081018690529081019190915286907ffc6c725a951b30501cae57e21f8ee2c863bc9eb91a4fc9bc85ef4f4e07b861e19060600160405180910390a2505050505050565b600360008681526002602052604090206005015460ff166004811115611337576113376115c7565b146113545760405162461bcd60e51b815260040161045f906118b9565b6005546040516000916001600160a01b0316906113749085908590611d5d565b6000604051808303816000865af19150503d80600081146113b1576040519150601f19603f3d011682016040523d82523d6000602084013e6113b6565b606091505b50509050806114075760405162461bcd60e51b815260206004820152601960248201527f496e76616c696420616368696576656d656e742070726f6f6600000000000000604482015260640161045f565b6000868152600360205260408120805487908110611427576114276118e1565b600091825260209091206002600490920201908101805461ff00198815151661ffff1990911617610100179055604051909150869088907ff7874010bceb60c99383f5d161c4064c34da8179ae6a69b4c3277f0a7cb456d49061148f90891515815260200190565b60405180910390a350505050505050565b6114a86114de565b6001600160a01b0381166114d257604051631e4fbdf760e01b81526000600482015260240161045f565b6114db8161150b565b50565b6000546001600160a01b031633146108de5760405163118cdaa760e01b815233600482015260240161045f565b600080546001600160a01b038381166001600160a01b0319831681178455604051919092169283917f8be0079c531659141344cd1fd0a4f28419497f9722a3daafe3b4186f6b6457e09190a35050565b610a4a80611d6e83390190565b60006020828403121561157a57600080fd5b5035919050565b6000815180845260005b818110156115a75760208185018101518683018201520161158b565b506000602082860101526020601f19601f83011685010191505092915050565b634e487b7160e01b600052602160045260246000fd5b600581106115ed576115ed6115c7565b9052565b60c08152600061160460c0830189611581565b905086602083015285604083015284606083015283608083015261162b60a08301846115dd565b979650505050505050565b60008083601f84011261164857600080fd5b50813567ffffffffffffffff81111561166057600080fd5b60208301915083602082850101111561167857600080fd5b9250929050565b60008060006040848603121561169457600080fd5b83359250602084013567ffffffffffffffff8111156116b257600080fd5b6116be86828701611636565b9497909650939450505050565b6000602082840312156116dd57600080fd5b81356001600160a01b03811681146116f457600080fd5b9392505050565b6000806040838503121561170e57600080fd5b50508035926020909101359150565b6001600160a01b038716815260c06020820181905260009061174190830188611581565b9515156040830152509215156060840152901515608083015260a09091015292915050565b60008060008060008060a0878903121561177f57600080fd5b863567ffffffffffffffff81111561179657600080fd5b6117a289828a01611636565b909a90995060208901359860408101359850606081013597506080013595509350505050565b6000806000806000608086880312156117e057600080fd5b8535945060208601359350604086013580151581146117fe57600080fd5b9250606086013567ffffffffffffffff81111561181a57600080fd5b61182688828901611636565b969995985093965092949392505050565b600181811c9082168061184b57607f821691505b60208210810361186b57634e487b7160e01b600052602260045260246000fd5b50919050565b60208082526028908201527f4f6e6c7920746865206f70657261746f722063616e2063616c6c207468697320604082015267333ab731ba34b7b760c11b606082015260800190565b6020808252600e908201526d496e76616c69642073746174757360901b604082015260600190565b634e487b7160e01b600052603260045260246000fd5b634e487b7160e01b600052604160045260246000fd5b601f82111561195757806000526020600020601f840160051c810160208510156119345750805b601f840160051c820191505b818110156119545760008155600101611940565b50505b505050565b600019600383901b1c191660019190911b1790565b815167ffffffffffffffff81111561198b5761198b6118f7565b61199f816119998454611837565b8461190d565b6020601f8211600181146119cd57600083156119bb5750848201515b6119c5848261195c565b855550611954565b600084815260208120601f198516915b828110156119fd57878501518255602094850194600190920191016119dd565b5084821015611a1b5786840151600019600387901b60f8161c191681555b50505050600190811b01905550565b6001600160a01b03841681526040602082018190528101829052818360608301376000818301606090810191909152601f909201601f1916010192915050565b6020810160028310611a7e57611a7e6115c7565b91905290565b634e487b7160e01b600052601160045260246000fd5b600060018201611aac57611aac611a84565b5060010190565b67ffffffffffffffff831115611acb57611acb6118f7565b611adf83611ad98354611837565b8361190d565b6000601f841160018114611b0d5760008515611afb5750838201355b611b05868261195c565b845550611954565b600083815260209020601f19861690835b82811015611b3e5786850135825560209485019460019092019101611b1e565b5086821015611b5b5760001960f88860031b161c19848701351681555b505060018560011b0183555050505050565b818103611b78575050565b611b828254611837565b67ffffffffffffffff811115611b9a57611b9a6118f7565b611ba8816119998454611837565b6000601f821160018114611bcd57600083156119bb5750848201546119c5848261195c565b600085815260209020601f19841690600086815260209020845b83811015611c075782860154825560019586019590910190602001611be7565b5085831015611c255781850154600019600388901b60f8161c191681555b5050505050600190811b01905550565b6020815260c060208201526000808354611c4e81611837565b8060e08601526001821660008114611c6d5760018114611c8b57611cc1565b60ff19831661010087015261010082151560051b8701019350611cc1565b86600052602060002060005b83811015611cb75781548882016101000152600190910190602001611c97565b8701610100019450505b505050600184015460408401526002840154606084015260038401546080840152600484015460a0840152600584015460ff16611d0160c08501826115dd565b509392505050565b600060208284031215611d1b57600080fd5b5051919050565b80820180821115611d3557611d35611a84565b92915050565b600082611d5857634e487b7160e01b600052601260045260246000fd5b500490565b818382376000910190815291905056fe60e060405234801561001057600080fd5b50604051610a4a380380610a4a83398101604081905261002f91610068565b6001600160a01b0392831660805260c0919091521660a0526100a4565b80516001600160a01b038116811461006357600080fd5b919050565b60008060006060848603121561007d57600080fd5b6100868461004c565b92506020840151915061009b6040850161004c565b90509250925092565b60805160a05160c0516109706100da600039600061021e015260006101ca015260008181610105015261047301526109706000f3fe60806040526004361061009c5760003560e01c80637e0ecc00116100645780637e0ecc001461017d57806388e687ea146101b8578063a0270dbc146101ec578063a8c694d11461020c578063db05c53714610240578063ddd387de1461026057600080fd5b80633482b644146100a157806343046844146100de578063570ca735146100f357806365372147146101275780636c27c8921461014e575b600080fd5b3480156100ad57600080fd5b506100c16100bc3660046107ee565b610298565b6040516001600160a01b0390911681526020015b60405180910390f35b6100f16100ec36600461081b565b6102c2565b005b3480156100ff57600080fd5b506100c17f000000000000000000000000000000000000000000000000000000000000000081565b34801561013357600080fd5b506000546101419060ff1681565b6040516100d59190610853565b34801561015a57600080fd5b5060005461016d90610100900460ff1681565b60405190151581526020016100d5565b34801561018957600080fd5b506101aa61019836600461081b565b60016020526000908152604090205481565b6040519081526020016100d5565b3480156101c457600080fd5b506100c17f000000000000000000000000000000000000000000000000000000000000000081565b3480156101f857600080fd5b506100f161020736600461081b565b610468565b34801561021857600080fd5b506101aa7f000000000000000000000000000000000000000000000000000000000000000081565b34801561024c57600080fd5b506101aa61025b36600461081b565b6107af565b34801561026c57600080fd5b506101aa61027b36600461087b565b600260209081526000928352604080842090915290825290205481565b600381815481106102a857600080fd5b6000918252602090912001546001600160a01b0316905081565b600054610100900460ff16156102eb57604051635afb574960e11b815260040160405180910390fd5b3460000361030c57604051639de3d44160e01b815260040160405180910390fd5b34600160008360018111156103235761032361083d565b60018111156103345761033461083d565b8152602001908152602001600020600082825461035191906108d2565b909155505033600090815260026020526040812034918360018111156103795761037961083d565b600181111561038a5761038a61083d565b815260200190815260200160002060008282546103a791906108d2565b90915550503360009081526004602052604090205460ff1661041e576003805460018181019092557fc2575a0e9e593c00f959f8c92f12db2869c3395a3b0502d05e2516446f71f85b0180546001600160a01b031916339081179091556000908152600460205260409020805460ff191690911790555b8060018111156104305761043061083d565b60405134815233907f9f6b4cced64244a64465098f682029975b1614400b96bc6bd12c6680837191669060200160405180910390a350565b336001600160a01b037f000000000000000000000000000000000000000000000000000000000000000016146104f55760405162461bcd60e51b815260206004820152602860248201527f4f6e6c7920746865206f70657261746f722063616e2063616c6c207468697320604482015267333ab731ba34b7b760c11b606482015260840160405180910390fd5b600054610100900460ff161561051e57604051635afb574960e11b815260040160405180910390fd5b600354600003610541576040516303ada9a960e21b815260040160405180910390fd5b6000805482919060ff19166001838181111561055f5761055f61083d565b02179055506000805461ff00191661010017815560018183828111156105875761058761083d565b60018111156105985761059861083d565b8152602001908152602001600020549050600081111561077057600354479060005b8181101561076c576000600382815481106105d7576105d76108eb565b60009182526020808320909101546001600160a01b0316808352600290915260408220909250818860018111156106105761061061083d565b60018111156106215761062161083d565b81526020019081526020016000205490506000811115610733576000866106488784610901565b6106529190610918565b6001600160a01b038416600081815260026020908152604080832083805290915280822082905560018252808220829055519293509183908381818185875af1925050503d80600081146106c2576040519150601f19603f3d011682016040523d82523d6000602084013e6106c7565b606091505b50509050806106e9576040516312171d8360e31b815260040160405180910390fd5b836001600160a01b03167f8407530cd30bd60843793c1ccec3f8c6f69c95ffef3e255c2de664d0dd658d618360405161072491815260200190565b60405180910390a25050610762565b6001600160a01b0382166000908152600260209081526040808320838052909152808220829055600182528120555b50506001016105ba565b5050505b8160018111156107825761078261083d565b6040517f94e5f71d5001613eb5e4ad876acb1da127582270c692c34fbcf810be21728b1d90600090a25050565b6000600160008360018111156107c7576107c761083d565b60018111156107d8576107d861083d565b8152602001908152602001600020549050919050565b60006020828403121561080057600080fd5b5035919050565b80356002811061081657600080fd5b919050565b60006020828403121561082d57600080fd5b61083682610807565b9392505050565b634e487b7160e01b600052602160045260246000fd5b602081016002831061087557634e487b7160e01b600052602160045260246000fd5b91905290565b6000806040838503121561088e57600080fd5b82356001600160a01b03811681146108a557600080fd5b91506108b360208401610807565b90509250929050565b634e487b7160e01b600052601160045260246000fd5b808201808211156108e5576108e56108bc565b92915050565b634e487b7160e01b600052603260045260246000fd5b80820281158282048414176108e5576108e56108bc565b60008261093557634e487b7160e01b600052601260045260246000fd5b50049056fea2646970667358221220f06410dcd8ee47d252cb4d1e99217808b4e30c6062ed9754132ac4bc6e5b199a64736f6c634300081b0033a264697066735822122042babeeb6bdb03340e61ea0923022d58a23b72bb5e674de47ffa5f7cf59b45c964736f6c634300081b0033",
  "linkReferences": {},
  "deployedLinkReferences": {}
}