{
  "contracts/mocks/MockFellowFund.sol": {
    "MockFellowFund": {
      "abi": [
        {
          "inputs": [],
          "stateMutability": "nonpayable",
          "type": "constructor"
        },
        {
          "anonymous": false,
          "inputs": [
            {
              "indexed": true,
              "internalType": "uint256",
              "name": "fellowshipId",
              "type": "uint256"
            },
            {
              "indexed": true,
              "internalType": "uint256",
              "name": "applicationId",
              "type": "uint256"
            },
            {
              "indexed": false,
              "internalType": "bool",
              "name": "achieved",
              "type": "bool"
            }
          ],
          "name": "ApplicationEvaluated",
          "type": "event"
        },
        {
          "anonymous": false,
          "inputs": [
            {
              "indexed": true,
              "internalType": "uint256",
              "name": "fellowshipId",
              "type": "uint256"
            },
            {
              "indexed": true,
              "internalType": "uint256",
              "name": "applicationId",
              "type": "uint256"
            },
            {
              "indexed": false,
              "internalType": "address",
              "name": "applicant",
              "type": "address"
            }
          ],
          "name": "ApplicationSubmitted",
          "type": "event"
        },
        {
          "anonymous": false,
          "inputs": [
            {
              "indexed": true,
              "internalType": "uint256",
              "name": "fellowshipId",
              "type": "uint256"
            }
          ],
          "name": "EpochResolved",
          "type": "event"
        },
        {
          "anonymous": false,
          "inputs": [
            {
              "indexed": true,
              "internalType": "uint256",
              "name": "fellowshipId",
              "type": "uint256"
            },
            {
              "indexed": false,
              "internalType": "uint256",
              "name": "grantPerAccepted",
              "type": "uint256"
            },
            {
              "indexed": false,
              "internalType": "uint256",
              "name": "acceptedCount",
              "type": "uint256"
            },
            {
              "indexed": false,
              "internalType": "uint256",
              "name": "totalApplications",
              "type": "uint256"
            }
          ],
          "name": "EpochStarted",
          "type": "event"
        },
        {
          "anonymous": false,
          "inputs": [
            {
              "indexed": true,
              "internalType": "uint256",
              "name": "fellowshipId",
              "type": "uint256"
            },
            {
              "components": [
                {
                  "internalType": "string",
                  "name": "metadata",
                  "type": "string"
                },
                {
                  "internalType": "uint256",
                  "name": "funds",
                  "type": "uint256"
                },
                {
                  "internalType": "uint256",
                  "name": "applicationDeadline",
                  "type": "uint256"
                },
                {
                  "internalType": "uint256",
                  "name": "marketDeadline",
                  "type": "uint256"
                },
                {
                  "internalType": "uint256",
                  "name": "epochEndTime",
                  "type": "uint256"
                },
                {
                  "internalType": "enum FellowshipStatus",
                  "name": "status",
                  "type": "uint8"
                },
                {
                  "internalType": "uint256",
                  "name": "maxApplicants",
                  "type": "uint256"
                }
              ],
              "indexed": false,
              "internalType": "struct Fellowship",
              "name": "fellowship",
              "type": "tuple"
            }
          ],
          "name": "FellowshipCreated",
          "type": "event"
        },
        {
          "anonymous": false,
          "inputs": [
            {
              "indexed": true,
              "internalType": "uint256",
              "name": "fellowshipId",
              "type": "uint256"
            }
          ],
          "name": "FellowshipResolved",
          "type": "event"
        },
        {
          "anonymous": false,
          "inputs": [
            {
              "indexed": true,
              "internalType": "uint256",
              "name": "fellowshipId",
              "type": "uint256"
            },
            {
              "indexed": true,
              "internalType": "address",
              "name": "marketAddress",
              "type": "address"
            }
          ],
          "name": "MarketOpened",
          "type": "event"
        },
        {
          "inputs": [
            {
              "internalType": "uint256",
              "name": "fellowshipId",
              "type": "uint256"
            },
            {
              "internalType": "string",
              "name": "metadata",
              "type": "string"
            }
          ],
          "name": "applyToFellowship",
          "outputs": [],
          "stateMutability": "nonpayable",
          "type": "function"
        },
        {
          "inputs": [
            {
              "components": [
                {
                  "internalType": "string",
                  "name": "metadata",
                  "type": "string"
                },
                {
                  "internalType": "uint256",
                  "name": "funds",
                  "type": "uint256"
                },
                {
                  "internalType": "uint256",
                  "name": "applicationDeadline",
                  "type": "uint256"
                },
                {
                  "internalType": "uint256",
                  "name": "marketDeadline",
                  "type": "uint256"
                },
                {
                  "internalType": "uint256",
                  "name": "epochEndTime",
                  "type": "uint256"
                },
                {
                  "internalType": "enum FellowshipStatus",
                  "name": "status",
                  "type": "uint8"
                },
                {
                  "internalType": "uint256",
                  "name": "maxApplicants",
                  "type": "uint256"
                }
              ],
              "internalType": "struct Fellowship",
              "name": "_fellowship",
              "type": "tuple"
            }
          ],
          "name": "createFellowship",
          "outputs": [],
          "stateMutability": "payable",
          "type": "function"
        },
        {
          "inputs": [
            {
              "internalType": "uint256",
              "name": "fellowshipId",
              "type": "uint256"
            }
          ],
          "name": "evaluateMarket",
          "outputs": [],
          "stateMutability": "nonpayable",
          "type": "function"
        },
        {
          "inputs": [
            {
              "internalType": "uint256",
              "name": "fellowshipId",
              "type": "uint256"
            }
          ],
          "name": "openFellowshipMarkets",
          "outputs": [],
          "stateMutability": "nonpayable",
          "type": "function"
        },
        {
          "inputs": [
            {
              "internalType": "uint256",
              "name": "fellowshipId",
              "type": "uint256"
            }
          ],
          "name": "resolveFellowship",
          "outputs": [],
          "stateMutability": "nonpayable",
          "type": "function"
        },
        {
          "inputs": [
            {
              "internalType": "uint256",
              "name": "fellowshipId",
              "type": "uint256"
            },
            {
              "internalType": "uint256",
              "name": "applicationId",
              "type": "uint256"
            },
            {
              "internalType": "bool",
              "name": "achieved",
              "type": "bool"
            },
            {
              "internalType": "bytes",
              "name": "proof",
              "type": "bytes"
            }
          ],
          "name": "setApplicantImpact",
          "outputs": [],
          "stateMutability": "nonpayable",
          "type": "function"
        }
      ],
      "evm": {
        "bytecode": {
          "linkReferences": {},
          "object": "60806040526000600155348015601457600080fd5b50610725806100246000396000f3fe6080604052600436106100555760003560e01c806338c840741461005a57806345df38e31461007a57806377dae1811461005a578063921050e21461009a578063b65d35e01461005a578063dd204af3146100ad575b600080fd5b34801561006657600080fd5b506100786100753660046101b9565b50565b005b34801561008657600080fd5b5061007861009536600461021b565b505050565b6100786100a8366004610349565b6100cf565b3480156100b957600080fd5b506100786100c83660046103ff565b5050505050565b6001546000818152600260205260409020825183919081906100f190826104ef565b506020820151816001015560408201518160020155606082015181600301556080820151816004015560a08201518160050160006101000a81548160ff02191690836004811115610144576101446105ae565b021790555060c0919091015160069091015560018054906000610166836105c4565b9190505550807fb9b0f53034927daed01f72103ee43b60064a3d02f125f443ca43286a613b1fae600260008481526020019081526020016000206040516101ad919061060d565b60405180910390a25050565b6000602082840312156101cb57600080fd5b5035919050565b60008083601f8401126101e457600080fd5b50813567ffffffffffffffff8111156101fc57600080fd5b60208301915083602082850101111561021457600080fd5b9250929050565b60008060006040848603121561023057600080fd5b83359250602084013567ffffffffffffffff81111561024e57600080fd5b61025a868287016101d2565b9497909650939450505050565b634e487b7160e01b600052604160045260246000fd5b60405160e0810167ffffffffffffffff811182821017156102a0576102a0610267565b60405290565b600082601f8301126102b757600080fd5b813567ffffffffffffffff8111156102d1576102d1610267565b604051601f8201601f19908116603f0116810167ffffffffffffffff8111828210171561030057610300610267565b60405281815283820160200185101561031857600080fd5b816020850160208301376000918101602001919091529392505050565b80356005811061034457600080fd5b919050565b60006020828403121561035b57600080fd5b813567ffffffffffffffff81111561037257600080fd5b820160e0818503121561038457600080fd5b61038c61027d565b813567ffffffffffffffff8111156103a357600080fd5b6103af868285016102a6565b825250602082810135908201526040808301359082015260608083013590820152608080830135908201526103e660a08301610335565b60a082015260c091820135918101919091529392505050565b60008060008060006080868803121561041757600080fd5b85359450602086013593506040860135801515811461043557600080fd5b9250606086013567ffffffffffffffff81111561045157600080fd5b61045d888289016101d2565b969995985093965092949392505050565b600181811c9082168061048257607f821691505b6020821081036104a257634e487b7160e01b600052602260045260246000fd5b50919050565b601f82111561009557806000526020600020601f840160051c810160208510156104cf5750805b601f840160051c820191505b818110156100c857600081556001016104db565b815167ffffffffffffffff81111561050957610509610267565b61051d81610517845461046e565b846104a8565b6020601f82116001811461055157600083156105395750848201515b600019600385901b1c1916600184901b1784556100c8565b600084815260208120601f198516915b828110156105815787850151825560209485019460019092019101610561565b508482101561059f5786840151600019600387901b60f8161c191681555b50505050600190811b01905550565b634e487b7160e01b600052602160045260246000fd5b6000600182016105e457634e487b7160e01b600052601160045260246000fd5b5060010190565b6005811061060957634e487b7160e01b600052602160045260246000fd5b9052565b6020815260e0602082015260008083546106268161046e565b80610100860152600182166000811461064657600181146106645761069a565b60ff19831661012087015261012082151560051b870101935061069a565b86600052602060002060005b838110156106905781548882016101200152600190910190602001610670565b8701610120019450505b505050600184015460408401526002840154606084015260038401546080840152600484015460a0840152600584015460ff166106da60c08501826105eb565b50600684015460e0840152809150509291505056fea2646970667358221220b6b21869deaa9cc06b5980b029cb8ac22dfe30187ebf22c0a82971002b83b8a964736f6c634300081b0033",
          "opcodes": "PUSH1 0x80 PUSH1 0x40 MSTORE PUSH1 0x0 PUSH1 0x1 SSTORE CALLVALUE DUP1 ISZERO PUSH1 0x14 JUMPI PUSH1 0x0 DUP1 REVERT JUMPDEST POP PUSH2 0x725 DUP1 PUSH2 0x24 PUSH1 0x0 CODECOPY PUSH1 0x0 RETURN INVALID PUSH1 0x80 PUSH1 0x40 MSTORE PUSH1 0x4 CALLDATASIZE LT PUSH2 0x55 JUMPI PUSH1 0x0 CALLDATALOAD PUSH1 0xE0 SHR DUP1 PUSH4 0x38C84074 EQ PUSH2 0x5A JUMPI DUP1 PUSH4 0x45DF38E3 EQ PUSH2 0x7A JUMPI DUP1 PUSH4 0x77DAE181 EQ PUSH2 0x5A JUMPI DUP1 PUSH4 0x921050E2 EQ PUSH2 0x9A JUMPI DUP1 PUSH4 0xB65D35E0 EQ PUSH2 0x5A JUMPI DUP1 PUSH4 0xDD204AF3 EQ PUSH2 0xAD JUMPI JUMPDEST PUSH1 0x0 DUP1 REVERT JUMPDEST CALLVALUE DUP1 ISZERO PUSH2 0x66 JUMPI PUSH1 0x0 DUP1 REVERT JUMPDEST POP PUSH2 0x78 PUSH2 0x75 CALLDATASIZE PUSH1 0x4 PUSH2 0x1B9 JUMP JUMPDEST POP JUMP JUMPDEST STOP JUMPDEST CALLVALUE DUP1 ISZERO PUSH2 0x86 JUMPI PUSH1 0x0 DUP1 REVERT JUMPDEST POP PUSH2 0x78 PUSH2 0x95 CALLDATASIZE PUSH1 0x4 PUSH2 0x21B JUMP JUMPDEST POP POP POP JUMP JUMPDEST PUSH2 0x78 PUSH2 0xA8 CALLDATASIZE PUSH1 0x4 PUSH2 0x349 JUMP JUMPDEST PUSH2 0xCF JUMP JUMPDEST CALLVALUE DUP1 ISZERO PUSH2 0xB9 JUMPI PUSH1 0x0 DUP1 REVERT JUMPDEST POP PUSH2 0x78 PUSH2 0xC8 CALLDATASIZE PUSH1 0x4 PUSH2 0x3FF JUMP JUMPDEST POP POP POP POP POP JUMP JUMPDEST PUSH1 0x1 SLOAD PUSH1 0x0 DUP2 DUP2 MSTORE PUSH1 0x2 PUSH1 0x20 MSTORE PUSH1 0x40 SWAP1 KECCAK256 DUP3 MLOAD DUP4 SWAP2 SWAP1 DUP2 SWAP1 PUSH2 0xF1 SWAP1 DUP3 PUSH2 0x4EF JUMP JUMPDEST POP PUSH1 0x20 DUP3 ADD MLOAD DUP2 PUSH1 0x1 ADD SSTORE PUSH1 0x40 DUP3 ADD MLOAD DUP2 PUSH1 0x2 ADD SSTORE PUSH1 0x60 DUP3 ADD MLOAD DUP2 PUSH1 0x3 ADD SSTORE PUSH1 0x80 DUP3 ADD MLOAD DUP2 PUSH1 0x4 ADD SSTORE PUSH1 0xA0 DUP3 ADD MLOAD DUP2 PUSH1 0x5 ADD PUSH1 0x0 PUSH2 0x100 EXP DUP2 SLOAD DUP2 PUSH1 0xFF MUL NOT AND SWAP1 DUP4 PUSH1 0x4 DUP2 GT ISZERO PUSH2 0x144 JUMPI PUSH2 0x144 PUSH2 0x5AE JUMP JUMPDEST MUL OR SWAP1 SSTORE POP PUSH1 0xC0 SWAP2 SWAP1 SWAP2 ADD MLOAD PUSH1 0x6 SWAP1 SWAP2 ADD SSTORE PUSH1 0x1 DUP1 SLOAD SWAP1 PUSH1 0x0 PUSH2 0x166 DUP4 PUSH2 0x5C4 JUMP JUMPDEST SWAP2 SWAP1 POP SSTORE POP DUP1 PUSH32 0xB9B0F53034927DAED01F72103EE43B60064A3D02F125F443CA43286A613B1FAE PUSH1 0x2 PUSH1 0x0 DUP5 DUP2 MSTORE PUSH1 0x20 ADD SWAP1 DUP2 MSTORE PUSH1 0x20 ADD PUSH1 0x0 KECCAK256 PUSH1 0x40 MLOAD PUSH2 0x1AD SWAP2 SWAP1 PUSH2 0x60D JUMP JUMPDEST PUSH1 0x40 MLOAD DUP1 SWAP2 SUB SWAP1 LOG2 POP POP JUMP JUMPDEST PUSH1 0x0 PUSH1 0x20 DUP3 DUP5 SUB SLT ISZERO PUSH2 0x1CB JUMPI PUSH1 0x0 DUP1 REVERT JUMPDEST POP CALLDATALOAD SWAP2 SWAP1 POP JUMP JUMPDEST PUSH1 0x0 DUP1 DUP4 PUSH1 0x1F DUP5 ADD SLT PUSH2 0x1E4 JUMPI PUSH1 0x0 DUP1 REVERT JUMPDEST POP DUP2 CALLDATALOAD PUSH8 0xFFFFFFFFFFFFFFFF DUP2 GT ISZERO PUSH2 0x1FC JUMPI PUSH1 0x0 DUP1 REVERT JUMPDEST PUSH1 0x20 DUP4 ADD SWAP2 POP DUP4 PUSH1 0x20 DUP3 DUP6 ADD ADD GT ISZERO PUSH2 0x214 JUMPI PUSH1 0x0 DUP1 REVERT JUMPDEST SWAP3 POP SWAP3 SWAP1 POP JUMP JUMPDEST PUSH1 0x0 DUP1 PUSH1 0x0 PUSH1 0x40 DUP5 DUP7 SUB SLT ISZERO PUSH2 0x230 JUMPI PUSH1 0x0 DUP1 REVERT JUMPDEST DUP4 CALLDATALOAD SWAP3 POP PUSH1 0x20 DUP5 ADD CALLDATALOAD PUSH8 0xFFFFFFFFFFFFFFFF DUP2 GT ISZERO PUSH2 0x24E JUMPI PUSH1 0x0 DUP1 REVERT JUMPDEST PUSH2 0x25A DUP7 DUP3 DUP8 ADD PUSH2 0x1D2 JUMP JUMPDEST SWAP5 SWAP8 SWAP1 SWAP7 POP SWAP4 SWAP5 POP POP POP POP JUMP JUMPDEST PUSH4 0x4E487B71 PUSH1 0xE0 SHL PUSH1 0x0 MSTORE PUSH1 0x41 PUSH1 0x4 MSTORE PUSH1 0x24 PUSH1 0x0 REVERT JUMPDEST PUSH1 0x40 MLOAD PUSH1 0xE0 DUP2 ADD PUSH8 0xFFFFFFFFFFFFFFFF DUP2 GT DUP3 DUP3 LT OR ISZERO PUSH2 0x2A0 JUMPI PUSH2 0x2A0 PUSH2 0x267 JUMP JUMPDEST PUSH1 0x40 MSTORE SWAP1 JUMP JUMPDEST PUSH1 0x0 DUP3 PUSH1 0x1F DUP4 ADD SLT PUSH2 0x2B7 JUMPI PUSH1 0x0 DUP1 REVERT JUMPDEST DUP2 CALLDATALOAD PUSH8 0xFFFFFFFFFFFFFFFF DUP2 GT ISZERO PUSH2 0x2D1 JUMPI PUSH2 0x2D1 PUSH2 0x267 JUMP JUMPDEST PUSH1 0x40 MLOAD PUSH1 0x1F DUP3 ADD PUSH1 0x1F NOT SWAP1 DUP2 AND PUSH1 0x3F ADD AND DUP2 ADD PUSH8 0xFFFFFFFFFFFFFFFF DUP2 GT DUP3 DUP3 LT OR ISZERO PUSH2 0x300 JUMPI PUSH2 0x300 PUSH2 0x267 JUMP JUMPDEST PUSH1 0x40 MSTORE DUP2 DUP2 MSTORE DUP4 DUP3 ADD PUSH1 0x20 ADD DUP6 LT ISZERO PUSH2 0x318 JUMPI PUSH1 0x0 DUP1 REVERT JUMPDEST DUP2 PUSH1 0x20 DUP6 ADD PUSH1 0x20 DUP4 ADD CALLDATACOPY PUSH1 0x0 SWAP2 DUP2 ADD PUSH1 0x20 ADD SWAP2 SWAP1 SWAP2 MSTORE SWAP4 SWAP3 POP POP POP JUMP JUMPDEST DUP1 CALLDATALOAD PUSH1 0x5 DUP2 LT PUSH2 0x344 JUMPI PUSH1 0x0 DUP1 REVERT JUMPDEST SWAP2 SWAP1 POP JUMP JUMPDEST PUSH1 0x0 PUSH1 0x20 DUP3 DUP5 SUB SLT ISZERO PUSH2 0x35B JUMPI PUSH1 0x0 DUP1 REVERT JUMPDEST DUP2 CALLDATALOAD PUSH8 0xFFFFFFFFFFFFFFFF DUP2 GT ISZERO PUSH2 0x372 JUMPI PUSH1 0x0 DUP1 REVERT JUMPDEST DUP3 ADD PUSH1 0xE0 DUP2 DUP6 SUB SLT ISZERO PUSH2 0x384 JUMPI PUSH1 0x0 DUP1 REVERT JUMPDEST PUSH2 0x38C PUSH2 0x27D JUMP JUMPDEST DUP2 CALLDATALOAD PUSH8 0xFFFFFFFFFFFFFFFF DUP2 GT ISZERO PUSH2 0x3A3 JUMPI PUSH1 0x0 DUP1 REVERT JUMPDEST PUSH2 0x3AF DUP7 DUP3 DUP6 ADD PUSH2 0x2A6 JUMP JUMPDEST DUP3 MSTORE POP PUSH1 0x20 DUP3 DUP2 ADD CALLDATALOAD SWAP1 DUP3 ADD MSTORE PUSH1 0x40 DUP1 DUP4 ADD CALLDATALOAD SWAP1 DUP3 ADD MSTORE PUSH1 0x60 DUP1 DUP4 ADD CALLDATALOAD SWAP1 DUP3 ADD MSTORE PUSH1 0x80 DUP1 DUP4 ADD CALLDATALOAD SWAP1 DUP3 ADD MSTORE PUSH2 0x3E6 PUSH1 0xA0 DUP4 ADD PUSH2 0x335 JUMP JUMPDEST PUSH1 0xA0 DUP3 ADD MSTORE PUSH1 0xC0 SWAP2 DUP3 ADD CALLDATALOAD SWAP2 DUP2 ADD SWAP2 SWAP1 SWAP2 MSTORE SWAP4 SWAP3 POP POP POP JUMP JUMPDEST PUSH1 0x0 DUP1 PUSH1 0x0 DUP1 PUSH1 0x0 PUSH1 0x80 DUP7 DUP9 SUB SLT ISZERO PUSH2 0x417 JUMPI PUSH1 0x0 DUP1 REVERT JUMPDEST DUP6 CALLDATALOAD SWAP5 POP PUSH1 0x20 DUP7 ADD CALLDATALOAD SWAP4 POP PUSH1 0x40 DUP7 ADD CALLDATALOAD DUP1 ISZERO ISZERO DUP2 EQ PUSH2 0x435 JUMPI PUSH1 0x0 DUP1 REVERT JUMPDEST SWAP3 POP PUSH1 0x60 DUP7 ADD CALLDATALOAD PUSH8 0xFFFFFFFFFFFFFFFF DUP2 GT ISZERO PUSH2 0x451 JUMPI PUSH1 0x0 DUP1 REVERT JUMPDEST PUSH2 0x45D DUP9 DUP3 DUP10 ADD PUSH2 0x1D2 JUMP JUMPDEST SWAP7 SWAP10 SWAP6 SWAP9 POP SWAP4 SWAP7 POP SWAP3 SWAP5 SWAP4 SWAP3 POP POP POP JUMP JUMPDEST PUSH1 0x1 DUP2 DUP2 SHR SWAP1 DUP3 AND DUP1 PUSH2 0x482 JUMPI PUSH1 0x7F DUP3 AND SWAP2 POP JUMPDEST PUSH1 0x20 DUP3 LT DUP2 SUB PUSH2 0x4A2 JUMPI PUSH4 0x4E487B71 PUSH1 0xE0 SHL PUSH1 0x0 MSTORE PUSH1 0x22 PUSH1 0x4 MSTORE PUSH1 0x24 PUSH1 0x0 REVERT JUMPDEST POP SWAP2 SWAP1 POP JUMP JUMPDEST PUSH1 0x1F DUP3 GT ISZERO PUSH2 0x95 JUMPI DUP1 PUSH1 0x0 MSTORE PUSH1 0x20 PUSH1 0x0 KECCAK256 PUSH1 0x1F DUP5 ADD PUSH1 0x5 SHR DUP2 ADD PUSH1 0x20 DUP6 LT ISZERO PUSH2 0x4CF JUMPI POP DUP1 JUMPDEST PUSH1 0x1F DUP5 ADD PUSH1 0x5 SHR DUP3 ADD SWAP2 POP JUMPDEST DUP2 DUP2 LT ISZERO PUSH2 0xC8 JUMPI PUSH1 0x0 DUP2 SSTORE PUSH1 0x1 ADD PUSH2 0x4DB JUMP JUMPDEST DUP2 MLOAD PUSH8 0xFFFFFFFFFFFFFFFF DUP2 GT ISZERO PUSH2 0x509 JUMPI PUSH2 0x509 PUSH2 0x267 JUMP JUMPDEST PUSH2 0x51D DUP2 PUSH2 0x517 DUP5 SLOAD PUSH2 0x46E JUMP JUMPDEST DUP5 PUSH2 0x4A8 JUMP JUMPDEST PUSH1 0x20 PUSH1 0x1F DUP3 GT PUSH1 0x1 DUP2 EQ PUSH2 0x551 JUMPI PUSH1 0x0 DUP4 ISZERO PUSH2 0x539 JUMPI POP DUP5 DUP3 ADD MLOAD JUMPDEST PUSH1 0x0 NOT PUSH1 0x3 DUP6 SWAP1 SHL SHR NOT AND PUSH1 0x1 DUP5 SWAP1 SHL OR DUP5 SSTORE PUSH2 0xC8 JUMP JUMPDEST PUSH1 0x0 DUP5 DUP2 MSTORE PUSH1 0x20 DUP2 KECCAK256 PUSH1 0x1F NOT DUP6 AND SWAP2 JUMPDEST DUP3 DUP2 LT ISZERO PUSH2 0x581 JUMPI DUP8 DUP6 ADD MLOAD DUP3 SSTORE PUSH1 0x20 SWAP5 DUP6 ADD SWAP5 PUSH1 0x1 SWAP1 SWAP3 ADD SWAP2 ADD PUSH2 0x561 JUMP JUMPDEST POP DUP5 DUP3 LT ISZERO PUSH2 0x59F JUMPI DUP7 DUP5 ADD MLOAD PUSH1 0x0 NOT PUSH1 0x3 DUP8 SWAP1 SHL PUSH1 0xF8 AND SHR NOT AND DUP2 SSTORE JUMPDEST POP POP POP POP PUSH1 0x1 SWAP1 DUP2 SHL ADD SWAP1 SSTORE POP JUMP JUMPDEST PUSH4 0x4E487B71 PUSH1 0xE0 SHL PUSH1 0x0 MSTORE PUSH1 0x21 PUSH1 0x4 MSTORE PUSH1 0x24 PUSH1 0x0 REVERT JUMPDEST PUSH1 0x0 PUSH1 0x1 DUP3 ADD PUSH2 0x5E4 JUMPI PUSH4 0x4E487B71 PUSH1 0xE0 SHL PUSH1 0x0 MSTORE PUSH1 0x11 PUSH1 0x4 MSTORE PUSH1 0x24 PUSH1 0x0 REVERT JUMPDEST POP PUSH1 0x1 ADD SWAP1 JUMP JUMPDEST PUSH1 0x5 DUP2 LT PUSH2 0x609 JUMPI PUSH4 0x4E487B71 PUSH1 0xE0 SHL PUSH1 0x0 MSTORE PUSH1 0x21 PUSH1 0x4 MSTORE PUSH1 0x24 PUSH1 0x0 REVERT JUMPDEST SWAP1 MSTORE JUMP JUMPDEST PUSH1 0x20 DUP2 MSTORE PUSH1 0xE0 PUSH1 0x20 DUP3 ADD MSTORE PUSH1 0x0 DUP1 DUP4 SLOAD PUSH2 0x626 DUP2 PUSH2 0x46E JUMP JUMPDEST DUP1 PUSH2 0x100 DUP7 ADD MSTORE PUSH1 0x1 DUP3 AND PUSH1 0x0 DUP2 EQ PUSH2 0x646 JUMPI PUSH1 0x1 DUP2 EQ PUSH2 0x664 JUMPI PUSH2 0x69A JUMP JUMPDEST PUSH1 0xFF NOT DUP4 AND PUSH2 0x120 DUP8 ADD MSTORE PUSH2 0x120 DUP3 ISZERO ISZERO PUSH1 0x5 SHL DUP8 ADD ADD SWAP4 POP PUSH2 0x69A JUMP JUMPDEST DUP7 PUSH1 0x0 MSTORE PUSH1 0x20 PUSH1 0x0 KECCAK256 PUSH1 0x0 JUMPDEST DUP4 DUP2 LT ISZERO PUSH2 0x690 JUMPI DUP2 SLOAD DUP9 DUP3 ADD PUSH2 0x120 ADD MSTORE PUSH1 0x1 SWAP1 SWAP2 ADD SWAP1 PUSH1 0x20 ADD PUSH2 0x670 JUMP JUMPDEST DUP8 ADD PUSH2 0x120 ADD SWAP5 POP POP JUMPDEST POP POP POP PUSH1 0x1 DUP5 ADD SLOAD PUSH1 0x40 DUP5 ADD MSTORE PUSH1 0x2 DUP5 ADD SLOAD PUSH1 0x60 DUP5 ADD MSTORE PUSH1 0x3 DUP5 ADD SLOAD PUSH1 0x80 DUP5 ADD MSTORE PUSH1 0x4 DUP5 ADD SLOAD PUSH1 0xA0 DUP5 ADD MSTORE PUSH1 0x5 DUP5 ADD SLOAD PUSH1 0xFF AND PUSH2 0x6DA PUSH1 0xC0 DUP6 ADD DUP3 PUSH2 0x5EB JUMP JUMPDEST POP PUSH1 0x6 DUP5 ADD SLOAD PUSH1 0xE0 DUP5 ADD MSTORE DUP1 SWAP2 POP POP SWAP3 SWAP2 POP POP JUMP INVALID LOG2 PUSH5 0x6970667358 0x22 SLT KECCAK256 0xB6 0xB2 XOR PUSH10 0xDEAA9CC06B5980B029CB DUP11 0xC2 0x2D INVALID ADDRESS XOR PUSH31 0xBF22C0A82971002B83B8A964736F6C634300081B0033000000000000000000 "
        },
        "methodIdentifiers": {
          "applyToFellowship(uint256,string)": "45df38e3",
          "createFellowship((string,uint256,uint256,uint256,uint256,uint8,uint256))": "921050e2",
          "evaluateMarket(uint256)": "b65d35e0",
          "openFellowshipMarkets(uint256)": "38c84074",
          "resolveFellowship(uint256)": "77dae181",
          "setApplicantImpact(uint256,uint256,bool,bytes)": "dd204af3"
        }
      }
    }
  }
}