{"abi":[{"type":"function","name":"main","inputs":[{"name":"webProof","type":"tuple","internalType":"struct WebProof","components":[{"name":"webProofJson","type":"string","internalType":"string"}]},{"name":"account","type":"address","internalType":"address"}],"outputs":[{"name":"","type":"tuple","internalType":"struct Proof","components":[{"name":"seal","type":"tuple","internalType":"struct Seal","components":[{"name":"verifierSelector","type":"bytes4","internalType":"bytes4"},{"name":"seal","type":"bytes32[8]","internalType":"bytes32[8]"},{"name":"mode","type":"uint8","internalType":"enum ProofMode"}]},{"name":"callGuestId","type":"bytes32","internalType":"bytes32"},{"name":"length","type":"uint256","internalType":"uint256"},{"name":"callAssumptions","type":"tuple","internalType":"struct CallAssumptions","components":[{"name":"proverContractAddress","type":"address","internalType":"address"},{"name":"functionSelector","type":"bytes4","internalType":"bytes4"},{"name":"settleBlockNumber","type":"uint256","internalType":"uint256"},{"name":"settleBlockHash","type":"bytes32","internalType":"bytes32"}]}]},{"name":"","type":"string","internalType":"string"},{"name":"","type":"address","internalType":"address"}],"stateMutability":"view"},{"type":"function","name":"proof","inputs":[],"outputs":[{"name":"","type":"tuple","internalType":"struct Proof","components":[{"name":"seal","type":"tuple","internalType":"struct Seal","components":[{"name":"verifierSelector","type":"bytes4","internalType":"bytes4"},{"name":"seal","type":"bytes32[8]","internalType":"bytes32[8]"},{"name":"mode","type":"uint8","internalType":"enum ProofMode"}]},{"name":"callGuestId","type":"bytes32","internalType":"bytes32"},{"name":"length","type":"uint256","internalType":"uint256"},{"name":"callAssumptions","type":"tuple","internalType":"struct CallAssumptions","components":[{"name":"proverContractAddress","type":"address","internalType":"address"},{"name":"functionSelector","type":"bytes4","internalType":"bytes4"},{"name":"settleBlockNumber","type":"uint256","internalType":"uint256"},{"name":"settleBlockHash","type":"bytes32","internalType":"bytes32"}]}]}],"stateMutability":"pure"},{"type":"function","name":"setBlock","inputs":[{"name":"blockNo","type":"uint256","internalType":"uint256"}],"outputs":[],"stateMutability":"nonpayable"},{"type":"function","name":"setChain","inputs":[{"name":"chainId","type":"uint256","internalType":"uint256"},{"name":"blockNo","type":"uint256","internalType":"uint256"}],"outputs":[],"stateMutability":"nonpayable"},{"type":"error","name":"FailedInnerCall","inputs":[]}],"bytecode":{"object":"0x6080604052348015600f57600080fd5b50610aac8061001f6000396000f3fe608060405234801561001057600080fd5b506004361061004c5760003560e01c806387cea3ae14610051578063c822d5ef14610066578063faf924cf14610091578063ffbc5638146100a6575b600080fd5b61006461005f36600461056b565b6100b9565b005b610079610074366004610584565b610133565b604051610088939291906106f4565b60405180910390f35b6100996101b4565b6040516100889190610730565b6100646100b436600461073f565b6101c9565b6040516343e751d760e11b8152600481018290527376dc9aa45aa006a0f63942d8f9f21bd4537972a3906387cea3ae906024016020604051808303816000875af115801561010b573d6000803e3d6000fd5b505050506040513d601f19601f8201168201806040525081019061012f9190610761565b5050565b61013b6104d9565b606060008061016b6040518060600160405280602b8152602001610a4c602b91396101658861081b565b9061024e565b9050600061019f604051806040016040528060058152602001643637b3b4b760d91b8152508361035590919063ffffffff16565b90506101a96101b4565b979096509350505050565b6101bc6104d9565b6101c4610458565b905090565b60405160016208753960e31b0319815260048101839052602481018290527376dc9aa45aa006a0f63942d8f9f21bd4537972a39063ffbc5638906044016020604051808303816000875af1158015610225573d6000803e3d6000fd5b505050506040513d601f19601f820116820180604052508101906102499190610761565b505050565b60408051808201909152606080825260208201528251604051600091829161010091610279916108c2565b600060405180830381855afa9150503d80600081146102b4576040519150601f19603f3d011682016040523d82523d6000602084013e6102b9565b606091505b50915091506102c8828261046d565b506000818060200190518101906102df919061092b565b80519091506102ef908690610489565b6103305760405162461bcd60e51b815260206004820152600d60248201526c125b98dbdc9c9958dd08155493609a1b60448201526064015b60405180910390fd5b6040805180820182529082015181526060909101516020820152925050505b92915050565b8151516060906103975760405162461bcd60e51b815260206004820152600d60248201526c426f647920697320656d70747960981b6044820152606401610327565b60408051808201825284518152602080820185905291516000926103bc9291016109c7565b60405160208183030381529060405290506000806101026001600160a01b0316836040516103ea91906108c2565b600060405180830381855afa9150503d8060008114610425576040519150601f19603f3d011682016040523d82523d6000602084013e61042a565b606091505b5091509150610439828261046d565b508080602001905181019061044e9190610a16565b9695505050505050565b6104606104d9565b6104686104d9565b919050565b6060826104825761047d826104b0565b61034f565b508061034f565b6000815183511480156104a9575081805190602001208380519060200120145b9392505050565b8051156104c05780518082602001fd5b604051630a12f52160e11b815260040160405180910390fd5b60405180608001604052806104ec610525565b81526000602080830182905260408084018390528051608081018252838152918201839052810182905260608181019290925291015290565b6040805160608101909152600081526020810161054061054c565b81526020016000905290565b6040518061010001604052806008906020820280368337509192915050565b60006020828403121561057d57600080fd5b5035919050565b6000806040838503121561059757600080fd5b823567ffffffffffffffff8111156105ae57600080fd5b8301602081860312156105c057600080fd5b915060208301356001600160a01b03811681146105dc57600080fd5b809150509250929050565b805180516001600160e01b031916835260208082015190840160005b6008811015610622578251825260209283019290910190600101610603565b505050604001516002811061064757634e487b7160e01b600052602160045260246000fd5b61012083015260208181015161014084015260408083015161016085015260609283015180516001600160a01b0316610180860152918201516001600160e01b0319166101a08501528101516101c084015201516101e090910152565b60005b838110156106bf5781810151838201526020016106a7565b50506000910152565b600081518084526106e08160208601602086016106a4565b601f01601f19169290920160200192915050565b6106fe81856105e7565b61024061020082015260006107176102408301856106c8565b905060018060a01b038316610220830152949350505050565b610200810161034f82846105e7565b6000806040838503121561075257600080fd5b50508035926020909101359150565b60006020828403121561077357600080fd5b815180151581146104a957600080fd5b634e487b7160e01b600052604160045260246000fd5b6040516080810167ffffffffffffffff811182821017156107bc576107bc610783565b60405290565b604051601f8201601f1916810167ffffffffffffffff811182821017156107eb576107eb610783565b604052919050565b600067ffffffffffffffff82111561080d5761080d610783565b50601f01601f191660200190565b60006020823603121561082d57600080fd5b6040516020810167ffffffffffffffff8111828210171561085057610850610783565b604052823567ffffffffffffffff81111561086a57600080fd5b830136601f82011261087b57600080fd5b803561088e610889826107f3565b6107c2565b8181523660208385010111156108a357600080fd5b8160208401602083013760009181016020019190915282525092915050565b600082516108d48184602087016106a4565b9190910192915050565b600082601f8301126108ef57600080fd5b81516108fd610889826107f3565b81815284602083860101111561091257600080fd5b6109238260208301602087016106a4565b949350505050565b60006020828403121561093d57600080fd5b815167ffffffffffffffff81111561095457600080fd5b8201601f8101841361096557600080fd5b61096d610799565b80608083018681111561097f57600080fd5b835b818110156109bb57805167ffffffffffffffff8111156109a057600080fd5b6109ac898288016108de565b85525060209384019301610981565b50909695505050505050565b60208082526000906060830190830184835b6002811015610a0b57601f198685030183526109f68483516106c8565b935060209283019291909101906001016109d9565b509195945050505050565b600060208284031215610a2857600080fd5b815167ffffffffffffffff811115610a3f57600080fd5b610923848285016108de56fe68747470733a2f2f6170692e6769746875622e636f6d2f75736572732f4c656f4672616e6b6c696e303135a26469706673582212204d034aeb5af73071672fa0055dddc8e525c1c2500fd524637576a1913843234664736f6c634300081c0033","linkReferences":{}},"methodIdentifiers":{"main((string),address)":"c822d5ef","proof()":"faf924cf","setBlock(uint256)":"87cea3ae","setChain(uint256,uint256)":"ffbc5638"},"id":61}