{
  "_format": "hh-sol-artifact-1",
  "contractName": "GithubVerificationRegistry",
  "sourceName": "contracts/vlayer/GithubVerificationRegistry.sol",
  "abi": [
    {
      "inputs": [
        {
          "internalType": "contract IProofVerifier",
          "name": "_proofVerifier",
          "type": "address"
        }
      ],
      "stateMutability": "nonpayable",
      "type": "constructor"
    },
    {
      "inputs": [
        {
          "internalType": "address",
          "name": "owner",
          "type": "address"
        }
      ],
      "name": "OwnableInvalidOwner",
      "type": "error"
    },
    {
      "inputs": [
        {
          "internalType": "address",
          "name": "account",
          "type": "address"
        }
      ],
      "name": "OwnableUnauthorizedAccount",
      "type": "error"
    },
    {
      "anonymous": false,
      "inputs": [
        {
          "indexed": true,
          "internalType": "address",
          "name": "previousOwner",
          "type": "address"
        },
        {
          "indexed": true,
          "internalType": "address",
          "name": "newOwner",
          "type": "address"
        }
      ],
      "name": "OwnershipTransferred",
      "type": "event"
    },
    {
      "anonymous": false,
      "inputs": [
        {
          "indexed": false,
          "internalType": "string",
          "name": "username",
          "type": "string"
        },
        {
          "indexed": false,
          "internalType": "address",
          "name": "account",
          "type": "address"
        }
      ],
      "name": "ProofVerified",
      "type": "event"
    },
    {
      "inputs": [
        {
          "internalType": "string",
          "name": "githubUsername",
          "type": "string"
        }
      ],
      "name": "githubUsernameToAccount",
      "outputs": [
        {
          "internalType": "address",
          "name": "account",
          "type": "address"
        }
      ],
      "stateMutability": "view",
      "type": "function"
    },
    {
      "inputs": [],
      "name": "owner",
      "outputs": [
        {
          "internalType": "address",
          "name": "",
          "type": "address"
        }
      ],
      "stateMutability": "view",
      "type": "function"
    },
    {
      "inputs": [],
      "name": "proofVerifier",
      "outputs": [
        {
          "internalType": "contract IProofVerifier",
          "name": "",
          "type": "address"
        }
      ],
      "stateMutability": "view",
      "type": "function"
    },
    {
      "inputs": [],
      "name": "renounceOwnership",
      "outputs": [],
      "stateMutability": "nonpayable",
      "type": "function"
    },
    {
      "inputs": [
        {
          "internalType": "string",
          "name": "_username",
          "type": "string"
        }
      ],
      "name": "resolve",
      "outputs": [
        {
          "internalType": "address",
          "name": "",
          "type": "address"
        }
      ],
      "stateMutability": "view",
      "type": "function"
    },
    {
      "inputs": [
        {
          "internalType": "address",
          "name": "_proofVerifier",
          "type": "address"
        }
      ],
      "name": "setProofVerifier",
      "outputs": [],
      "stateMutability": "nonpayable",
      "type": "function"
    },
    {
      "inputs": [
        {
          "internalType": "address",
          "name": "newOwner",
          "type": "address"
        }
      ],
      "name": "transferOwnership",
      "outputs": [],
      "stateMutability": "nonpayable",
      "type": "function"
    },
    {
      "inputs": [
        {
          "components": [
            {
              "components": [
                {
                  "internalType": "bytes4",
                  "name": "verifierSelector",
                  "type": "bytes4"
                },
                {
                  "internalType": "bytes32[8]",
                  "name": "seal",
                  "type": "bytes32[8]"
                },
                {
                  "internalType": "enum ProofMode",
                  "name": "mode",
                  "type": "uint8"
                }
              ],
              "internalType": "struct Seal",
              "name": "seal",
              "type": "tuple"
            },
            {
              "internalType": "bytes32",
              "name": "callGuestId",
              "type": "bytes32"
            },
            {
              "internalType": "uint256",
              "name": "length",
              "type": "uint256"
            },
            {
              "components": [
                {
                  "internalType": "address",
                  "name": "proverContractAddress",
                  "type": "address"
                },
                {
                  "internalType": "bytes4",
                  "name": "functionSelector",
                  "type": "bytes4"
                },
                {
                  "internalType": "uint256",
                  "name": "settleBlockNumber",
                  "type": "uint256"
                },
                {
                  "internalType": "bytes32",
                  "name": "settleBlockHash",
                  "type": "bytes32"
                }
              ],
              "internalType": "struct CallAssumptions",
              "name": "callAssumptions",
              "type": "tuple"
            }
          ],
          "internalType": "struct Proof",
          "name": "_proof",
          "type": "tuple"
        },
        {
          "internalType": "string",
          "name": "_username",
          "type": "string"
        },
        {
          "internalType": "address",
          "name": "_account",
          "type": "address"
        }
      ],
      "name": "verify",
      "outputs": [],
      "stateMutability": "nonpayable",
      "type": "function"
    }
  ],
  "bytecode": "0x608060405234801561001057600080fd5b5060405161078438038061078483398101604081905261002f916100d4565b338061005557604051631e4fbdf760e01b81526000600482015260240160405180910390fd5b61005e81610084565b50600180546001600160a01b0319166001600160a01b0392909216919091179055610104565b600080546001600160a01b038381166001600160a01b0319831681178455604051919092169283917f8be0079c531659141344cd1fd0a4f28419497f9722a3daafe3b4186f6b6457e09190a35050565b6000602082840312156100e657600080fd5b81516001600160a01b03811681146100fd57600080fd5b9392505050565b610671806101136000396000f3fe608060405234801561001057600080fd5b50600436106100885760003560e01c80638da5cb5b1161005b5780638da5cb5b146100ec578063ab635c6e146100fd578063df6244db14610131578063f2fde38b1461014457600080fd5b8063461a44781461008d5780636663d49b146100bc578063715018a6146100d15780637fa417b3146100d9575b600080fd5b6100a061009b3660046103cf565b610157565b6040516001600160a01b03909116815260200160405180910390f35b6100cf6100ca366004610428565b610188565b005b6100cf61022c565b6001546100a0906001600160a01b031681565b6000546001600160a01b03166100a0565b6100a061010b3660046103cf565b80516020818301810180516002825292820191909301209152546001600160a01b031681565b6100cf61013f366004610492565b610240565b6100cf610152366004610492565b61026a565b600060028260405161016991906104d8565b908152604051908190036020019020546001600160a01b031692915050565b600154604051636663d49b60e01b81526001600160a01b0390911690636663d49b906101bc9086908690869060040161057c565b600060405180830381600087803b1580156101d657600080fd5b505af11580156101ea573d6000803e3d6000fd5b505050507f3901754143c0c4d1c7e6d4b9b34e1c210413d6da9de93f9be230022c0eb41f0a828260405161021f929190610611565b60405180910390a1505050565b6102346102ad565b61023e60006102da565b565b6102486102ad565b600180546001600160a01b0319166001600160a01b0392909216919091179055565b6102726102ad565b6001600160a01b0381166102a157604051631e4fbdf760e01b8152600060048201526024015b60405180910390fd5b6102aa816102da565b50565b6000546001600160a01b0316331461023e5760405163118cdaa760e01b8152336004820152602401610298565b600080546001600160a01b038381166001600160a01b0319831681178455604051919092169283917f8be0079c531659141344cd1fd0a4f28419497f9722a3daafe3b4186f6b6457e09190a35050565b634e487b7160e01b600052604160045260246000fd5b600082601f83011261035157600080fd5b813567ffffffffffffffff81111561036b5761036b61032a565b604051601f8201601f19908116603f0116810167ffffffffffffffff8111828210171561039a5761039a61032a565b6040528181528382016020018510156103b257600080fd5b816020850160208301376000918101602001919091529392505050565b6000602082840312156103e157600080fd5b813567ffffffffffffffff8111156103f857600080fd5b61040484828501610340565b949350505050565b80356001600160a01b038116811461042357600080fd5b919050565b600080600083850361024081121561043f57600080fd5b61020081121561044e57600080fd5b5083925061020084013567ffffffffffffffff81111561046d57600080fd5b61047986828701610340565b925050610489610220850161040c565b90509250925092565b6000602082840312156104a457600080fd5b6104ad8261040c565b9392505050565b60005b838110156104cf5781810151838201526020016104b7565b50506000910152565b600082516104ea8184602087016104b4565b9190910192915050565b80356001600160e01b03198116811461042357600080fd5b6001600160a01b0361051d8261040c565b1682526001600160e01b0319610535602083016104f4565b16602083015260408181013590830152606090810135910152565b600081518084526105688160208601602086016104b4565b601f01601f19169290920160200192915050565b6001600160e01b031961058e856104f4565b1681526101006020850160208301376000610120850135600281101580156105b557600080fd5b50610120830152610140858101359083015261016080860135908301526105e361018080840190870161050c565b6102406102008301526105fa610240830185610550565b6001600160a01b0384166102208401529050610404565b6040815260006106246040830185610550565b905060018060a01b0383166020830152939250505056fea26469706673582212205d3b24b04a6f9751c17874ea89f8badcbcdf532ef856a114142a585affb4620764736f6c634300081b0033",
  "linkReferences": {},
  "deployedLinkReferences": {}
}