{
  "_format": "hh-sol-artifact-1",
  "contractName": "FellowFund",
  "sourceName": "contracts/FellowFund.sol",
  "abi": [
    {
      "inputs": [
        {
          "internalType": "address",
          "name": "_phalaVerifier",
          "type": "address"
        },
        {
          "internalType": "address",
          "name": "_operator",
          "type": "address"
        }
      ],
      "stateMutability": "nonpayable",
      "type": "constructor"
    },
    {
      "inputs": [
        {
          "internalType": "address",
          "name": "owner",
          "type": "address"
        }
      ],
      "name": "OwnableInvalidOwner",
      "type": "error"
    },
    {
      "inputs": [
        {
          "internalType": "address",
          "name": "account",
          "type": "address"
        }
      ],
      "name": "OwnableUnauthorizedAccount",
      "type": "error"
    },
    {
      "anonymous": false,
      "inputs": [
        {
          "indexed": true,
          "internalType": "uint256",
          "name": "fellowshipId",
          "type": "uint256"
        },
        {
          "indexed": true,
          "internalType": "uint256",
          "name": "applicationId",
          "type": "uint256"
        },
        {
          "indexed": false,
          "internalType": "address",
          "name": "applicant",
          "type": "address"
        }
      ],
      "name": "ApplicationSubmitted",
      "type": "event"
    },
    {
      "anonymous": false,
      "inputs": [
        {
          "indexed": true,
          "internalType": "uint256",
          "name": "fellowshipId",
          "type": "uint256"
        }
      ],
      "name": "EpochResolved",
      "type": "event"
    },
    {
      "anonymous": false,
      "inputs": [
        {
          "indexed": true,
          "internalType": "uint256",
          "name": "fellowshipId",
          "type": "uint256"
        }
      ],
      "name": "EpochStarted",
      "type": "event"
    },
    {
      "anonymous": false,
      "inputs": [
        {
          "indexed": true,
          "internalType": "uint256",
          "name": "fellowshipId",
          "type": "uint256"
        },
        {
          "components": [
            {
              "internalType": "string",
              "name": "metadata",
              "type": "string"
            },
            {
              "internalType": "uint256",
              "name": "funds",
              "type": "uint256"
            },
            {
              "internalType": "uint256",
              "name": "applicationDeadline",
              "type": "uint256"
            },
            {
              "internalType": "uint256",
              "name": "marketDeadline",
              "type": "uint256"
            },
            {
              "internalType": "uint256",
              "name": "epochEndTime",
              "type": "uint256"
            },
            {
              "internalType": "enum FellowshipStatus",
              "name": "status",
              "type": "uint8"
            },
            {
              "internalType": "uint256",
              "name": "maxApplicants",
              "type": "uint256"
            }
          ],
          "indexed": false,
          "internalType": "struct Fellowship",
          "name": "fellowship",
          "type": "tuple"
        }
      ],
      "name": "FellowshipCreated",
      "type": "event"
    },
    {
      "anonymous": false,
      "inputs": [
        {
          "indexed": true,
          "internalType": "uint256",
          "name": "fellowshipId",
          "type": "uint256"
        }
      ],
      "name": "FellowshipResolved",
      "type": "event"
    },
    {
      "anonymous": false,
      "inputs": [
        {
          "indexed": true,
          "internalType": "uint256",
          "name": "fellowshipId",
          "type": "uint256"
        },
        {
          "indexed": true,
          "internalType": "address",
          "name": "marketAddress",
          "type": "address"
        }
      ],
      "name": "MarketOpened",
      "type": "event"
    },
    {
      "anonymous": false,
      "inputs": [
        {
          "indexed": true,
          "internalType": "address",
          "name": "previousOwner",
          "type": "address"
        },
        {
          "indexed": true,
          "internalType": "address",
          "name": "newOwner",
          "type": "address"
        }
      ],
      "name": "OwnershipTransferred",
      "type": "event"
    },
    {
      "inputs": [
        {
          "internalType": "uint256",
          "name": "",
          "type": "uint256"
        },
        {
          "internalType": "uint256",
          "name": "",
          "type": "uint256"
        }
      ],
      "name": "applications",
      "outputs": [
        {
          "internalType": "address",
          "name": "applicant",
          "type": "address"
        },
        {
          "internalType": "string",
          "name": "metadata",
          "type": "string"
        },
        {
          "internalType": "bool",
          "name": "achieved",
          "type": "bool"
        },
        {
          "internalType": "bool",
          "name": "verified",
          "type": "bool"
        },
        {
          "internalType": "uint256",
          "name": "yesStakes",
          "type": "uint256"
        },
        {
          "internalType": "uint256",
          "name": "noStakes",
          "type": "uint256"
        },
        {
          "internalType": "bool",
          "name": "accepted",
          "type": "bool"
        },
        {
          "internalType": "uint256",
          "name": "grantAmount",
          "type": "uint256"
        }
      ],
      "stateMutability": "view",
      "type": "function"
    },
    {
      "inputs": [
        {
          "internalType": "uint256",
          "name": "fellowshipId",
          "type": "uint256"
        },
        {
          "internalType": "string",
          "name": "metadata",
          "type": "string"
        }
      ],
      "name": "applyToFellowship",
      "outputs": [],
      "stateMutability": "nonpayable",
      "type": "function"
    },
    {
      "inputs": [
        {
          "components": [
            {
              "internalType": "string",
              "name": "metadata",
              "type": "string"
            },
            {
              "internalType": "uint256",
              "name": "funds",
              "type": "uint256"
            },
            {
              "internalType": "uint256",
              "name": "applicationDeadline",
              "type": "uint256"
            },
            {
              "internalType": "uint256",
              "name": "marketDeadline",
              "type": "uint256"
            },
            {
              "internalType": "uint256",
              "name": "epochEndTime",
              "type": "uint256"
            },
            {
              "internalType": "enum FellowshipStatus",
              "name": "status",
              "type": "uint8"
            },
            {
              "internalType": "uint256",
              "name": "maxApplicants",
              "type": "uint256"
            }
          ],
          "internalType": "struct Fellowship",
          "name": "_fellowship",
          "type": "tuple"
        }
      ],
      "name": "createFellowship",
      "outputs": [],
      "stateMutability": "payable",
      "type": "function"
    },
    {
      "inputs": [
        {
          "internalType": "uint256",
          "name": "fellowshipId",
          "type": "uint256"
        }
      ],
      "name": "evaluateMarket",
      "outputs": [],
      "stateMutability": "nonpayable",
      "type": "function"
    },
    {
      "inputs": [],
      "name": "fellowshipCount",
      "outputs": [
        {
          "internalType": "uint256",
          "name": "",
          "type": "uint256"
        }
      ],
      "stateMutability": "view",
      "type": "function"
    },
    {
      "inputs": [
        {
          "internalType": "uint256",
          "name": "",
          "type": "uint256"
        }
      ],
      "name": "fellowships",
      "outputs": [
        {
          "internalType": "string",
          "name": "metadata",
          "type": "string"
        },
        {
          "internalType": "uint256",
          "name": "funds",
          "type": "uint256"
        },
        {
          "internalType": "uint256",
          "name": "applicationDeadline",
          "type": "uint256"
        },
        {
          "internalType": "uint256",
          "name": "marketDeadline",
          "type": "uint256"
        },
        {
          "internalType": "uint256",
          "name": "epochEndTime",
          "type": "uint256"
        },
        {
          "internalType": "enum FellowshipStatus",
          "name": "status",
          "type": "uint8"
        },
        {
          "internalType": "uint256",
          "name": "maxApplicants",
          "type": "uint256"
        }
      ],
      "stateMutability": "view",
      "type": "function"
    },
    {
      "inputs": [
        {
          "internalType": "uint256",
          "name": "",
          "type": "uint256"
        },
        {
          "internalType": "uint256",
          "name": "",
          "type": "uint256"
        }
      ],
      "name": "markets",
      "outputs": [
        {
          "internalType": "contract Market",
          "name": "",
          "type": "address"
        }
      ],
      "stateMutability": "view",
      "type": "function"
    },
    {
      "inputs": [
        {
          "internalType": "uint256",
          "name": "fellowshipId",
          "type": "uint256"
        }
      ],
      "name": "openFellowshipMarkets",
      "outputs": [],
      "stateMutability": "nonpayable",
      "type": "function"
    },
    {
      "inputs": [],
      "name": "operator",
      "outputs": [
        {
          "internalType": "address",
          "name": "",
          "type": "address"
        }
      ],
      "stateMutability": "view",
      "type": "function"
    },
    {
      "inputs": [],
      "name": "owner",
      "outputs": [
        {
          "internalType": "address",
          "name": "",
          "type": "address"
        }
      ],
      "stateMutability": "view",
      "type": "function"
    },
    {
      "inputs": [],
      "name": "phalaVerifier",
      "outputs": [
        {
          "internalType": "address",
          "name": "",
          "type": "address"
        }
      ],
      "stateMutability": "view",
      "type": "function"
    },
    {
      "inputs": [],
      "name": "renounceOwnership",
      "outputs": [],
      "stateMutability": "nonpayable",
      "type": "function"
    },
    {
      "inputs": [
        {
          "internalType": "uint256",
          "name": "fellowshipId",
          "type": "uint256"
        }
      ],
      "name": "resolveFellowship",
      "outputs": [],
      "stateMutability": "nonpayable",
      "type": "function"
    },
    {
      "inputs": [
        {
          "internalType": "uint256",
          "name": "fellowshipId",
          "type": "uint256"
        },
        {
          "internalType": "uint256",
          "name": "applicationId",
          "type": "uint256"
        },
        {
          "internalType": "bool",
          "name": "achieved",
          "type": "bool"
        },
        {
          "internalType": "bytes",
          "name": "proof",
          "type": "bytes"
        }
      ],
      "name": "setApplicantImpact",
      "outputs": [],
      "stateMutability": "nonpayable",
      "type": "function"
    },
    {
      "inputs": [
        {
          "internalType": "address",
          "name": "_operator",
          "type": "address"
        }
      ],
      "name": "setOperator",
      "outputs": [],
      "stateMutability": "nonpayable",
      "type": "function"
    },
    {
      "inputs": [
        {
          "internalType": "address",
          "name": "_verifier",
          "type": "address"
        }
      ],
      "name": "setVerifier",
      "outputs": [],
      "stateMutability": "nonpayable",
      "type": "function"
    },
    {
      "inputs": [
        {
          "internalType": "address",
          "name": "newOwner",
          "type": "address"
        }
      ],
      "name": "transferOwnership",
      "outputs": [],
      "stateMutability": "nonpayable",
      "type": "function"
    }
  ],
  "bytecode": "0x608060405234801561001057600080fd5b5060405161268938038061268983398101604081905261002f916100fc565b338061005557604051631e4fbdf760e01b81526000600482015260240160405180910390fd5b61005e81610090565b50600580546001600160a01b039384166001600160a01b0319918216179091556006805492909316911617905561012f565b600080546001600160a01b038381166001600160a01b0319831681178455604051919092169283917f8be0079c531659141344cd1fd0a4f28419497f9722a3daafe3b4186f6b6457e09190a35050565b80516001600160a01b03811681146100f757600080fd5b919050565b6000806040838503121561010f57600080fd5b610118836100e0565b9150610126602084016100e0565b90509250929050565b61254b8061013e6000396000f3fe6080604052600436106100fe5760003560e01c80637a870b6311610095578063b65d35e011610064578063b65d35e0146102b3578063da5095cf146102d3578063dd204af3146102f7578063f2fde38b14610317578063fe11edc91461033757600080fd5b80637a870b631461022e5780638da5cb5b14610262578063921050e214610280578063b3ab15fb1461029357600080fd5b8063570ca735116100d1578063570ca735146101a157806368fd5ade146101d9578063715018a6146101f957806377dae1811461020e57600080fd5b80630408820b1461010357806338c840741461013f57806345df38e3146101615780635437988d14610181575b600080fd5b34801561010f57600080fd5b5061012361011e3660046113bf565b610378565b6040516101369796959493929190611448565b60405180910390f35b34801561014b57600080fd5b5061015f61015a3660046113bf565b610440565b005b34801561016d57600080fd5b5061015f61017c3660046114dd565b610674565b34801561018d57600080fd5b5061015f61019c366004611529565b610917565b3480156101ad57600080fd5b506006546101c1906001600160a01b031681565b6040516001600160a01b039091168152602001610136565b3480156101e557600080fd5b506005546101c1906001600160a01b031681565b34801561020557600080fd5b5061015f610941565b34801561021a57600080fd5b5061015f6102293660046113bf565b610955565b34801561023a57600080fd5b5061024e610249366004611559565b610bf0565b60405161013698979695949392919061157b565b34801561026e57600080fd5b506000546001600160a01b03166101c1565b61015f61028e3660046115d4565b610cef565b34801561029f57600080fd5b5061015f6102ae366004611529565b610f0f565b3480156102bf57600080fd5b5061015f6102ce3660046113bf565b610f39565b3480156102df57600080fd5b506102e960015481565b604051908152602001610136565b34801561030357600080fd5b5061015f61031236600461160f565b6111a5565b34801561032357600080fd5b5061015f610332366004611529565b6112f7565b34801561034357600080fd5b506101c1610352366004611559565b60046020908152600092835260408084209091529082529020546001600160a01b031681565b6002602052600090815260409020805481906103939061167e565b80601f01602080910402602001604051908101604052809291908181526020018280546103bf9061167e565b801561040c5780601f106103e15761010080835404028352916020019161040c565b820191906000526020600020905b8154815290600101906020018083116103ef57829003601f168201915b50505060018401546002850154600386015460048701546005880154600690980154969793969295509093509160ff169087565b6006546001600160a01b031633146104735760405162461bcd60e51b815260040161046a906116b8565b60405180910390fd5b6000818152600260208190526040909120908101544210156104d75760405162461bcd60e51b815260206004820152601c60248201527f4170706c69636174696f6e20706572696f64206e6f7420656e64656400000000604482015260640161046a565b6001600582015460ff1660048111156104f2576104f261141e565b1461050f5760405162461bcd60e51b815260040161046a90611700565b600082815260036020526040902080546105795760405162461bcd60e51b815260206004820152602560248201527f4e6f206170706c69636174696f6e7320746f20637265617465206d61726b657460448201526439903337b960d91b606482015260840161046a565b60005b81548110156106615760003083838154811061059a5761059a611728565b60009182526020909120600790910201546040516001600160a01b03909116906105c3906113b2565b6001600160a01b03928316815291166020820152604001604051809103906000f0801580156105f6573d6000803e3d6000fd5b50600086815260046020908152604080832086845290915280822080546001600160a01b0319166001600160a01b03851690811790915590519293509187917fb2079f56665ef9c9849fa20da2a4360b7391604b04f21f511fd96af427b9ca0391a35060010161057c565b5050600501805460ff1916600217905550565b60008381526002602052604090206001600582015460ff16600481111561069d5761069d61141e565b146106ea5760405162461bcd60e51b815260206004820152601a60248201527f4e6f7420616363657074696e67206170706c69636174696f6e73000000000000604482015260640161046a565b8060020154421061073d5760405162461bcd60e51b815260206004820152601860248201527f4170706c69636174696f6e20706572696f6420656e6465640000000000000000604482015260640161046a565b60068101546000858152600360205260409020541061079e5760405162461bcd60e51b815260206004820152601a60248201527f4d6178696d756d206170706c6963616e74732072656163686564000000000000604482015260640161046a565b60008481526003602090815260409182902080548351610100810185523381528451601f88018590048502810185019095528685529093919290918282019188908890819084018382808284376000920182905250938552505050602080830182905260408301829052606083018290526080830182905260a0830182905260c090920181905283546001808201865594825290829020835160079092020180546001600160a01b0319166001600160a01b0390921691909117815590820151919290919082019061087090826117a3565b50604082810151600283018054606086015115156101000261ff00199315159390931661ffff19909116179190911790556080830151600383015560a0830151600483015560c083015160058301805491151560ff1990921691909117905560e09092015160069091015551338152819086907ffdb73f695bc6f43d03128339b6d99121833f5cb8d65f8cb3ffc6abe2e08a0a5b9060200160405180910390a35050505050565b61091f611335565b600580546001600160a01b0319166001600160a01b0392909216919091179055565b610949611335565b6109536000611362565b565b6006546001600160a01b0316331461097f5760405162461bcd60e51b815260040161046a906116b8565b600081815260026020526040902060048101544210156109d35760405162461bcd60e51b815260206004820152600f60248201526e115c1bd8da081b9bdd08195b991959608a1b604482015260640161046a565b6003600582015460ff1660048111156109ee576109ee61141e565b14610a0b5760405162461bcd60e51b815260040161046a90611700565b6000828152600360205260408120905b8154811015610bb0576000828281548110610a3857610a38611728565b906000526020600020906007020190508060020160019054906101000a900460ff16610aa65760405162461bcd60e51b815260206004820152601d60248201527f4e6f7420616c6c206170706c69636174696f6e73207665726966696564000000604482015260640161046a565b600281015460ff1615610b2d576000858152600460208181526040808420868552909152808320549051632809c36f60e21b81526001600160a01b039091169263a0270dbc92610af69201611862565b600060405180830381600087803b158015610b1057600080fd5b505af1158015610b24573d6000803e3d6000fd5b50505050610ba7565b600085815260046020818152604080842086855290915291829020549151632809c36f60e21b81526001600160a01b039092169163a0270dbc91610b749160019101611862565b600060405180830381600087803b158015610b8e57600080fd5b505af1158015610ba2573d6000803e3d6000fd5b505050505b50600101610a1b565b5060058201805460ff1916600417905560405183907fdcc6a663e14c35c3c5dfdc826971902b981edaf3f89e3a12be2fbdd5a3f3442d90600090a2505050565b60036020528160005260406000208181548110610c0c57600080fd5b6000918252602090912060079091020180546001820180546001600160a01b039092169450919250610c3d9061167e565b80601f0160208091040260200160405190810160405280929190818152602001828054610c699061167e565b8015610cb65780601f10610c8b57610100808354040283529160200191610cb6565b820191906000526020600020905b815481529060010190602001808311610c9957829003601f168201915b505050506002830154600384015460048501546005860154600690960154949560ff808516966101009095048116955092939192169088565b80602001353414610d395760405162461bcd60e51b8152602060048201526014602482015273125b98dbdc9c9958dd08199d5b991cc81cd95b9d60621b604482015260640161046a565b42816040013511610d8c5760405162461bcd60e51b815260206004820152601c60248201527f496e76616c6964206170706c69636174696f6e20646561646c696e6500000000604482015260640161046a565b8060400135816060013511610de35760405162461bcd60e51b815260206004820152601760248201527f496e76616c6964206d61726b657420646561646c696e65000000000000000000604482015260640161046a565b8060600135816080013511610e335760405162461bcd60e51b8152602060048201526016602482015275496e76616c69642065706f636820656e642074696d6560501b604482015260640161046a565b60008160c0013511610e805760405162461bcd60e51b8152602060048201526016602482015275496e76616c6964206d6178206170706c6963616e747360501b604482015260640161046a565b6001805460009182610e9183611892565b9091555060008181526002602052604090209091508290610eb282826119a5565b50506000818152600260205260409081902060058101805460ff19166001179055905182917fb9b0f53034927daed01f72103ee43b60064a3d02f125f443ca43286a613b1fae91610f039190611a43565b60405180910390a25050565b610f17611335565b600680546001600160a01b0319166001600160a01b0392909216919091179055565b6006546001600160a01b03163314610f635760405162461bcd60e51b815260040161046a906116b8565b60008181526002602052604090206003810154421015610fb95760405162461bcd60e51b815260206004820152601160248201527026b0b935b2ba1039ba34b6361037b832b760791b604482015260640161046a565b6002600582015460ff166004811115610fd457610fd461141e565b14610ff15760405162461bcd60e51b815260040161046a90611700565b600082815260036020526040812090805b825481101561108457600083828154811061101f5761101f611728565b906000526020600020906007020190506000816004015482600301546110459190611b25565b9050801561107a5781600401548260030154111561107a5760058201805460ff191660011790558361107681611892565b9450505b5050600101611002565b50801561116557600081846001015461109d9190611b38565b905060005b8354811015611162578381815481106110bd576110bd611728565b600091825260209091206005600790920201015460ff161561115a57818482815481106110ec576110ec611728565b90600052602060002090600702016006018190555083818154811061111357611113611728565b600091825260208220600790910201546040516001600160a01b039091169184156108fc02918591818181858888f19350505050158015611158573d6000803e3d6000fd5b505b6001016110a2565b50505b60058301805460ff1916600317905560405184907f968139de8ea4f6dca3f75fdde04ee69529bde77210bb1cc0b58e954fd3d9b61990600090a250505050565b600360008681526002602052604090206005015460ff1660048111156111cd576111cd61141e565b146111ea5760405162461bcd60e51b815260040161046a90611700565b6005546040516000916001600160a01b03169061120a9085908590611b5a565b6000604051808303816000865af19150503d8060008114611247576040519150601f19603f3d011682016040523d82523d6000602084013e61124c565b606091505b505090508061129d5760405162461bcd60e51b815260206004820152601960248201527f496e76616c696420616368696576656d656e742070726f6f6600000000000000604482015260640161046a565b60008681526003602052604081208054879081106112bd576112bd611728565b60009182526020909120600260079092020101805461ff00199615159690961661ffff199096169590951761010017909455505050505050565b6112ff611335565b6001600160a01b03811661132957604051631e4fbdf760e01b81526000600482015260240161046a565b61133281611362565b50565b6000546001600160a01b031633146109535760405163118cdaa760e01b815233600482015260240161046a565b600080546001600160a01b038381166001600160a01b0319831681178455604051919092169283917f8be0079c531659141344cd1fd0a4f28419497f9722a3daafe3b4186f6b6457e09190a35050565b6109ab80611b6b83390190565b6000602082840312156113d157600080fd5b5035919050565b6000815180845260005b818110156113fe576020818501810151868301820152016113e2565b506000602082860101526020601f19601f83011685010191505092915050565b634e487b7160e01b600052602160045260246000fd5b600581106114445761144461141e565b9052565b60e08152600061145b60e083018a6113d8565b905087602083015286604083015285606083015284608083015261148260a0830185611434565b8260c083015298975050505050505050565b60008083601f8401126114a657600080fd5b50813567ffffffffffffffff8111156114be57600080fd5b6020830191508360208285010111156114d657600080fd5b9250929050565b6000806000604084860312156114f257600080fd5b83359250602084013567ffffffffffffffff81111561151057600080fd5b61151c86828701611494565b9497909650939450505050565b60006020828403121561153b57600080fd5b81356001600160a01b038116811461155257600080fd5b9392505050565b6000806040838503121561156c57600080fd5b50508035926020909101359150565b6001600160a01b0389168152610100602082018190526000906115a09083018a6113d8565b9715156040830152509415156060860152608085019390935260a0840191909152151560c083015260e09091015292915050565b6000602082840312156115e657600080fd5b813567ffffffffffffffff8111156115fd57600080fd5b820160e0818503121561155257600080fd5b60008060008060006080868803121561162757600080fd5b85359450602086013593506040860135801515811461164557600080fd5b9250606086013567ffffffffffffffff81111561166157600080fd5b61166d88828901611494565b969995985093965092949392505050565b600181811c9082168061169257607f821691505b6020821081036116b257634e487b7160e01b600052602260045260246000fd5b50919050565b60208082526028908201527f4f6e6c7920746865206f70657261746f722063616e2063616c6c207468697320604082015267333ab731ba34b7b760c11b606082015260800190565b6020808252600e908201526d496e76616c69642073746174757360901b604082015260600190565b634e487b7160e01b600052603260045260246000fd5b634e487b7160e01b600052604160045260246000fd5b601f82111561179e57806000526020600020601f840160051c8101602085101561177b5750805b601f840160051c820191505b8181101561179b5760008155600101611787565b50505b505050565b815167ffffffffffffffff8111156117bd576117bd61173e565b6117d1816117cb845461167e565b84611754565b6020601f82116001811461180557600083156117ed5750848201515b600019600385901b1c1916600184901b17845561179b565b600084815260208120601f198516915b828110156118355787850151825560209485019460019092019101611815565b50848210156118535786840151600019600387901b60f8161c191681555b50505050600190811b01905550565b60208101600283106118765761187661141e565b91905290565b634e487b7160e01b600052601160045260246000fd5b6000600182016118a4576118a461187c565b5060010190565b67ffffffffffffffff8311156118c3576118c361173e565b6118d7836118d1835461167e565b83611754565b6000601f84116001811461190b57600085156118f35750838201355b600019600387901b1c1916600186901b17835561179b565b600083815260209020601f19861690835b8281101561193c578685013582556020948501946001909201910161191c565b50868210156119595760001960f88860031b161c19848701351681555b505060018560011b0183555050505050565b600081356005811061197c57600080fd5b92915050565b600582106119925761199261141e565b60ff1981541660ff831681178255505050565b8135601e198336030181126119b957600080fd5b8201803567ffffffffffffffff8111156119d257600080fd5b6020820191508036038213156119e757600080fd5b6119f28183856118ab565b505060208201356001820155604082013560028201556060820135600382015560808201356004820155611a34611a2b60a0840161196b565b60058301611982565b60c09190910135600690910155565b6020815260e060208201526000808354611a5c8161167e565b806101008601526001821660008114611a7c5760018114611a9a57611ad0565b60ff19831661012087015261012082151560051b8701019350611ad0565b86600052602060002060005b83811015611ac65781548882016101200152600190910190602001611aa6565b8701610120019450505b505050600184015460408401526002840154606084015260038401546080840152600484015460a0840152600584015460ff16611b1060c0850182611434565b50600684015460e08401528091505092915050565b8082018082111561197c5761197c61187c565b600082611b5557634e487b7160e01b600052601260045260246000fd5b500490565b818382376000910190815291905056fe60c060405234801561001057600080fd5b506040516109ab3803806109ab83398101604081905261002f91610062565b6001600160a01b039182166080521660a052610095565b80516001600160a01b038116811461005d57600080fd5b919050565b6000806040838503121561007557600080fd5b61007e83610046565b915061008c60208401610046565b90509250929050565b60805160a0516108eb6100c060003960006101b401526000818160ef015261040901526108eb6000f3fe6080604052600436106100865760003560e01c80636c27c892116100595780636c27c892146101385780637e0ecc001461016757806388e687ea146101a2578063a0270dbc146101d6578063ddd387de146101f657600080fd5b80633482b6441461008b57806343046844146100c8578063570ca735146100dd5780636537214714610111575b600080fd5b34801561009757600080fd5b506100ab6100a6366004610769565b61022e565b6040516001600160a01b0390911681526020015b60405180910390f35b6100db6100d6366004610796565b610258565b005b3480156100e957600080fd5b506100ab7f000000000000000000000000000000000000000000000000000000000000000081565b34801561011d57600080fd5b5060005461012b9060ff1681565b6040516100bf91906107ce565b34801561014457600080fd5b5060005461015790610100900460ff1681565b60405190151581526020016100bf565b34801561017357600080fd5b50610194610182366004610796565b60016020526000908152604090205481565b6040519081526020016100bf565b3480156101ae57600080fd5b506100ab7f000000000000000000000000000000000000000000000000000000000000000081565b3480156101e257600080fd5b506100db6101f1366004610796565b6103fe565b34801561020257600080fd5b506101946102113660046107f6565b600260209081526000928352604080842090915290825290205481565b6003818154811061023e57600080fd5b6000918252602090912001546001600160a01b0316905081565b600054610100900460ff161561028157604051635afb574960e11b815260040160405180910390fd5b346000036102a257604051639de3d44160e01b815260040160405180910390fd5b34600160008360018111156102b9576102b96107b8565b60018111156102ca576102ca6107b8565b815260200190815260200160002060008282546102e7919061084d565b9091555050336000908152600260205260408120349183600181111561030f5761030f6107b8565b6001811115610320576103206107b8565b8152602001908152602001600020600082825461033d919061084d565b90915550503360009081526004602052604090205460ff166103b4576003805460018181019092557fc2575a0e9e593c00f959f8c92f12db2869c3395a3b0502d05e2516446f71f85b0180546001600160a01b031916339081179091556000908152600460205260409020805460ff191690911790555b8060018111156103c6576103c66107b8565b60405134815233907f9f6b4cced64244a64465098f682029975b1614400b96bc6bd12c6680837191669060200160405180910390a350565b336001600160a01b037f0000000000000000000000000000000000000000000000000000000000000000161461048b5760405162461bcd60e51b815260206004820152602860248201527f4f6e6c7920746865206f70657261746f722063616e2063616c6c207468697320604482015267333ab731ba34b7b760c11b606482015260840160405180910390fd5b600054610100900460ff16156104b457604051635afb574960e11b815260040160405180910390fd5b6003546000036104d7576040516303ada9a960e21b815260040160405180910390fd5b6000805482919060ff1916600183818111156104f5576104f56107b8565b02179055506000805461ff001916610100178155600181838281111561051d5761051d6107b8565b600181111561052e5761052e6107b8565b8152602001908152602001600020549050600081111561072a5760016020527fcc69885fda6bcc1a4ace058b4a62bf5e179ea78fd58a1ccd71c22cc9b688792f5460008080527fa6eef7e35abe7026729641147f7915573c7e97b47efa546f5f6e3230263bcb495490916105a19161084d565b905060005b600354811015610727576000600382815481106105c5576105c5610866565b60009182526020808320909101546001600160a01b0316808352600290915260408220909250818760018111156105fe576105fe6107b8565b600181111561060f5761060f6107b8565b8152602001908152602001600020549050600081111561071d57600085610636868461087c565b6106409190610893565b6001600160a01b038416600081815260026020908152604080832083805290915280822082905560018252808220829055519293509183908381818185875af1925050503d80600081146106b0576040519150601f19603f3d011682016040523d82523d6000602084013e6106b5565b606091505b50509050806106d7576040516312171d8360e31b815260040160405180910390fd5b836001600160a01b03167f8407530cd30bd60843793c1ccec3f8c6f69c95ffef3e255c2de664d0dd658d618360405161071291815260200190565b60405180910390a250505b50506001016105a6565b50505b81600181111561073c5761073c6107b8565b6040517f94e5f71d5001613eb5e4ad876acb1da127582270c692c34fbcf810be21728b1d90600090a25050565b60006020828403121561077b57600080fd5b5035919050565b80356002811061079157600080fd5b919050565b6000602082840312156107a857600080fd5b6107b182610782565b9392505050565b634e487b7160e01b600052602160045260246000fd5b60208101600283106107f057634e487b7160e01b600052602160045260246000fd5b91905290565b6000806040838503121561080957600080fd5b82356001600160a01b038116811461082057600080fd5b915061082e60208401610782565b90509250929050565b634e487b7160e01b600052601160045260246000fd5b8082018082111561086057610860610837565b92915050565b634e487b7160e01b600052603260045260246000fd5b808202811582820484141761086057610860610837565b6000826108b057634e487b7160e01b600052601260045260246000fd5b50049056fea2646970667358221220df44d062e0f6ba8ea98cd133993fd3cd2efc07695ac4209b6c6b958034a7023964736f6c634300081b0033a2646970667358221220be1fb728008af738409542331cfd97e74936cd521984a4ee2d48fe065c2976cd64736f6c634300081b0033",
  "linkReferences": {},
  "deployedLinkReferences": {}
}