{
  "contracts/FellowFund.sol": {
    "FellowFund": {
      "abi": [
        {
          "inputs": [],
          "stateMutability": "nonpayable",
          "type": "constructor"
        },
        {
          "inputs": [
            {
              "internalType": "address",
              "name": "owner",
              "type": "address"
            }
          ],
          "name": "OwnableInvalidOwner",
          "type": "error"
        },
        {
          "inputs": [
            {
              "internalType": "address",
              "name": "account",
              "type": "address"
            }
          ],
          "name": "OwnableUnauthorizedAccount",
          "type": "error"
        },
        {
          "anonymous": false,
          "inputs": [
            {
              "indexed": true,
              "internalType": "uint256",
              "name": "fellowshipId",
              "type": "uint256"
            },
            {
              "components": [
                {
                  "internalType": "string",
                  "name": "name",
                  "type": "string"
                },
                {
                  "internalType": "string",
                  "name": "description",
                  "type": "string"
                },
                {
                  "internalType": "uint256",
                  "name": "liquidity",
                  "type": "uint256"
                },
                {
                  "components": [
                    {
                      "internalType": "uint256",
                      "name": "weight",
                      "type": "uint256"
                    },
                    {
                      "internalType": "uint256",
                      "name": "count",
                      "type": "uint256"
                    }
                  ],
                  "internalType": "struct WeightedMetric[2]",
                  "name": "requiredMetrics",
                  "type": "tuple[2]"
                }
              ],
              "indexed": false,
              "internalType": "struct Fellowship",
              "name": "fellowship",
              "type": "tuple"
            }
          ],
          "name": "FellowshipCreated",
          "type": "event"
        },
        {
          "anonymous": false,
          "inputs": [
            {
              "indexed": true,
              "internalType": "address",
              "name": "previousOwner",
              "type": "address"
            },
            {
              "indexed": true,
              "internalType": "address",
              "name": "newOwner",
              "type": "address"
            }
          ],
          "name": "OwnershipTransferred",
          "type": "event"
        },
        {
          "inputs": [
            {
              "internalType": "string",
              "name": "proof",
              "type": "string"
            }
          ],
          "name": "applyToFellowship",
          "outputs": [],
          "stateMutability": "nonpayable",
          "type": "function"
        },
        {
          "inputs": [
            {
              "components": [
                {
                  "internalType": "string",
                  "name": "name",
                  "type": "string"
                },
                {
                  "internalType": "string",
                  "name": "description",
                  "type": "string"
                },
                {
                  "internalType": "uint256",
                  "name": "liquidity",
                  "type": "uint256"
                },
                {
                  "components": [
                    {
                      "internalType": "uint256",
                      "name": "weight",
                      "type": "uint256"
                    },
                    {
                      "internalType": "uint256",
                      "name": "count",
                      "type": "uint256"
                    }
                  ],
                  "internalType": "struct WeightedMetric[2]",
                  "name": "requiredMetrics",
                  "type": "tuple[2]"
                }
              ],
              "internalType": "struct Fellowship",
              "name": "_fellowship",
              "type": "tuple"
            }
          ],
          "name": "createFellowship",
          "outputs": [],
          "stateMutability": "nonpayable",
          "type": "function"
        },
        {
          "inputs": [],
          "name": "openFellowshipMarket",
          "outputs": [],
          "stateMutability": "nonpayable",
          "type": "function"
        },
        {
          "inputs": [],
          "name": "owner",
          "outputs": [
            {
              "internalType": "address",
              "name": "",
              "type": "address"
            }
          ],
          "stateMutability": "view",
          "type": "function"
        },
        {
          "inputs": [],
          "name": "renounceOwnership",
          "outputs": [],
          "stateMutability": "nonpayable",
          "type": "function"
        },
        {
          "inputs": [
            {
              "internalType": "address",
              "name": "newOwner",
              "type": "address"
            }
          ],
          "name": "transferOwnership",
          "outputs": [],
          "stateMutability": "nonpayable",
          "type": "function"
        }
      ],
      "evm": {
        "bytecode": {
          "linkReferences": {},
          "object": "60806040526000600255348015601457600080fd5b503380603a57604051631e4fbdf760e01b81526000600482015260240160405180910390fd5b6041816046565b506096565b600080546001600160a01b038381166001600160a01b0319831681178455604051919092169283917f8be0079c531659141344cd1fd0a4f28419497f9722a3daafe3b4186f6b6457e09190a35050565b61077b806100a56000396000f3fe608060405234801561001057600080fd5b50600436106100625760003560e01c806366840c54146100675780636b9da1f81461007a578063715018a61461008d5780638da5cb5b14610095578063f2fde38b146100b4578063f2fe2aca14610078575b600080fd5b61007861007536600461021f565b50565b005b6100786100883660046102d8565b6100c7565b610078610138565b600054604080516001600160a01b039092168252519081900360200190f35b6100786100c236600461031a565b61014c565b600280549060006100d783610343565b9091555050600254600090815260036020526040902081906100f98282610533565b90505060007f7fb62f768b9ae2b193226d19cd443def31e2639a40b895c74db815b8e298f5708260405161012d91906106a5565b60405180910390a250565b61014061018c565b61014a60006101b9565b565b61015461018c565b6001600160a01b03811661018357604051631e4fbdf760e01b8152600060048201526024015b60405180910390fd5b610075816101b9565b6000546001600160a01b0316331461014a5760405163118cdaa760e01b815233600482015260240161017a565b600080546001600160a01b038381166001600160a01b0319831681178455604051919092169283917f8be0079c531659141344cd1fd0a4f28419497f9722a3daafe3b4186f6b6457e09190a35050565b634e487b7160e01b600052604160045260246000fd5b60006020828403121561023157600080fd5b813567ffffffffffffffff81111561024857600080fd5b8201601f8101841361025957600080fd5b803567ffffffffffffffff81111561027357610273610209565b604051601f8201601f19908116603f0116810167ffffffffffffffff811182821017156102a2576102a2610209565b6040528181528282016020018610156102ba57600080fd5b81602084016020830137600091810160200191909152949350505050565b6000602082840312156102ea57600080fd5b813567ffffffffffffffff81111561030157600080fd5b820160e0818503121561031357600080fd5b9392505050565b60006020828403121561032c57600080fd5b81356001600160a01b038116811461031357600080fd5b60006001820161036357634e487b7160e01b600052601160045260246000fd5b5060010190565b6000808335601e1984360301811261038157600080fd5b83018035915067ffffffffffffffff82111561039c57600080fd5b6020019150368190038213156103b157600080fd5b9250929050565b600181811c908216806103cc57607f821691505b6020821081036103ec57634e487b7160e01b600052602260045260246000fd5b50919050565b601f82111561043c57806000526020600020601f840160051c810160208510156104195750805b601f840160051c820191505b818110156104395760008155600101610425565b50505b505050565b67ffffffffffffffff83111561045957610459610209565b61046d8361046783546103b8565b836103f2565b6000601f8411600181146104a157600085156104895750838201355b600019600387901b1c1916600186901b178355610439565b600083815260209020601f19861690835b828110156104d257868501358255602094850194600190920191016104b2565b50868210156104ef5760001960f88860031b161c19848701351681555b505060018560011b0183555050505050565b818160005b60028110156104395782358255602083013560018084019190915560409093019260029092019101610506565b61053d828361036a565b67ffffffffffffffff81111561055557610555610209565b6105698161056385546103b8565b856103f2565b6000601f82116001811461059d57600083156105855750838201355b600019600385901b1c1916600184901b1785556105f7565b600085815260209020601f19841690835b828110156105ce57868501358255602094850194600190920191016105ae565b50848210156105eb5760001960f88660031b161c19848701351681555b505060018360011b0185555b50505050610608602083018361036a565b610616818360018601610441565b5050604082013560028201556106326060830160038301610501565b5050565b6000808335601e1984360301811261064d57600080fd5b830160208101925035905067ffffffffffffffff81111561066d57600080fd5b8036038213156103b157600080fd5b81835281816020850137506000828201602090810191909152601f909101601f19169091010190565b6020815260006106b58384610636565b60e060208501526106cb6101008501828461067c565b9150506106db6020850185610636565b848303601f190160408601526106f283828461067c565b9250505060006040850135905080606085015250608083016060850160005b600281101561073a57813583526020808301359084015260409283019290910190600101610711565b50919594505050505056fea2646970667358221220a04f324c804bf15848061f99b13ee477a3c61b4d75f96a7b823497fa0f442cc264736f6c634300081b0033",
          "opcodes": "PUSH1 0x80 PUSH1 0x40 MSTORE PUSH1 0x0 PUSH1 0x2 SSTORE CALLVALUE DUP1 ISZERO PUSH1 0x14 JUMPI PUSH1 0x0 DUP1 REVERT JUMPDEST POP CALLER DUP1 PUSH1 0x3A JUMPI PUSH1 0x40 MLOAD PUSH4 0x1E4FBDF7 PUSH1 0xE0 SHL DUP2 MSTORE PUSH1 0x0 PUSH1 0x4 DUP3 ADD MSTORE PUSH1 0x24 ADD PUSH1 0x40 MLOAD DUP1 SWAP2 SUB SWAP1 REVERT JUMPDEST PUSH1 0x41 DUP2 PUSH1 0x46 JUMP JUMPDEST POP PUSH1 0x96 JUMP JUMPDEST PUSH1 0x0 DUP1 SLOAD PUSH1 0x1 PUSH1 0x1 PUSH1 0xA0 SHL SUB DUP4 DUP2 AND PUSH1 0x1 PUSH1 0x1 PUSH1 0xA0 SHL SUB NOT DUP4 AND DUP2 OR DUP5 SSTORE PUSH1 0x40 MLOAD SWAP2 SWAP1 SWAP3 AND SWAP3 DUP4 SWAP2 PUSH32 0x8BE0079C531659141344CD1FD0A4F28419497F9722A3DAAFE3B4186F6B6457E0 SWAP2 SWAP1 LOG3 POP POP JUMP JUMPDEST PUSH2 0x77B DUP1 PUSH2 0xA5 PUSH1 0x0 CODECOPY PUSH1 0x0 RETURN INVALID PUSH1 0x80 PUSH1 0x40 MSTORE CALLVALUE DUP1 ISZERO PUSH2 0x10 JUMPI PUSH1 0x0 DUP1 REVERT JUMPDEST POP PUSH1 0x4 CALLDATASIZE LT PUSH2 0x62 JUMPI PUSH1 0x0 CALLDATALOAD PUSH1 0xE0 SHR DUP1 PUSH4 0x66840C54 EQ PUSH2 0x67 JUMPI DUP1 PUSH4 0x6B9DA1F8 EQ PUSH2 0x7A JUMPI DUP1 PUSH4 0x715018A6 EQ PUSH2 0x8D JUMPI DUP1 PUSH4 0x8DA5CB5B EQ PUSH2 0x95 JUMPI DUP1 PUSH4 0xF2FDE38B EQ PUSH2 0xB4 JUMPI DUP1 PUSH4 0xF2FE2ACA EQ PUSH2 0x78 JUMPI JUMPDEST PUSH1 0x0 DUP1 REVERT JUMPDEST PUSH2 0x78 PUSH2 0x75 CALLDATASIZE PUSH1 0x4 PUSH2 0x21F JUMP JUMPDEST POP JUMP JUMPDEST STOP JUMPDEST PUSH2 0x78 PUSH2 0x88 CALLDATASIZE PUSH1 0x4 PUSH2 0x2D8 JUMP JUMPDEST PUSH2 0xC7 JUMP JUMPDEST PUSH2 0x78 PUSH2 0x138 JUMP JUMPDEST PUSH1 0x0 SLOAD PUSH1 0x40 DUP1 MLOAD PUSH1 0x1 PUSH1 0x1 PUSH1 0xA0 SHL SUB SWAP1 SWAP3 AND DUP3 MSTORE MLOAD SWAP1 DUP2 SWAP1 SUB PUSH1 0x20 ADD SWAP1 RETURN JUMPDEST PUSH2 0x78 PUSH2 0xC2 CALLDATASIZE PUSH1 0x4 PUSH2 0x31A JUMP JUMPDEST PUSH2 0x14C JUMP JUMPDEST PUSH1 0x2 DUP1 SLOAD SWAP1 PUSH1 0x0 PUSH2 0xD7 DUP4 PUSH2 0x343 JUMP JUMPDEST SWAP1 SWAP2 SSTORE POP POP PUSH1 0x2 SLOAD PUSH1 0x0 SWAP1 DUP2 MSTORE PUSH1 0x3 PUSH1 0x20 MSTORE PUSH1 0x40 SWAP1 KECCAK256 DUP2 SWAP1 PUSH2 0xF9 DUP3 DUP3 PUSH2 0x533 JUMP JUMPDEST SWAP1 POP POP PUSH1 0x0 PUSH32 0x7FB62F768B9AE2B193226D19CD443DEF31E2639A40B895C74DB815B8E298F570 DUP3 PUSH1 0x40 MLOAD PUSH2 0x12D SWAP2 SWAP1 PUSH2 0x6A5 JUMP JUMPDEST PUSH1 0x40 MLOAD DUP1 SWAP2 SUB SWAP1 LOG2 POP JUMP JUMPDEST PUSH2 0x140 PUSH2 0x18C JUMP JUMPDEST PUSH2 0x14A PUSH1 0x0 PUSH2 0x1B9 JUMP JUMPDEST JUMP JUMPDEST PUSH2 0x154 PUSH2 0x18C JUMP JUMPDEST PUSH1 0x1 PUSH1 0x1 PUSH1 0xA0 SHL SUB DUP2 AND PUSH2 0x183 JUMPI PUSH1 0x40 MLOAD PUSH4 0x1E4FBDF7 PUSH1 0xE0 SHL DUP2 MSTORE PUSH1 0x0 PUSH1 0x4 DUP3 ADD MSTORE PUSH1 0x24 ADD JUMPDEST PUSH1 0x40 MLOAD DUP1 SWAP2 SUB SWAP1 REVERT JUMPDEST PUSH2 0x75 DUP2 PUSH2 0x1B9 JUMP JUMPDEST PUSH1 0x0 SLOAD PUSH1 0x1 PUSH1 0x1 PUSH1 0xA0 SHL SUB AND CALLER EQ PUSH2 0x14A JUMPI PUSH1 0x40 MLOAD PUSH4 0x118CDAA7 PUSH1 0xE0 SHL DUP2 MSTORE CALLER PUSH1 0x4 DUP3 ADD MSTORE PUSH1 0x24 ADD PUSH2 0x17A JUMP JUMPDEST PUSH1 0x0 DUP1 SLOAD PUSH1 0x1 PUSH1 0x1 PUSH1 0xA0 SHL SUB DUP4 DUP2 AND PUSH1 0x1 PUSH1 0x1 PUSH1 0xA0 SHL SUB NOT DUP4 AND DUP2 OR DUP5 SSTORE PUSH1 0x40 MLOAD SWAP2 SWAP1 SWAP3 AND SWAP3 DUP4 SWAP2 PUSH32 0x8BE0079C531659141344CD1FD0A4F28419497F9722A3DAAFE3B4186F6B6457E0 SWAP2 SWAP1 LOG3 POP POP JUMP JUMPDEST PUSH4 0x4E487B71 PUSH1 0xE0 SHL PUSH1 0x0 MSTORE PUSH1 0x41 PUSH1 0x4 MSTORE PUSH1 0x24 PUSH1 0x0 REVERT JUMPDEST PUSH1 0x0 PUSH1 0x20 DUP3 DUP5 SUB SLT ISZERO PUSH2 0x231 JUMPI PUSH1 0x0 DUP1 REVERT JUMPDEST DUP2 CALLDATALOAD PUSH8 0xFFFFFFFFFFFFFFFF DUP2 GT ISZERO PUSH2 0x248 JUMPI PUSH1 0x0 DUP1 REVERT JUMPDEST DUP3 ADD PUSH1 0x1F DUP2 ADD DUP5 SGT PUSH2 0x259 JUMPI PUSH1 0x0 DUP1 REVERT JUMPDEST DUP1 CALLDATALOAD PUSH8 0xFFFFFFFFFFFFFFFF DUP2 GT ISZERO PUSH2 0x273 JUMPI PUSH2 0x273 PUSH2 0x209 JUMP JUMPDEST PUSH1 0x40 MLOAD PUSH1 0x1F DUP3 ADD PUSH1 0x1F NOT SWAP1 DUP2 AND PUSH1 0x3F ADD AND DUP2 ADD PUSH8 0xFFFFFFFFFFFFFFFF DUP2 GT DUP3 DUP3 LT OR ISZERO PUSH2 0x2A2 JUMPI PUSH2 0x2A2 PUSH2 0x209 JUMP JUMPDEST PUSH1 0x40 MSTORE DUP2 DUP2 MSTORE DUP3 DUP3 ADD PUSH1 0x20 ADD DUP7 LT ISZERO PUSH2 0x2BA JUMPI PUSH1 0x0 DUP1 REVERT JUMPDEST DUP2 PUSH1 0x20 DUP5 ADD PUSH1 0x20 DUP4 ADD CALLDATACOPY PUSH1 0x0 SWAP2 DUP2 ADD PUSH1 0x20 ADD SWAP2 SWAP1 SWAP2 MSTORE SWAP5 SWAP4 POP POP POP POP JUMP JUMPDEST PUSH1 0x0 PUSH1 0x20 DUP3 DUP5 SUB SLT ISZERO PUSH2 0x2EA JUMPI PUSH1 0x0 DUP1 REVERT JUMPDEST DUP2 CALLDATALOAD PUSH8 0xFFFFFFFFFFFFFFFF DUP2 GT ISZERO PUSH2 0x301 JUMPI PUSH1 0x0 DUP1 REVERT JUMPDEST DUP3 ADD PUSH1 0xE0 DUP2 DUP6 SUB SLT ISZERO PUSH2 0x313 JUMPI PUSH1 0x0 DUP1 REVERT JUMPDEST SWAP4 SWAP3 POP POP POP JUMP JUMPDEST PUSH1 0x0 PUSH1 0x20 DUP3 DUP5 SUB SLT ISZERO PUSH2 0x32C JUMPI PUSH1 0x0 DUP1 REVERT JUMPDEST DUP2 CALLDATALOAD PUSH1 0x1 PUSH1 0x1 PUSH1 0xA0 SHL SUB DUP2 AND DUP2 EQ PUSH2 0x313 JUMPI PUSH1 0x0 DUP1 REVERT JUMPDEST PUSH1 0x0 PUSH1 0x1 DUP3 ADD PUSH2 0x363 JUMPI PUSH4 0x4E487B71 PUSH1 0xE0 SHL PUSH1 0x0 MSTORE PUSH1 0x11 PUSH1 0x4 MSTORE PUSH1 0x24 PUSH1 0x0 REVERT JUMPDEST POP PUSH1 0x1 ADD SWAP1 JUMP JUMPDEST PUSH1 0x0 DUP1 DUP4 CALLDATALOAD PUSH1 0x1E NOT DUP5 CALLDATASIZE SUB ADD DUP2 SLT PUSH2 0x381 JUMPI PUSH1 0x0 DUP1 REVERT JUMPDEST DUP4 ADD DUP1 CALLDATALOAD SWAP2 POP PUSH8 0xFFFFFFFFFFFFFFFF DUP3 GT ISZERO PUSH2 0x39C JUMPI PUSH1 0x0 DUP1 REVERT JUMPDEST PUSH1 0x20 ADD SWAP2 POP CALLDATASIZE DUP2 SWAP1 SUB DUP3 SGT ISZERO PUSH2 0x3B1 JUMPI PUSH1 0x0 DUP1 REVERT JUMPDEST SWAP3 POP SWAP3 SWAP1 POP JUMP JUMPDEST PUSH1 0x1 DUP2 DUP2 SHR SWAP1 DUP3 AND DUP1 PUSH2 0x3CC JUMPI PUSH1 0x7F DUP3 AND SWAP2 POP JUMPDEST PUSH1 0x20 DUP3 LT DUP2 SUB PUSH2 0x3EC JUMPI PUSH4 0x4E487B71 PUSH1 0xE0 SHL PUSH1 0x0 MSTORE PUSH1 0x22 PUSH1 0x4 MSTORE PUSH1 0x24 PUSH1 0x0 REVERT JUMPDEST POP SWAP2 SWAP1 POP JUMP JUMPDEST PUSH1 0x1F DUP3 GT ISZERO PUSH2 0x43C JUMPI DUP1 PUSH1 0x0 MSTORE PUSH1 0x20 PUSH1 0x0 KECCAK256 PUSH1 0x1F DUP5 ADD PUSH1 0x5 SHR DUP2 ADD PUSH1 0x20 DUP6 LT ISZERO PUSH2 0x419 JUMPI POP DUP1 JUMPDEST PUSH1 0x1F DUP5 ADD PUSH1 0x5 SHR DUP3 ADD SWAP2 POP JUMPDEST DUP2 DUP2 LT ISZERO PUSH2 0x439 JUMPI PUSH1 0x0 DUP2 SSTORE PUSH1 0x1 ADD PUSH2 0x425 JUMP JUMPDEST POP POP JUMPDEST POP POP POP JUMP JUMPDEST PUSH8 0xFFFFFFFFFFFFFFFF DUP4 GT ISZERO PUSH2 0x459 JUMPI PUSH2 0x459 PUSH2 0x209 JUMP JUMPDEST PUSH2 0x46D DUP4 PUSH2 0x467 DUP4 SLOAD PUSH2 0x3B8 JUMP JUMPDEST DUP4 PUSH2 0x3F2 JUMP JUMPDEST PUSH1 0x0 PUSH1 0x1F DUP5 GT PUSH1 0x1 DUP2 EQ PUSH2 0x4A1 JUMPI PUSH1 0x0 DUP6 ISZERO PUSH2 0x489 JUMPI POP DUP4 DUP3 ADD CALLDATALOAD JUMPDEST PUSH1 0x0 NOT PUSH1 0x3 DUP8 SWAP1 SHL SHR NOT AND PUSH1 0x1 DUP7 SWAP1 SHL OR DUP4 SSTORE PUSH2 0x439 JUMP JUMPDEST PUSH1 0x0 DUP4 DUP2 MSTORE PUSH1 0x20 SWAP1 KECCAK256 PUSH1 0x1F NOT DUP7 AND SWAP1 DUP4 JUMPDEST DUP3 DUP2 LT ISZERO PUSH2 0x4D2 JUMPI DUP7 DUP6 ADD CALLDATALOAD DUP3 SSTORE PUSH1 0x20 SWAP5 DUP6 ADD SWAP5 PUSH1 0x1 SWAP1 SWAP3 ADD SWAP2 ADD PUSH2 0x4B2 JUMP JUMPDEST POP DUP7 DUP3 LT ISZERO PUSH2 0x4EF JUMPI PUSH1 0x0 NOT PUSH1 0xF8 DUP9 PUSH1 0x3 SHL AND SHR NOT DUP5 DUP8 ADD CALLDATALOAD AND DUP2 SSTORE JUMPDEST POP POP PUSH1 0x1 DUP6 PUSH1 0x1 SHL ADD DUP4 SSTORE POP POP POP POP POP JUMP JUMPDEST DUP2 DUP2 PUSH1 0x0 JUMPDEST PUSH1 0x2 DUP2 LT ISZERO PUSH2 0x439 JUMPI DUP3 CALLDATALOAD DUP3 SSTORE PUSH1 0x20 DUP4 ADD CALLDATALOAD PUSH1 0x1 DUP1 DUP5 ADD SWAP2 SWAP1 SWAP2 SSTORE PUSH1 0x40 SWAP1 SWAP4 ADD SWAP3 PUSH1 0x2 SWAP1 SWAP3 ADD SWAP2 ADD PUSH2 0x506 JUMP JUMPDEST PUSH2 0x53D DUP3 DUP4 PUSH2 0x36A JUMP JUMPDEST PUSH8 0xFFFFFFFFFFFFFFFF DUP2 GT ISZERO PUSH2 0x555 JUMPI PUSH2 0x555 PUSH2 0x209 JUMP JUMPDEST PUSH2 0x569 DUP2 PUSH2 0x563 DUP6 SLOAD PUSH2 0x3B8 JUMP JUMPDEST DUP6 PUSH2 0x3F2 JUMP JUMPDEST PUSH1 0x0 PUSH1 0x1F DUP3 GT PUSH1 0x1 DUP2 EQ PUSH2 0x59D JUMPI PUSH1 0x0 DUP4 ISZERO PUSH2 0x585 JUMPI POP DUP4 DUP3 ADD CALLDATALOAD JUMPDEST PUSH1 0x0 NOT PUSH1 0x3 DUP6 SWAP1 SHL SHR NOT AND PUSH1 0x1 DUP5 SWAP1 SHL OR DUP6 SSTORE PUSH2 0x5F7 JUMP JUMPDEST PUSH1 0x0 DUP6 DUP2 MSTORE PUSH1 0x20 SWAP1 KECCAK256 PUSH1 0x1F NOT DUP5 AND SWAP1 DUP4 JUMPDEST DUP3 DUP2 LT ISZERO PUSH2 0x5CE JUMPI DUP7 DUP6 ADD CALLDATALOAD DUP3 SSTORE PUSH1 0x20 SWAP5 DUP6 ADD SWAP5 PUSH1 0x1 SWAP1 SWAP3 ADD SWAP2 ADD PUSH2 0x5AE JUMP JUMPDEST POP DUP5 DUP3 LT ISZERO PUSH2 0x5EB JUMPI PUSH1 0x0 NOT PUSH1 0xF8 DUP7 PUSH1 0x3 SHL AND SHR NOT DUP5 DUP8 ADD CALLDATALOAD AND DUP2 SSTORE JUMPDEST POP POP PUSH1 0x1 DUP4 PUSH1 0x1 SHL ADD DUP6 SSTORE JUMPDEST POP POP POP POP PUSH2 0x608 PUSH1 0x20 DUP4 ADD DUP4 PUSH2 0x36A JUMP JUMPDEST PUSH2 0x616 DUP2 DUP4 PUSH1 0x1 DUP7 ADD PUSH2 0x441 JUMP JUMPDEST POP POP PUSH1 0x40 DUP3 ADD CALLDATALOAD PUSH1 0x2 DUP3 ADD SSTORE PUSH2 0x632 PUSH1 0x60 DUP4 ADD PUSH1 0x3 DUP4 ADD PUSH2 0x501 JUMP JUMPDEST POP POP JUMP JUMPDEST PUSH1 0x0 DUP1 DUP4 CALLDATALOAD PUSH1 0x1E NOT DUP5 CALLDATASIZE SUB ADD DUP2 SLT PUSH2 0x64D JUMPI PUSH1 0x0 DUP1 REVERT JUMPDEST DUP4 ADD PUSH1 0x20 DUP2 ADD SWAP3 POP CALLDATALOAD SWAP1 POP PUSH8 0xFFFFFFFFFFFFFFFF DUP2 GT ISZERO PUSH2 0x66D JUMPI PUSH1 0x0 DUP1 REVERT JUMPDEST DUP1 CALLDATASIZE SUB DUP3 SGT ISZERO PUSH2 0x3B1 JUMPI PUSH1 0x0 DUP1 REVERT JUMPDEST DUP2 DUP4 MSTORE DUP2 DUP2 PUSH1 0x20 DUP6 ADD CALLDATACOPY POP PUSH1 0x0 DUP3 DUP3 ADD PUSH1 0x20 SWAP1 DUP2 ADD SWAP2 SWAP1 SWAP2 MSTORE PUSH1 0x1F SWAP1 SWAP2 ADD PUSH1 0x1F NOT AND SWAP1 SWAP2 ADD ADD SWAP1 JUMP JUMPDEST PUSH1 0x20 DUP2 MSTORE PUSH1 0x0 PUSH2 0x6B5 DUP4 DUP5 PUSH2 0x636 JUMP JUMPDEST PUSH1 0xE0 PUSH1 0x20 DUP6 ADD MSTORE PUSH2 0x6CB PUSH2 0x100 DUP6 ADD DUP3 DUP5 PUSH2 0x67C JUMP JUMPDEST SWAP2 POP POP PUSH2 0x6DB PUSH1 0x20 DUP6 ADD DUP6 PUSH2 0x636 JUMP JUMPDEST DUP5 DUP4 SUB PUSH1 0x1F NOT ADD PUSH1 0x40 DUP7 ADD MSTORE PUSH2 0x6F2 DUP4 DUP3 DUP5 PUSH2 0x67C JUMP JUMPDEST SWAP3 POP POP POP PUSH1 0x0 PUSH1 0x40 DUP6 ADD CALLDATALOAD SWAP1 POP DUP1 PUSH1 0x60 DUP6 ADD MSTORE POP PUSH1 0x80 DUP4 ADD PUSH1 0x60 DUP6 ADD PUSH1 0x0 JUMPDEST PUSH1 0x2 DUP2 LT ISZERO PUSH2 0x73A JUMPI DUP2 CALLDATALOAD DUP4 MSTORE PUSH1 0x20 DUP1 DUP4 ADD CALLDATALOAD SWAP1 DUP5 ADD MSTORE PUSH1 0x40 SWAP3 DUP4 ADD SWAP3 SWAP1 SWAP2 ADD SWAP1 PUSH1 0x1 ADD PUSH2 0x711 JUMP JUMPDEST POP SWAP2 SWAP6 SWAP5 POP POP POP POP POP JUMP INVALID LOG2 PUSH5 0x6970667358 0x22 SLT KECCAK256 LOG0 0x4F ORIGIN 0x4C DUP1 0x4B CALL PC BASEFEE MOD 0x1F SWAP10 0xB1 RETURNDATACOPY 0xE4 PUSH24 0xA3C61B4D75F96A7B823497FA0F442CC264736F6C63430008 SHL STOP CALLER "
        },
        "methodIdentifiers": {
          "applyToFellowship(string)": "66840c54",
          "createFellowship((string,string,uint256,(uint256,uint256)[2]))": "6b9da1f8",
          "openFellowshipMarket()": "f2fe2aca",
          "owner()": "8da5cb5b",
          "renounceOwnership()": "715018a6",
          "transferOwnership(address)": "f2fde38b"
        }
      }
    }
  }
}