{
  "contracts/vlayer/GithubVerificationRegistry.sol": {
    "GithubVerificationRegistry": {
      "abi": [
        {
          "inputs": [
            {
              "internalType": "contract IProofVerifier",
              "name": "_proofVerifier",
              "type": "address"
            }
          ],
          "stateMutability": "nonpayable",
          "type": "constructor"
        },
        {
          "inputs": [
            {
              "internalType": "address",
              "name": "owner",
              "type": "address"
            }
          ],
          "name": "OwnableInvalidOwner",
          "type": "error"
        },
        {
          "inputs": [
            {
              "internalType": "address",
              "name": "account",
              "type": "address"
            }
          ],
          "name": "OwnableUnauthorizedAccount",
          "type": "error"
        },
        {
          "anonymous": false,
          "inputs": [
            {
              "indexed": true,
              "internalType": "address",
              "name": "previousOwner",
              "type": "address"
            },
            {
              "indexed": true,
              "internalType": "address",
              "name": "newOwner",
              "type": "address"
            }
          ],
          "name": "OwnershipTransferred",
          "type": "event"
        },
        {
          "anonymous": false,
          "inputs": [
            {
              "indexed": false,
              "internalType": "string",
              "name": "username",
              "type": "string"
            },
            {
              "indexed": false,
              "internalType": "address",
              "name": "account",
              "type": "address"
            }
          ],
          "name": "ProofVerified",
          "type": "event"
        },
        {
          "inputs": [
            {
              "internalType": "string",
              "name": "githubUsername",
              "type": "string"
            }
          ],
          "name": "githubUsernameToAccount",
          "outputs": [
            {
              "internalType": "address",
              "name": "account",
              "type": "address"
            }
          ],
          "stateMutability": "view",
          "type": "function"
        },
        {
          "inputs": [],
          "name": "owner",
          "outputs": [
            {
              "internalType": "address",
              "name": "",
              "type": "address"
            }
          ],
          "stateMutability": "view",
          "type": "function"
        },
        {
          "inputs": [],
          "name": "proofVerifier",
          "outputs": [
            {
              "internalType": "contract IProofVerifier",
              "name": "",
              "type": "address"
            }
          ],
          "stateMutability": "view",
          "type": "function"
        },
        {
          "inputs": [],
          "name": "renounceOwnership",
          "outputs": [],
          "stateMutability": "nonpayable",
          "type": "function"
        },
        {
          "inputs": [
            {
              "internalType": "string",
              "name": "_username",
              "type": "string"
            }
          ],
          "name": "resolve",
          "outputs": [
            {
              "internalType": "address",
              "name": "",
              "type": "address"
            }
          ],
          "stateMutability": "view",
          "type": "function"
        },
        {
          "inputs": [
            {
              "internalType": "address",
              "name": "_proofVerifier",
              "type": "address"
            }
          ],
          "name": "setProofVerifier",
          "outputs": [],
          "stateMutability": "nonpayable",
          "type": "function"
        },
        {
          "inputs": [
            {
              "internalType": "address",
              "name": "newOwner",
              "type": "address"
            }
          ],
          "name": "transferOwnership",
          "outputs": [],
          "stateMutability": "nonpayable",
          "type": "function"
        },
        {
          "inputs": [
            {
              "components": [
                {
                  "components": [
                    {
                      "internalType": "bytes4",
                      "name": "verifierSelector",
                      "type": "bytes4"
                    },
                    {
                      "internalType": "bytes32[8]",
                      "name": "seal",
                      "type": "bytes32[8]"
                    },
                    {
                      "internalType": "enum ProofMode",
                      "name": "mode",
                      "type": "uint8"
                    }
                  ],
                  "internalType": "struct Seal",
                  "name": "seal",
                  "type": "tuple"
                },
                {
                  "internalType": "bytes32",
                  "name": "callGuestId",
                  "type": "bytes32"
                },
                {
                  "internalType": "uint256",
                  "name": "length",
                  "type": "uint256"
                },
                {
                  "components": [
                    {
                      "internalType": "address",
                      "name": "proverContractAddress",
                      "type": "address"
                    },
                    {
                      "internalType": "bytes4",
                      "name": "functionSelector",
                      "type": "bytes4"
                    },
                    {
                      "internalType": "uint256",
                      "name": "settleBlockNumber",
                      "type": "uint256"
                    },
                    {
                      "internalType": "bytes32",
                      "name": "settleBlockHash",
                      "type": "bytes32"
                    }
                  ],
                  "internalType": "struct CallAssumptions",
                  "name": "callAssumptions",
                  "type": "tuple"
                }
              ],
              "internalType": "struct Proof",
              "name": "_proof",
              "type": "tuple"
            },
            {
              "internalType": "string",
              "name": "_username",
              "type": "string"
            },
            {
              "internalType": "address",
              "name": "_account",
              "type": "address"
            }
          ],
          "name": "verify",
          "outputs": [],
          "stateMutability": "nonpayable",
          "type": "function"
        }
      ],
      "evm": {
        "bytecode": {
          "linkReferences": {},
          "object": "608060405234801561001057600080fd5b5060405161078438038061078483398101604081905261002f916100d4565b338061005557604051631e4fbdf760e01b81526000600482015260240160405180910390fd5b61005e81610084565b50600180546001600160a01b0319166001600160a01b0392909216919091179055610104565b600080546001600160a01b038381166001600160a01b0319831681178455604051919092169283917f8be0079c531659141344cd1fd0a4f28419497f9722a3daafe3b4186f6b6457e09190a35050565b6000602082840312156100e657600080fd5b81516001600160a01b03811681146100fd57600080fd5b9392505050565b610671806101136000396000f3fe608060405234801561001057600080fd5b50600436106100885760003560e01c80638da5cb5b1161005b5780638da5cb5b146100ec578063ab635c6e146100fd578063df6244db14610131578063f2fde38b1461014457600080fd5b8063461a44781461008d5780636663d49b146100bc578063715018a6146100d15780637fa417b3146100d9575b600080fd5b6100a061009b3660046103cf565b610157565b6040516001600160a01b03909116815260200160405180910390f35b6100cf6100ca366004610428565b610188565b005b6100cf61022c565b6001546100a0906001600160a01b031681565b6000546001600160a01b03166100a0565b6100a061010b3660046103cf565b80516020818301810180516002825292820191909301209152546001600160a01b031681565b6100cf61013f366004610492565b610240565b6100cf610152366004610492565b61026a565b600060028260405161016991906104d8565b908152604051908190036020019020546001600160a01b031692915050565b600154604051636663d49b60e01b81526001600160a01b0390911690636663d49b906101bc9086908690869060040161057c565b600060405180830381600087803b1580156101d657600080fd5b505af11580156101ea573d6000803e3d6000fd5b505050507f3901754143c0c4d1c7e6d4b9b34e1c210413d6da9de93f9be230022c0eb41f0a828260405161021f929190610611565b60405180910390a1505050565b6102346102ad565b61023e60006102da565b565b6102486102ad565b600180546001600160a01b0319166001600160a01b0392909216919091179055565b6102726102ad565b6001600160a01b0381166102a157604051631e4fbdf760e01b8152600060048201526024015b60405180910390fd5b6102aa816102da565b50565b6000546001600160a01b0316331461023e5760405163118cdaa760e01b8152336004820152602401610298565b600080546001600160a01b038381166001600160a01b0319831681178455604051919092169283917f8be0079c531659141344cd1fd0a4f28419497f9722a3daafe3b4186f6b6457e09190a35050565b634e487b7160e01b600052604160045260246000fd5b600082601f83011261035157600080fd5b813567ffffffffffffffff81111561036b5761036b61032a565b604051601f8201601f19908116603f0116810167ffffffffffffffff8111828210171561039a5761039a61032a565b6040528181528382016020018510156103b257600080fd5b816020850160208301376000918101602001919091529392505050565b6000602082840312156103e157600080fd5b813567ffffffffffffffff8111156103f857600080fd5b61040484828501610340565b949350505050565b80356001600160a01b038116811461042357600080fd5b919050565b600080600083850361024081121561043f57600080fd5b61020081121561044e57600080fd5b5083925061020084013567ffffffffffffffff81111561046d57600080fd5b61047986828701610340565b925050610489610220850161040c565b90509250925092565b6000602082840312156104a457600080fd5b6104ad8261040c565b9392505050565b60005b838110156104cf5781810151838201526020016104b7565b50506000910152565b600082516104ea8184602087016104b4565b9190910192915050565b80356001600160e01b03198116811461042357600080fd5b6001600160a01b0361051d8261040c565b1682526001600160e01b0319610535602083016104f4565b16602083015260408181013590830152606090810135910152565b600081518084526105688160208601602086016104b4565b601f01601f19169290920160200192915050565b6001600160e01b031961058e856104f4565b1681526101006020850160208301376000610120850135600281101580156105b557600080fd5b50610120830152610140858101359083015261016080860135908301526105e361018080840190870161050c565b6102406102008301526105fa610240830185610550565b6001600160a01b0384166102208401529050610404565b6040815260006106246040830185610550565b905060018060a01b0383166020830152939250505056fea26469706673582212205d3b24b04a6f9751c17874ea89f8badcbcdf532ef856a114142a585affb4620764736f6c634300081b0033",
          "opcodes": "PUSH1 0x80 PUSH1 0x40 MSTORE CALLVALUE DUP1 ISZERO PUSH2 0x10 JUMPI PUSH1 0x0 DUP1 REVERT JUMPDEST POP PUSH1 0x40 MLOAD PUSH2 0x784 CODESIZE SUB DUP1 PUSH2 0x784 DUP4 CODECOPY DUP2 ADD PUSH1 0x40 DUP2 SWAP1 MSTORE PUSH2 0x2F SWAP2 PUSH2 0xD4 JUMP JUMPDEST CALLER DUP1 PUSH2 0x55 JUMPI PUSH1 0x40 MLOAD PUSH4 0x1E4FBDF7 PUSH1 0xE0 SHL DUP2 MSTORE PUSH1 0x0 PUSH1 0x4 DUP3 ADD MSTORE PUSH1 0x24 ADD PUSH1 0x40 MLOAD DUP1 SWAP2 SUB SWAP1 REVERT JUMPDEST PUSH2 0x5E DUP2 PUSH2 0x84 JUMP JUMPDEST POP PUSH1 0x1 DUP1 SLOAD PUSH1 0x1 PUSH1 0x1 PUSH1 0xA0 SHL SUB NOT AND PUSH1 0x1 PUSH1 0x1 PUSH1 0xA0 SHL SUB SWAP3 SWAP1 SWAP3 AND SWAP2 SWAP1 SWAP2 OR SWAP1 SSTORE PUSH2 0x104 JUMP JUMPDEST PUSH1 0x0 DUP1 SLOAD PUSH1 0x1 PUSH1 0x1 PUSH1 0xA0 SHL SUB DUP4 DUP2 AND PUSH1 0x1 PUSH1 0x1 PUSH1 0xA0 SHL SUB NOT DUP4 AND DUP2 OR DUP5 SSTORE PUSH1 0x40 MLOAD SWAP2 SWAP1 SWAP3 AND SWAP3 DUP4 SWAP2 PUSH32 0x8BE0079C531659141344CD1FD0A4F28419497F9722A3DAAFE3B4186F6B6457E0 SWAP2 SWAP1 LOG3 POP POP JUMP JUMPDEST PUSH1 0x0 PUSH1 0x20 DUP3 DUP5 SUB SLT ISZERO PUSH2 0xE6 JUMPI PUSH1 0x0 DUP1 REVERT JUMPDEST DUP2 MLOAD PUSH1 0x1 PUSH1 0x1 PUSH1 0xA0 SHL SUB DUP2 AND DUP2 EQ PUSH2 0xFD JUMPI PUSH1 0x0 DUP1 REVERT JUMPDEST SWAP4 SWAP3 POP POP POP JUMP JUMPDEST PUSH2 0x671 DUP1 PUSH2 0x113 PUSH1 0x0 CODECOPY PUSH1 0x0 RETURN INVALID PUSH1 0x80 PUSH1 0x40 MSTORE CALLVALUE DUP1 ISZERO PUSH2 0x10 JUMPI PUSH1 0x0 DUP1 REVERT JUMPDEST POP PUSH1 0x4 CALLDATASIZE LT PUSH2 0x88 JUMPI PUSH1 0x0 CALLDATALOAD PUSH1 0xE0 SHR DUP1 PUSH4 0x8DA5CB5B GT PUSH2 0x5B JUMPI DUP1 PUSH4 0x8DA5CB5B EQ PUSH2 0xEC JUMPI DUP1 PUSH4 0xAB635C6E EQ PUSH2 0xFD JUMPI DUP1 PUSH4 0xDF6244DB EQ PUSH2 0x131 JUMPI DUP1 PUSH4 0xF2FDE38B EQ PUSH2 0x144 JUMPI PUSH1 0x0 DUP1 REVERT JUMPDEST DUP1 PUSH4 0x461A4478 EQ PUSH2 0x8D JUMPI DUP1 PUSH4 0x6663D49B EQ PUSH2 0xBC JUMPI DUP1 PUSH4 0x715018A6 EQ PUSH2 0xD1 JUMPI DUP1 PUSH4 0x7FA417B3 EQ PUSH2 0xD9 JUMPI JUMPDEST PUSH1 0x0 DUP1 REVERT JUMPDEST PUSH2 0xA0 PUSH2 0x9B CALLDATASIZE PUSH1 0x4 PUSH2 0x3CF JUMP JUMPDEST PUSH2 0x157 JUMP JUMPDEST PUSH1 0x40 MLOAD PUSH1 0x1 PUSH1 0x1 PUSH1 0xA0 SHL SUB SWAP1 SWAP2 AND DUP2 MSTORE PUSH1 0x20 ADD PUSH1 0x40 MLOAD DUP1 SWAP2 SUB SWAP1 RETURN JUMPDEST PUSH2 0xCF PUSH2 0xCA CALLDATASIZE PUSH1 0x4 PUSH2 0x428 JUMP JUMPDEST PUSH2 0x188 JUMP JUMPDEST STOP JUMPDEST PUSH2 0xCF PUSH2 0x22C JUMP JUMPDEST PUSH1 0x1 SLOAD PUSH2 0xA0 SWAP1 PUSH1 0x1 PUSH1 0x1 PUSH1 0xA0 SHL SUB AND DUP2 JUMP JUMPDEST PUSH1 0x0 SLOAD PUSH1 0x1 PUSH1 0x1 PUSH1 0xA0 SHL SUB AND PUSH2 0xA0 JUMP JUMPDEST PUSH2 0xA0 PUSH2 0x10B CALLDATASIZE PUSH1 0x4 PUSH2 0x3CF JUMP JUMPDEST DUP1 MLOAD PUSH1 0x20 DUP2 DUP4 ADD DUP2 ADD DUP1 MLOAD PUSH1 0x2 DUP3 MSTORE SWAP3 DUP3 ADD SWAP2 SWAP1 SWAP4 ADD KECCAK256 SWAP2 MSTORE SLOAD PUSH1 0x1 PUSH1 0x1 PUSH1 0xA0 SHL SUB AND DUP2 JUMP JUMPDEST PUSH2 0xCF PUSH2 0x13F CALLDATASIZE PUSH1 0x4 PUSH2 0x492 JUMP JUMPDEST PUSH2 0x240 JUMP JUMPDEST PUSH2 0xCF PUSH2 0x152 CALLDATASIZE PUSH1 0x4 PUSH2 0x492 JUMP JUMPDEST PUSH2 0x26A JUMP JUMPDEST PUSH1 0x0 PUSH1 0x2 DUP3 PUSH1 0x40 MLOAD PUSH2 0x169 SWAP2 SWAP1 PUSH2 0x4D8 JUMP JUMPDEST SWAP1 DUP2 MSTORE PUSH1 0x40 MLOAD SWAP1 DUP2 SWAP1 SUB PUSH1 0x20 ADD SWAP1 KECCAK256 SLOAD PUSH1 0x1 PUSH1 0x1 PUSH1 0xA0 SHL SUB AND SWAP3 SWAP2 POP POP JUMP JUMPDEST PUSH1 0x1 SLOAD PUSH1 0x40 MLOAD PUSH4 0x6663D49B PUSH1 0xE0 SHL DUP2 MSTORE PUSH1 0x1 PUSH1 0x1 PUSH1 0xA0 SHL SUB SWAP1 SWAP2 AND SWAP1 PUSH4 0x6663D49B SWAP1 PUSH2 0x1BC SWAP1 DUP7 SWAP1 DUP7 SWAP1 DUP7 SWAP1 PUSH1 0x4 ADD PUSH2 0x57C JUMP JUMPDEST PUSH1 0x0 PUSH1 0x40 MLOAD DUP1 DUP4 SUB DUP2 PUSH1 0x0 DUP8 DUP1 EXTCODESIZE ISZERO DUP1 ISZERO PUSH2 0x1D6 JUMPI PUSH1 0x0 DUP1 REVERT JUMPDEST POP GAS CALL ISZERO DUP1 ISZERO PUSH2 0x1EA JUMPI RETURNDATASIZE PUSH1 0x0 DUP1 RETURNDATACOPY RETURNDATASIZE PUSH1 0x0 REVERT JUMPDEST POP POP POP POP PUSH32 0x3901754143C0C4D1C7E6D4B9B34E1C210413D6DA9DE93F9BE230022C0EB41F0A DUP3 DUP3 PUSH1 0x40 MLOAD PUSH2 0x21F SWAP3 SWAP2 SWAP1 PUSH2 0x611 JUMP JUMPDEST PUSH1 0x40 MLOAD DUP1 SWAP2 SUB SWAP1 LOG1 POP POP POP JUMP JUMPDEST PUSH2 0x234 PUSH2 0x2AD JUMP JUMPDEST PUSH2 0x23E PUSH1 0x0 PUSH2 0x2DA JUMP JUMPDEST JUMP JUMPDEST PUSH2 0x248 PUSH2 0x2AD JUMP JUMPDEST PUSH1 0x1 DUP1 SLOAD PUSH1 0x1 PUSH1 0x1 PUSH1 0xA0 SHL SUB NOT AND PUSH1 0x1 PUSH1 0x1 PUSH1 0xA0 SHL SUB SWAP3 SWAP1 SWAP3 AND SWAP2 SWAP1 SWAP2 OR SWAP1 SSTORE JUMP JUMPDEST PUSH2 0x272 PUSH2 0x2AD JUMP JUMPDEST PUSH1 0x1 PUSH1 0x1 PUSH1 0xA0 SHL SUB DUP2 AND PUSH2 0x2A1 JUMPI PUSH1 0x40 MLOAD PUSH4 0x1E4FBDF7 PUSH1 0xE0 SHL DUP2 MSTORE PUSH1 0x0 PUSH1 0x4 DUP3 ADD MSTORE PUSH1 0x24 ADD JUMPDEST PUSH1 0x40 MLOAD DUP1 SWAP2 SUB SWAP1 REVERT JUMPDEST PUSH2 0x2AA DUP2 PUSH2 0x2DA JUMP JUMPDEST POP JUMP JUMPDEST PUSH1 0x0 SLOAD PUSH1 0x1 PUSH1 0x1 PUSH1 0xA0 SHL SUB AND CALLER EQ PUSH2 0x23E JUMPI PUSH1 0x40 MLOAD PUSH4 0x118CDAA7 PUSH1 0xE0 SHL DUP2 MSTORE CALLER PUSH1 0x4 DUP3 ADD MSTORE PUSH1 0x24 ADD PUSH2 0x298 JUMP JUMPDEST PUSH1 0x0 DUP1 SLOAD PUSH1 0x1 PUSH1 0x1 PUSH1 0xA0 SHL SUB DUP4 DUP2 AND PUSH1 0x1 PUSH1 0x1 PUSH1 0xA0 SHL SUB NOT DUP4 AND DUP2 OR DUP5 SSTORE PUSH1 0x40 MLOAD SWAP2 SWAP1 SWAP3 AND SWAP3 DUP4 SWAP2 PUSH32 0x8BE0079C531659141344CD1FD0A4F28419497F9722A3DAAFE3B4186F6B6457E0 SWAP2 SWAP1 LOG3 POP POP JUMP JUMPDEST PUSH4 0x4E487B71 PUSH1 0xE0 SHL PUSH1 0x0 MSTORE PUSH1 0x41 PUSH1 0x4 MSTORE PUSH1 0x24 PUSH1 0x0 REVERT JUMPDEST PUSH1 0x0 DUP3 PUSH1 0x1F DUP4 ADD SLT PUSH2 0x351 JUMPI PUSH1 0x0 DUP1 REVERT JUMPDEST DUP2 CALLDATALOAD PUSH8 0xFFFFFFFFFFFFFFFF DUP2 GT ISZERO PUSH2 0x36B JUMPI PUSH2 0x36B PUSH2 0x32A JUMP JUMPDEST PUSH1 0x40 MLOAD PUSH1 0x1F DUP3 ADD PUSH1 0x1F NOT SWAP1 DUP2 AND PUSH1 0x3F ADD AND DUP2 ADD PUSH8 0xFFFFFFFFFFFFFFFF DUP2 GT DUP3 DUP3 LT OR ISZERO PUSH2 0x39A JUMPI PUSH2 0x39A PUSH2 0x32A JUMP JUMPDEST PUSH1 0x40 MSTORE DUP2 DUP2 MSTORE DUP4 DUP3 ADD PUSH1 0x20 ADD DUP6 LT ISZERO PUSH2 0x3B2 JUMPI PUSH1 0x0 DUP1 REVERT JUMPDEST DUP2 PUSH1 0x20 DUP6 ADD PUSH1 0x20 DUP4 ADD CALLDATACOPY PUSH1 0x0 SWAP2 DUP2 ADD PUSH1 0x20 ADD SWAP2 SWAP1 SWAP2 MSTORE SWAP4 SWAP3 POP POP POP JUMP JUMPDEST PUSH1 0x0 PUSH1 0x20 DUP3 DUP5 SUB SLT ISZERO PUSH2 0x3E1 JUMPI PUSH1 0x0 DUP1 REVERT JUMPDEST DUP2 CALLDATALOAD PUSH8 0xFFFFFFFFFFFFFFFF DUP2 GT ISZERO PUSH2 0x3F8 JUMPI PUSH1 0x0 DUP1 REVERT JUMPDEST PUSH2 0x404 DUP5 DUP3 DUP6 ADD PUSH2 0x340 JUMP JUMPDEST SWAP5 SWAP4 POP POP POP POP JUMP JUMPDEST DUP1 CALLDATALOAD PUSH1 0x1 PUSH1 0x1 PUSH1 0xA0 SHL SUB DUP2 AND DUP2 EQ PUSH2 0x423 JUMPI PUSH1 0x0 DUP1 REVERT JUMPDEST SWAP2 SWAP1 POP JUMP JUMPDEST PUSH1 0x0 DUP1 PUSH1 0x0 DUP4 DUP6 SUB PUSH2 0x240 DUP2 SLT ISZERO PUSH2 0x43F JUMPI PUSH1 0x0 DUP1 REVERT JUMPDEST PUSH2 0x200 DUP2 SLT ISZERO PUSH2 0x44E JUMPI PUSH1 0x0 DUP1 REVERT JUMPDEST POP DUP4 SWAP3 POP PUSH2 0x200 DUP5 ADD CALLDATALOAD PUSH8 0xFFFFFFFFFFFFFFFF DUP2 GT ISZERO PUSH2 0x46D JUMPI PUSH1 0x0 DUP1 REVERT JUMPDEST PUSH2 0x479 DUP7 DUP3 DUP8 ADD PUSH2 0x340 JUMP JUMPDEST SWAP3 POP POP PUSH2 0x489 PUSH2 0x220 DUP6 ADD PUSH2 0x40C JUMP JUMPDEST SWAP1 POP SWAP3 POP SWAP3 POP SWAP3 JUMP JUMPDEST PUSH1 0x0 PUSH1 0x20 DUP3 DUP5 SUB SLT ISZERO PUSH2 0x4A4 JUMPI PUSH1 0x0 DUP1 REVERT JUMPDEST PUSH2 0x4AD DUP3 PUSH2 0x40C JUMP JUMPDEST SWAP4 SWAP3 POP POP POP JUMP JUMPDEST PUSH1 0x0 JUMPDEST DUP4 DUP2 LT ISZERO PUSH2 0x4CF JUMPI DUP2 DUP2 ADD MLOAD DUP4 DUP3 ADD MSTORE PUSH1 0x20 ADD PUSH2 0x4B7 JUMP JUMPDEST POP POP PUSH1 0x0 SWAP2 ADD MSTORE JUMP JUMPDEST PUSH1 0x0 DUP3 MLOAD PUSH2 0x4EA DUP2 DUP5 PUSH1 0x20 DUP8 ADD PUSH2 0x4B4 JUMP JUMPDEST SWAP2 SWAP1 SWAP2 ADD SWAP3 SWAP2 POP POP JUMP JUMPDEST DUP1 CALLDATALOAD PUSH1 0x1 PUSH1 0x1 PUSH1 0xE0 SHL SUB NOT DUP2 AND DUP2 EQ PUSH2 0x423 JUMPI PUSH1 0x0 DUP1 REVERT JUMPDEST PUSH1 0x1 PUSH1 0x1 PUSH1 0xA0 SHL SUB PUSH2 0x51D DUP3 PUSH2 0x40C JUMP JUMPDEST AND DUP3 MSTORE PUSH1 0x1 PUSH1 0x1 PUSH1 0xE0 SHL SUB NOT PUSH2 0x535 PUSH1 0x20 DUP4 ADD PUSH2 0x4F4 JUMP JUMPDEST AND PUSH1 0x20 DUP4 ADD MSTORE PUSH1 0x40 DUP2 DUP2 ADD CALLDATALOAD SWAP1 DUP4 ADD MSTORE PUSH1 0x60 SWAP1 DUP2 ADD CALLDATALOAD SWAP2 ADD MSTORE JUMP JUMPDEST PUSH1 0x0 DUP2 MLOAD DUP1 DUP5 MSTORE PUSH2 0x568 DUP2 PUSH1 0x20 DUP7 ADD PUSH1 0x20 DUP7 ADD PUSH2 0x4B4 JUMP JUMPDEST PUSH1 0x1F ADD PUSH1 0x1F NOT AND SWAP3 SWAP1 SWAP3 ADD PUSH1 0x20 ADD SWAP3 SWAP2 POP POP JUMP JUMPDEST PUSH1 0x1 PUSH1 0x1 PUSH1 0xE0 SHL SUB NOT PUSH2 0x58E DUP6 PUSH2 0x4F4 JUMP JUMPDEST AND DUP2 MSTORE PUSH2 0x100 PUSH1 0x20 DUP6 ADD PUSH1 0x20 DUP4 ADD CALLDATACOPY PUSH1 0x0 PUSH2 0x120 DUP6 ADD CALLDATALOAD PUSH1 0x2 DUP2 LT ISZERO DUP1 ISZERO PUSH2 0x5B5 JUMPI PUSH1 0x0 DUP1 REVERT JUMPDEST POP PUSH2 0x120 DUP4 ADD MSTORE PUSH2 0x140 DUP6 DUP2 ADD CALLDATALOAD SWAP1 DUP4 ADD MSTORE PUSH2 0x160 DUP1 DUP7 ADD CALLDATALOAD SWAP1 DUP4 ADD MSTORE PUSH2 0x5E3 PUSH2 0x180 DUP1 DUP5 ADD SWAP1 DUP8 ADD PUSH2 0x50C JUMP JUMPDEST PUSH2 0x240 PUSH2 0x200 DUP4 ADD MSTORE PUSH2 0x5FA PUSH2 0x240 DUP4 ADD DUP6 PUSH2 0x550 JUMP JUMPDEST PUSH1 0x1 PUSH1 0x1 PUSH1 0xA0 SHL SUB DUP5 AND PUSH2 0x220 DUP5 ADD MSTORE SWAP1 POP PUSH2 0x404 JUMP JUMPDEST PUSH1 0x40 DUP2 MSTORE PUSH1 0x0 PUSH2 0x624 PUSH1 0x40 DUP4 ADD DUP6 PUSH2 0x550 JUMP JUMPDEST SWAP1 POP PUSH1 0x1 DUP1 PUSH1 0xA0 SHL SUB DUP4 AND PUSH1 0x20 DUP4 ADD MSTORE SWAP4 SWAP3 POP POP POP JUMP INVALID LOG2 PUSH5 0x6970667358 0x22 SLT KECCAK256 TSTORE EXTCODESIZE 0x24 0xB0 BLOBBASEFEE PUSH16 0x9751C17874EA89F8BADCBCDF532EF856 LOG1 EQ EQ 0x2A PC GAS SELFDESTRUCT 0xB4 PUSH3 0x76473 PUSH16 0x6C634300081B00330000000000000000 "
        },
        "methodIdentifiers": {
          "githubUsernameToAccount(string)": "ab635c6e",
          "owner()": "8da5cb5b",
          "proofVerifier()": "7fa417b3",
          "renounceOwnership()": "715018a6",
          "resolve(string)": "461a4478",
          "setProofVerifier(address)": "df6244db",
          "transferOwnership(address)": "f2fde38b",
          "verify(((bytes4,bytes32[8],uint8),bytes32,uint256,(address,bytes4,uint256,bytes32)),string,address)": "6663d49b"
        }
      }
    }
  }
}